{
	"data": {
		"bytecode": {
			"linkReferences": {},
			"object": "608060405234801561000f575f80fd5b506040516143743803806143748339818101604052810190610031919061044b565b336040518060400160405280600a81526020017f4469706c6f6d614e4654000000000000000000000000000000000000000000008152506040518060400160405280600681526020017f4469706c544b0000000000000000000000000000000000000000000000000000815250815f90816100ac919061069f565b5080600190816100bc919061069f565b5050505f73ffffffffffffffffffffffffffffffffffffffff168173ffffffffffffffffffffffffffffffffffffffff160361012f575f6040517f1e4fbdf7000000000000000000000000000000000000000000000000000000008152600401610126919061077d565b60405180910390fd5b61013e816101cd60201b60201c565b505f5b81518110156101c6576001600a5f84848151811061016257610161610796565b5b602002602001015173ffffffffffffffffffffffffffffffffffffffff1673ffffffffffffffffffffffffffffffffffffffff1681526020019081526020015f205f6101000a81548160ff0219169083151502179055508080600101915050610141565b50506107c3565b5f60075f9054906101000a900473ffffffffffffffffffffffffffffffffffffffff1690508160075f6101000a81548173ffffffffffffffffffffffffffffffffffffffff021916908373ffffffffffffffffffffffffffffffffffffffff1602179055508173ffffffffffffffffffffffffffffffffffffffff168173ffffffffffffffffffffffffffffffffffffffff167f8be0079c531659141344cd1fd0a4f28419497f9722a3daafe3b4186f6b6457e060405160405180910390a35050565b5f604051905090565b5f80fd5b5f80fd5b5f80fd5b5f601f19601f8301169050919050565b7f4e487b71000000000000000000000000000000000000000000000000000000005f52604160045260245ffd5b6102eb826102a5565b810181811067ffffffffffffffff8211171561030a576103096102b5565b5b80604052505050565b5f61031c610290565b905061032882826102e2565b919050565b5f67ffffffffffffffff821115610347576103466102b5565b5b602082029050602081019050919050565b5f80fd5b5f73ffffffffffffffffffffffffffffffffffffffff82169050919050565b5f6103858261035c565b9050919050565b6103958161037b565b811461039f575f80fd5b50565b5f815190506103b08161038c565b92915050565b5f6103c86103c38461032d565b610313565b905080838252602082019050602084028301858111156103eb576103ea610358565b5b835b81811015610414578061040088826103a2565b8452602084019350506020810190506103ed565b5050509392505050565b5f82601f830112610432576104316102a1565b5b81516104428482602086016103b6565b91505092915050565b5f602082840312156104605761045f610299565b5b5f82015167ffffffffffffffff81111561047d5761047c61029d565b5b6104898482850161041e565b91505092915050565b5f81519050919050565b7f4e487b71000000000000000000000000000000000000000000000000000000005f52602260045260245ffd5b5f60028204905060018216806104e057607f821691505b6020821081036104f3576104f261049c565b5b50919050565b5f819050815f5260205f209050919050565b5f6020601f8301049050919050565b5f82821b905092915050565b5f600883026105557fffffffffffffffffffffffffffffffffffffffffffffffffffffffffffffffff8261051a565b61055f868361051a565b95508019841693508086168417925050509392505050565b5f819050919050565b5f819050919050565b5f6105a361059e61059984610577565b610580565b610577565b9050919050565b5f819050919050565b6105bc83610589565b6105d06105c8826105aa565b848454610526565b825550505050565b5f90565b6105e46105d8565b6105ef8184846105b3565b505050565b5b81811015610612576106075f826105dc565b6001810190506105f5565b5050565b601f82111561065757610628816104f9565b6106318461050b565b81016020851015610640578190505b61065461064c8561050b565b8301826105f4565b50505b505050565b5f82821c905092915050565b5f6106775f198460080261065c565b1980831691505092915050565b5f61068f8383610668565b9150826002028217905092915050565b6106a882610492565b67ffffffffffffffff8111156106c1576106c06102b5565b5b6106cb82546104c9565b6106d6828285610616565b5f60209050601f831160018114610707575f84156106f5578287015190505b6106ff8582610684565b865550610766565b601f198416610715866104f9565b5f5b8281101561073c57848901518255600182019150602085019450602081019050610717565b868310156107595784890151610755601f891682610668565b8355505b6001600288020188555050505b505050505050565b6107778161037b565b82525050565b5f6020820190506107905f83018461076e565b92915050565b7f4e487b71000000000000000000000000000000000000000000000000000000005f52603260045260245ffd5b613ba4806107d05f395ff3fe6080604052600436106101c1575f3560e01c80638fd37fae116100f6578063b88d4fde11610094578063e985e9c511610063578063e985e9c514610664578063edea8b9f146106a0578063f2fde38b146106aa578063f731fa0f146106d2576101c1565b8063b88d4fde146105ac578063c87b56dd146105d4578063d3b144c614610610578063dbbd32be1461063a576101c1565b8063a882916d116100d0578063a882916d146104f4578063b11528471461051c578063b1610d7e14610558578063b18ada6714610582576101c1565b80638fd37fae1461046357806395d89b41146104a2578063a22cb465146104cc576101c1565b806342842e0e1161016357806370a082311161013d57806370a08231146103ab578063715018a6146103e75780637be2c511146103fd5780638da5cb5b14610439576101c1565b806342842e0e1461031d5780634a0aee29146103455780636352211e1461036f576101c1565b8063095ea7b31161019f578063095ea7b31461026757806323b872dd1461028f578063363c6b81146102b757806338a7543e146102e1576101c1565b806301ffc9a7146101c557806306fdde0314610201578063081812fc1461022b575b5f80fd5b3480156101d0575f80fd5b506101eb60048036038101906101e69190612954565b610710565b6040516101f89190612999565b60405180910390f35b34801561020c575f80fd5b50610215610721565b6040516102229190612a22565b60405180910390f35b348015610236575f80fd5b50610251600480360381019061024c9190612a75565b6107b0565b60405161025e9190612adf565b60405180910390f35b348015610272575f80fd5b5061028d60048036038101906102889190612b22565b6107cb565b005b34801561029a575f80fd5b506102b560048036038101906102b09190612b60565b6107e1565b005b3480156102c2575f80fd5b506102cb6108e0565b6040516102d89190612bbf565b60405180910390f35b3480156102ec575f80fd5b5061030760048036038101906103029190612bd8565b6108e5565b6040516103149190612999565b60405180910390f35b348015610328575f80fd5b50610343600480360381019061033e9190612b60565b610902565b005b348015610350575f80fd5b50610359610921565b6040516103669190612bbf565b60405180910390f35b34801561037a575f80fd5b5061039560048036038101906103909190612a75565b610927565b6040516103a29190612adf565b60405180910390f35b3480156103b6575f80fd5b506103d160048036038101906103cc9190612bd8565b610938565b6040516103de9190612bbf565b60405180910390f35b3480156103f2575f80fd5b506103fb6109ee565b005b348015610408575f80fd5b50610423600480360381019061041e9190612d2f565b610a01565b6040516104309190612bbf565b60405180910390f35b348015610444575f80fd5b5061044d610b34565b60405161045a9190612adf565b60405180910390f35b34801561046e575f80fd5b5061048960048036038101906104849190612e93565b610b5c565b6040516104999493929190612ebe565b60405180910390f35b3480156104ad575f80fd5b506104b6610bb3565b6040516104c39190612a22565b60405180910390f35b3480156104d7575f80fd5b506104f260048036038101906104ed9190612f2b565b610c43565b005b3480156104ff575f80fd5b5061051a60048036038101906105159190612f69565b610c59565b005b348015610527575f80fd5b50610542600480360381019061053d9190612a75565b611149565b60405161054f9190612a22565b60405180910390f35b348015610563575f80fd5b5061056c6111d1565b6040516105799190612bbf565b60405180910390f35b34801561058d575f80fd5b506105966111d8565b6040516105a39190612bbf565b60405180910390f35b3480156105b7575f80fd5b506105d260048036038101906105cd9190613045565b6111e0565b005b3480156105df575f80fd5b506105fa60048036038101906105f59190612a75565b6111fd565b6040516106079190612a22565b60405180910390f35b34801561061b575f80fd5b5061062461120f565b6040516106319190612bbf565b60405180910390f35b348015610645575f80fd5b5061064e611216565b60405161065b9190612bbf565b60405180910390f35b34801561066f575f80fd5b5061068a600480360381019061068591906130c5565b611221565b6040516106979190612999565b60405180910390f35b6106a86112af565b005b3480156106b5575f80fd5b506106d060048036038101906106cb9190612bd8565b61153a565b005b3480156106dd575f80fd5b506106f860048036038101906106f39190612bd8565b6115be565b60405161070793929190613103565b60405180910390f35b5f61071a826115f0565b9050919050565b60605f805461072f90613165565b80601f016020809104026020016040519081016040528092919081815260200182805461075b90613165565b80156107a65780601f1061077d576101008083540402835291602001916107a6565b820191905f5260205f20905b81548152906001019060200180831161078957829003601f168201915b5050505050905090565b5f6107ba82611650565b506107c4826116d6565b9050919050565b6107dd82826107d861170f565b611716565b5050565b5f73ffffffffffffffffffffffffffffffffffffffff168273ffffffffffffffffffffffffffffffffffffffff1603610851575f6040517f64a0ae920000000000000000000000000000000000000000000000000000000081526004016108489190612adf565b60405180910390fd5b5f610864838361085f61170f565b611728565b90508373ffffffffffffffffffffffffffffffffffffffff168173ffffffffffffffffffffffffffffffffffffffff16146108da578382826040517f64283d7b0000000000000000000000000000000000000000000000000000000081526004016108d193929190613195565b60405180910390fd5b50505050565b600581565b600a602052805f5260405f205f915054906101000a900460ff1681565b61091c83838360405180602001604052805f8152506111e0565b505050565b600c5481565b5f61093182611650565b9050919050565b5f8073ffffffffffffffffffffffffffffffffffffffff168273ffffffffffffffffffffffffffffffffffffffff16036109a9575f6040517f89c62b640000000000000000000000000000000000000000000000000000000081526004016109a09190612adf565b60405180910390fd5b60035f8373ffffffffffffffffffffffffffffffffffffffff1673ffffffffffffffffffffffffffffffffffffffff1681526020019081526020015f20549050919050565b6109f6611933565b6109ff5f6119ba565b565b5f60095f3373ffffffffffffffffffffffffffffffffffffffff1673ffffffffffffffffffffffffffffffffffffffff1681526020019081526020015f205f015f9054906101000a900460ff16610a8d576040517f08c379a0000000000000000000000000000000000000000000000000000000008152600401610a8490613214565b60405180910390fd5b5f600c541115610aaf575f610aa0611a7d565b9050610aad816001610c59565b505b610ab96008611b3c565b9050610ac56008611b48565b610acf3382611b5c565b610ad98183611b79565b3373ffffffffffffffffffffffffffffffffffffffff16817f44b85ee3be438c7a2522843990a359d73848ad57ee3e13c59385933c03f0e38e8987604051610b22929190613232565b60405180910390a39695505050505050565b5f60075f9054906101000a900473ffffffffffffffffffffffffffffffffffffffff16905090565b600b602052805f5260405f205f91509050805f015f9054906101000a900473ffffffffffffffffffffffffffffffffffffffff1690806001015490806002015490806003015f9054906101000a900460ff16905084565b606060018054610bc290613165565b80601f0160208091040260200160405190810160405280929190818152602001828054610bee90613165565b8015610c395780601f10610c1057610100808354040283529160200191610c39565b820191905f5260205f20905b815481529060010190602001808311610c1c57829003601f168201915b5050505050905090565b610c55610c4e61170f565b8383611bd3565b5050565b60095f3373ffffffffffffffffffffffffffffffffffffffff1673ffffffffffffffffffffffffffffffffffffffff1681526020019081526020015f205f015f9054906101000a900460ff16610ce4576040517f08c379a0000000000000000000000000000000000000000000000000000000008152600401610cdb90613214565b60405180910390fd5b5f600b5f8481526020019081526020015f209050806003015f9054906101000a900460ff1615610d49576040517f08c379a0000000000000000000000000000000000000000000000000000000008152600401610d40906132b1565b60405180910390fd5b806004015f3373ffffffffffffffffffffffffffffffffffffffff1673ffffffffffffffffffffffffffffffffffffffff1681526020019081526020015f205f9054906101000a900460ff1615610dd5576040517f08c379a0000000000000000000000000000000000000000000000000000000008152600401610dcc90613319565b60405180910390fd5b6001816004015f3373ffffffffffffffffffffffffffffffffffffffff1673ffffffffffffffffffffffffffffffffffffffff1681526020019081526020015f205f6101000a81548160ff0219169083151502179055504260095f3373ffffffffffffffffffffffffffffffffffffffff1673ffffffffffffffffffffffffffffffffffffffff1681526020019081526020015f20600201819055508115610e9557806001015f815480929190610e8b90613364565b9190505550610eaf565b806002015f815480929190610ea990613364565b91905055505b3373ffffffffffffffffffffffffffffffffffffffff16837fb14b0d7eddced961af9efcf46c8064a78da23422c16de1eeecfeaebf408da66484604051610ef69190612999565b60405180910390a35f610f07611d3c565b90505f6064604183610f1991906133ab565b610f239190613419565b9050808360010154106110f55760405180606001604052806001151581526020014281526020014281525060095f855f015f9054906101000a900473ffffffffffffffffffffffffffffffffffffffff1673ffffffffffffffffffffffffffffffffffffffff1673ffffffffffffffffffffffffffffffffffffffff1681526020019081526020015f205f820151815f015f6101000a81548160ff02191690831515021790555060208201518160010155604082015181600201559050506001836003015f6101000a81548160ff0219169083151502179055506001600a5f855f015f9054906101000a900473ffffffffffffffffffffffffffffffffffffffff1673ffffffffffffffffffffffffffffffffffffffff1673ffffffffffffffffffffffffffffffffffffffff1681526020019081526020015f205f6101000a81548160ff021916908315150217905550600c5f81548092919061108690613449565b9190505550825f015f9054906101000a900473ffffffffffffffffffffffffffffffffffffffff1673ffffffffffffffffffffffffffffffffffffffff167f8b4006ca14f23d4e7aa8d120d1ab7c3761d650eefac1a5d6732dbea94b54ea2460405160405180910390a2611142565b6002826111029190613419565b83600201541115611141576001836003015f6101000a81548160ff021916908315150217905550600c5f81548092919061113b90613449565b91905055505b5b5050505050565b60605f73ffffffffffffffffffffffffffffffffffffffff1661116b83610927565b73ffffffffffffffffffffffffffffffffffffffff16036111c1576040517f08c379a00000000000000000000000000000000000000000000000000000000081526004016111b8906134ba565b60405180910390fd5b6111ca826111fd565b9050919050565b62278d0081565b630966018081565b6111eb8484846107e1565b6111f784848484611dc7565b50505050565b606061120882611f79565b9050919050565b62093a8081565b66038d7ea4c6800081565b5f60055f8473ffffffffffffffffffffffffffffffffffffffff1673ffffffffffffffffffffffffffffffffffffffff1681526020019081526020015f205f8373ffffffffffffffffffffffffffffffffffffffff1673ffffffffffffffffffffffffffffffffffffffff1681526020019081526020015f205f9054906101000a900460ff16905092915050565b6005600c54106112f4576040517f08c379a00000000000000000000000000000000000000000000000000000000081526004016112eb90613522565b60405180910390fd5b66038d7ea4c6800034101561133e576040517f08c379a00000000000000000000000000000000000000000000000000000000081526004016113359061358a565b60405180910390fd5b60095f3373ffffffffffffffffffffffffffffffffffffffff1673ffffffffffffffffffffffffffffffffffffffff1681526020019081526020015f205f015f9054906101000a900460ff16156113ca576040517f08c379a00000000000000000000000000000000000000000000000000000000081526004016113c1906135f2565b60405180910390fd5b62093a8060095f3373ffffffffffffffffffffffffffffffffffffffff1673ffffffffffffffffffffffffffffffffffffffff1681526020019081526020015f20600201546114199190613610565b421161145a576040517f08c379a00000000000000000000000000000000000000000000000000000000081526004016114519061368d565b60405180910390fd5b5f334260405160200161146e929190613710565b6040516020818303038152906040528051906020012090505f600b5f8381526020019081526020015f20905033815f015f6101000a81548173ffffffffffffffffffffffffffffffffffffffff021916908373ffffffffffffffffffffffffffffffffffffffff160217905550600c5f8154809291906114ed90613364565b91905055503373ffffffffffffffffffffffffffffffffffffffff16827fa7752ca3747b7e753dceacdbad07173119577b0aae58360943dd12fcfee36aeb60405160405180910390a35050565b611542611933565b5f73ffffffffffffffffffffffffffffffffffffffff168173ffffffffffffffffffffffffffffffffffffffff16036115b2575f6040517f1e4fbdf70000000000000000000000000000000000000000000000000000000081526004016115a99190612adf565b60405180910390fd5b6115bb816119ba565b50565b6009602052805f5260405f205f91509050805f015f9054906101000a900460ff16908060010154908060020154905083565b5f634906490660e01b7bffffffffffffffffffffffffffffffffffffffffffffffffffffffff1916827bffffffffffffffffffffffffffffffffffffffffffffffffffffffff19161480611649575061164882612084565b5b9050919050565b5f8061165b83612165565b90505f73ffffffffffffffffffffffffffffffffffffffff168173ffffffffffffffffffffffffffffffffffffffff16036116cd57826040517f7e2732890000000000000000000000000000000000000000000000000000000081526004016116c49190612bbf565b60405180910390fd5b80915050919050565b5f60045f8381526020019081526020015f205f9054906101000a900473ffffffffffffffffffffffffffffffffffffffff169050919050565b5f33905090565b611723838383600161219e565b505050565b5f8061173384612165565b90505f73ffffffffffffffffffffffffffffffffffffffff168373ffffffffffffffffffffffffffffffffffffffff16146117745761177381848661235d565b5b5f73ffffffffffffffffffffffffffffffffffffffff168173ffffffffffffffffffffffffffffffffffffffff16146117ff576117b35f855f8061219e565b600160035f8373ffffffffffffffffffffffffffffffffffffffff1673ffffffffffffffffffffffffffffffffffffffff1681526020019081526020015f205f82825403925050819055505b5f73ffffffffffffffffffffffffffffffffffffffff168573ffffffffffffffffffffffffffffffffffffffff161461187e57600160035f8773ffffffffffffffffffffffffffffffffffffffff1673ffffffffffffffffffffffffffffffffffffffff1681526020019081526020015f205f82825401925050819055505b8460025f8681526020019081526020015f205f6101000a81548173ffffffffffffffffffffffffffffffffffffffff021916908373ffffffffffffffffffffffffffffffffffffffff160217905550838573ffffffffffffffffffffffffffffffffffffffff168273ffffffffffffffffffffffffffffffffffffffff167fddf252ad1be2c89b69c2b068fc378daa952ba7f163c4a11628f55a4df523b3ef60405160405180910390a4809150509392505050565b61193b61170f565b73ffffffffffffffffffffffffffffffffffffffff16611959610b34565b73ffffffffffffffffffffffffffffffffffffffff16146119b85761197c61170f565b6040517f118cdaa70000000000000000000000000000000000000000000000000000000081526004016119af9190612adf565b60405180910390fd5b565b5f60075f9054906101000a900473ffffffffffffffffffffffffffffffffffffffff1690508160075f6101000a81548173ffffffffffffffffffffffffffffffffffffffff021916908373ffffffffffffffffffffffffffffffffffffffff1602179055508173ffffffffffffffffffffffffffffffffffffffff168173ffffffffffffffffffffffffffffffffffffffff167f8be0079c531659141344cd1fd0a4f28419497f9722a3daafe3b4186f6b6457e060405160405180910390a35050565b5f805f90505b611a8d6008611b3c565b811015611afd575f8142604051602001611aa8929190613710565b604051602081830303815290604052805190602001209050600b5f8281526020019081526020015f206003015f9054906101000a900460ff16611aef578092505050611b39565b508080600101915050611a83565b506040517f08c379a0000000000000000000000000000000000000000000000000000000008152600401611b3090613785565b60405180910390fd5b90565b5f815f01549050919050565b6001815f015f828254019250508190555050565b611b75828260405180602001604052805f815250612420565b5050565b8060065f8481526020019081526020015f209081611b979190613940565b507ff8e1a15aba9398e019f0b49df1a4fde98ee17ae345cb5f6b5e2c27f5033e8ce782604051611bc79190612bbf565b60405180910390a15050565b5f73ffffffffffffffffffffffffffffffffffffffff168273ffffffffffffffffffffffffffffffffffffffff1603611c4357816040517f5b08ba18000000000000000000000000000000000000000000000000000000008152600401611c3a9190612adf565b60405180910390fd5b8060055f8573ffffffffffffffffffffffffffffffffffffffff1673ffffffffffffffffffffffffffffffffffffffff1681526020019081526020015f205f8473ffffffffffffffffffffffffffffffffffffffff1673ffffffffffffffffffffffffffffffffffffffff1681526020019081526020015f205f6101000a81548160ff0219169083151502179055508173ffffffffffffffffffffffffffffffffffffffff168373ffffffffffffffffffffffffffffffffffffffff167f17307eab39ab6107e8899845ad3d59bd9653f200f220920489ca2b5937696c3183604051611d2f9190612999565b60405180910390a3505050565b5f805f90505f5b611d4d6008611b3c565b811015611dbf57600a5f8273ffffffffffffffffffffffffffffffffffffffff1673ffffffffffffffffffffffffffffffffffffffff1681526020019081526020015f205f9054906101000a900460ff1615611db2578180611dae90613364565b9250505b8080600101915050611d43565b508091505090565b5f8373ffffffffffffffffffffffffffffffffffffffff163b1115611f73578273ffffffffffffffffffffffffffffffffffffffff1663150b7a02611e0a61170f565b8685856040518563ffffffff1660e01b8152600401611e2c9493929190613a61565b6020604051808303815f875af1925050508015611e6757506040513d601f19601f82011682018060405250810190611e649190613abf565b60015b611ee8573d805f8114611e95576040519150601f19603f3d011682016040523d82523d5f602084013e611e9a565b606091505b505f815103611ee057836040517f64a0ae92000000000000000000000000000000000000000000000000000000008152600401611ed79190612adf565b60405180910390fd5b805181602001fd5b63150b7a0260e01b7bffffffffffffffffffffffffffffffffffffffffffffffffffffffff1916817bffffffffffffffffffffffffffffffffffffffffffffffffffffffff191614611f7157836040517f64a0ae92000000000000000000000000000000000000000000000000000000008152600401611f689190612adf565b60405180910390fd5b505b50505050565b6060611f8482611650565b505f60065f8481526020019081526020015f208054611fa290613165565b80601f0160208091040260200160405190810160405280929190818152602001828054611fce90613165565b80156120195780601f10611ff057610100808354040283529160200191612019565b820191905f5260205f20905b815481529060010190602001808311611ffc57829003601f168201915b505050505090505f61202961243b565b90505f81510361203d57819250505061207f565b5f82511115612071578082604051602001612059929190613b24565b6040516020818303038152906040529250505061207f565b61207a84612451565b925050505b919050565b5f7f80ac58cd000000000000000000000000000000000000000000000000000000007bffffffffffffffffffffffffffffffffffffffffffffffffffffffff1916827bffffffffffffffffffffffffffffffffffffffffffffffffffffffff1916148061214e57507f5b5e139f000000000000000000000000000000000000000000000000000000007bffffffffffffffffffffffffffffffffffffffffffffffffffffffff1916827bffffffffffffffffffffffffffffffffffffffffffffffffffffffff1916145b8061215e575061215d826124b7565b5b9050919050565b5f60025f8381526020019081526020015f205f9054906101000a900473ffffffffffffffffffffffffffffffffffffffff169050919050565b80806121d657505f73ffffffffffffffffffffffffffffffffffffffff168273ffffffffffffffffffffffffffffffffffffffff1614155b15612308575f6121e584611650565b90505f73ffffffffffffffffffffffffffffffffffffffff168373ffffffffffffffffffffffffffffffffffffffff161415801561224f57508273ffffffffffffffffffffffffffffffffffffffff168173ffffffffffffffffffffffffffffffffffffffff1614155b801561226257506122608184611221565b155b156122a457826040517fa9fbf51f00000000000000000000000000000000000000000000000000000000815260040161229b9190612adf565b60405180910390fd5b811561230657838573ffffffffffffffffffffffffffffffffffffffff168273ffffffffffffffffffffffffffffffffffffffff167f8c5be1e5ebec7d5bd14f71427d1e84f3dd0314c0f7b2291e5b200ac8c7c3b92560405160405180910390a45b505b8360045f8581526020019081526020015f205f6101000a81548173ffffffffffffffffffffffffffffffffffffffff021916908373ffffffffffffffffffffffffffffffffffffffff16021790555050505050565b612368838383612520565b61241b575f73ffffffffffffffffffffffffffffffffffffffff168373ffffffffffffffffffffffffffffffffffffffff16036123dc57806040517f7e2732890000000000000000000000000000000000000000000000000000000081526004016123d39190612bbf565b60405180910390fd5b81816040517f177e802f000000000000000000000000000000000000000000000000000000008152600401612412929190613b47565b60405180910390fd5b505050565b61242a83836125e0565b6124365f848484611dc7565b505050565b606060405180602001604052805f815250905090565b606061245c82611650565b505f61246661243b565b90505f8151116124845760405180602001604052805f8152506124af565b8061248e846126d3565b60405160200161249f929190613b24565b6040516020818303038152906040525b915050919050565b5f7f01ffc9a7000000000000000000000000000000000000000000000000000000007bffffffffffffffffffffffffffffffffffffffffffffffffffffffff1916827bffffffffffffffffffffffffffffffffffffffffffffffffffffffff1916149050919050565b5f8073ffffffffffffffffffffffffffffffffffffffff168373ffffffffffffffffffffffffffffffffffffffff16141580156125d757508273ffffffffffffffffffffffffffffffffffffffff168473ffffffffffffffffffffffffffffffffffffffff16148061259857506125978484611221565b5b806125d657508273ffffffffffffffffffffffffffffffffffffffff166125be836116d6565b73ffffffffffffffffffffffffffffffffffffffff16145b5b90509392505050565b5f73ffffffffffffffffffffffffffffffffffffffff168273ffffffffffffffffffffffffffffffffffffffff1603612650575f6040517f64a0ae920000000000000000000000000000000000000000000000000000000081526004016126479190612adf565b60405180910390fd5b5f61265c83835f611728565b90505f73ffffffffffffffffffffffffffffffffffffffff168173ffffffffffffffffffffffffffffffffffffffff16146126ce575f6040517f73c6ac6e0000000000000000000000000000000000000000000000000000000081526004016126c59190612adf565b60405180910390fd5b505050565b60605f60016126e18461279d565b0190505f8167ffffffffffffffff8111156126ff576126fe612c0b565b5b6040519080825280601f01601f1916602001820160405280156127315781602001600182028036833780820191505090505b5090505f82602001820190505b600115612792578080600190039150507f3031323334353637383961626364656600000000000000000000000000000000600a86061a8153600a8581612787576127866133ec565b5b0494505f850361273e575b819350505050919050565b5f805f90507a184f03e93ff9f4daa797ed6e38ed64bf6a1f01000000000000000083106127f9577a184f03e93ff9f4daa797ed6e38ed64bf6a1f01000000000000000083816127ef576127ee6133ec565b5b0492506040810190505b6d04ee2d6d415b85acef81000000008310612836576d04ee2d6d415b85acef8100000000838161282c5761282b6133ec565b5b0492506020810190505b662386f26fc10000831061286557662386f26fc10000838161285b5761285a6133ec565b5b0492506010810190505b6305f5e100831061288e576305f5e1008381612884576128836133ec565b5b0492506008810190505b61271083106128b35761271083816128a9576128a86133ec565b5b0492506004810190505b606483106128d657606483816128cc576128cb6133ec565b5b0492506002810190505b600a83106128e5576001810190505b80915050919050565b5f604051905090565b5f80fd5b5f80fd5b5f7fffffffff0000000000000000000000000000000000000000000000000000000082169050919050565b612933816128ff565b811461293d575f80fd5b50565b5f8135905061294e8161292a565b92915050565b5f60208284031215612969576129686128f7565b5b5f61297684828501612940565b91505092915050565b5f8115159050919050565b6129938161297f565b82525050565b5f6020820190506129ac5f83018461298a565b92915050565b5f81519050919050565b5f82825260208201905092915050565b8281835e5f83830152505050565b5f601f19601f8301169050919050565b5f6129f4826129b2565b6129fe81856129bc565b9350612a0e8185602086016129cc565b612a17816129da565b840191505092915050565b5f6020820190508181035f830152612a3a81846129ea565b905092915050565b5f819050919050565b612a5481612a42565b8114612a5e575f80fd5b50565b5f81359050612a6f81612a4b565b92915050565b5f60208284031215612a8a57612a896128f7565b5b5f612a9784828501612a61565b91505092915050565b5f73ffffffffffffffffffffffffffffffffffffffff82169050919050565b5f612ac982612aa0565b9050919050565b612ad981612abf565b82525050565b5f602082019050612af25f830184612ad0565b92915050565b612b0181612abf565b8114612b0b575f80fd5b50565b5f81359050612b1c81612af8565b92915050565b5f8060408385031215612b3857612b376128f7565b5b5f612b4585828601612b0e565b9250506020612b5685828601612a61565b9150509250929050565b5f805f60608486031215612b7757612b766128f7565b5b5f612b8486828701612b0e565b9350506020612b9586828701612b0e565b9250506040612ba686828701612a61565b9150509250925092565b612bb981612a42565b82525050565b5f602082019050612bd25f830184612bb0565b92915050565b5f60208284031215612bed57612bec6128f7565b5b5f612bfa84828501612b0e565b91505092915050565b5f80fd5b5f80fd5b7f4e487b71000000000000000000000000000000000000000000000000000000005f52604160045260245ffd5b612c41826129da565b810181811067ffffffffffffffff82111715612c6057612c5f612c0b565b5b80604052505050565b5f612c726128ee565b9050612c7e8282612c38565b919050565b5f67ffffffffffffffff821115612c9d57612c9c612c0b565b5b612ca6826129da565b9050602081019050919050565b828183375f83830152505050565b5f612cd3612cce84612c83565b612c69565b905082815260208101848484011115612cef57612cee612c07565b5b612cfa848285612cb3565b509392505050565b5f82601f830112612d1657612d15612c03565b5b8135612d26848260208601612cc1565b91505092915050565b5f805f805f8060c08789031215612d4957612d486128f7565b5b5f87013567ffffffffffffffff811115612d6657612d656128fb565b5b612d7289828a01612d02565b965050602087013567ffffffffffffffff811115612d9357612d926128fb565b5b612d9f89828a01612d02565b955050604087013567ffffffffffffffff811115612dc057612dbf6128fb565b5b612dcc89828a01612d02565b945050606087013567ffffffffffffffff811115612ded57612dec6128fb565b5b612df989828a01612d02565b935050608087013567ffffffffffffffff811115612e1a57612e196128fb565b5b612e2689828a01612d02565b92505060a087013567ffffffffffffffff811115612e4757612e466128fb565b5b612e5389828a01612d02565b9150509295509295509295565b5f819050919050565b612e7281612e60565b8114612e7c575f80fd5b50565b5f81359050612e8d81612e69565b92915050565b5f60208284031215612ea857612ea76128f7565b5b5f612eb584828501612e7f565b91505092915050565b5f608082019050612ed15f830187612ad0565b612ede6020830186612bb0565b612eeb6040830185612bb0565b612ef8606083018461298a565b95945050505050565b612f0a8161297f565b8114612f14575f80fd5b50565b5f81359050612f2581612f01565b92915050565b5f8060408385031215612f4157612f406128f7565b5b5f612f4e85828601612b0e565b9250506020612f5f85828601612f17565b9150509250929050565b5f8060408385031215612f7f57612f7e6128f7565b5b5f612f8c85828601612e7f565b9250506020612f9d85828601612f17565b9150509250929050565b5f67ffffffffffffffff821115612fc157612fc0612c0b565b5b612fca826129da565b9050602081019050919050565b5f612fe9612fe484612fa7565b612c69565b90508281526020810184848401111561300557613004612c07565b5b613010848285612cb3565b509392505050565b5f82601f83011261302c5761302b612c03565b5b813561303c848260208601612fd7565b91505092915050565b5f805f806080858703121561305d5761305c6128f7565b5b5f61306a87828801612b0e565b945050602061307b87828801612b0e565b935050604061308c87828801612a61565b925050606085013567ffffffffffffffff8111156130ad576130ac6128fb565b5b6130b987828801613018565b91505092959194509250565b5f80604083850312156130db576130da6128f7565b5b5f6130e885828601612b0e565b92505060206130f985828601612b0e565b9150509250929050565b5f6060820190506131165f83018661298a565b6131236020830185612bb0565b6131306040830184612bb0565b949350505050565b7f4e487b71000000000000000000000000000000000000000000000000000000005f52602260045260245ffd5b5f600282049050600182168061317c57607f821691505b60208210810361318f5761318e613138565b5b50919050565b5f6060820190506131a85f830186612ad0565b6131b56020830185612bb0565b6131c26040830184612ad0565b949350505050565b7f4e6f7420616e20617574686f72697a65642069737375657200000000000000005f82015250565b5f6131fe6018836129bc565b9150613209826131ca565b602082019050919050565b5f6020820190508181035f83015261322b816131f2565b9050919050565b5f6040820190508181035f83015261324a81856129ea565b9050818103602083015261325e81846129ea565b90509392505050565b7f5265717565737420616c72656164792070726f636573736564000000000000005f82015250565b5f61329b6019836129bc565b91506132a682613267565b602082019050919050565b5f6020820190508181035f8301526132c88161328f565b9050919050565b7f416c726561647920766f746564000000000000000000000000000000000000005f82015250565b5f613303600d836129bc565b915061330e826132cf565b602082019050919050565b5f6020820190508181035f830152613330816132f7565b9050919050565b7f4e487b71000000000000000000000000000000000000000000000000000000005f52601160045260245ffd5b5f61336e82612a42565b91507fffffffffffffffffffffffffffffffffffffffffffffffffffffffffffffffff82036133a05761339f613337565b5b600182019050919050565b5f6133b582612a42565b91506133c083612a42565b92508282026133ce81612a42565b915082820484148315176133e5576133e4613337565b5b5092915050565b7f4e487b71000000000000000000000000000000000000000000000000000000005f52601260045260245ffd5b5f61342382612a42565b915061342e83612a42565b92508261343e5761343d6133ec565b5b828204905092915050565b5f61345382612a42565b91505f820361346557613464613337565b5b600182039050919050565b7f4469706c6f6d61206e6f7420666f756e640000000000000000000000000000005f82015250565b5f6134a46011836129bc565b91506134af82613470565b602082019050919050565b5f6020820190508181035f8301526134d181613498565b9050919050565b7f546f6f206d616e792070656e64696e67207265717565737473000000000000005f82015250565b5f61350c6019836129bc565b9150613517826134d8565b602082019050919050565b5f6020820190508181035f83015261353981613500565b9050919050565b7f496e73756666696369656e7420666565000000000000000000000000000000005f82015250565b5f6135746010836129bc565b915061357f82613540565b602082019050919050565b5f6020820190508181035f8301526135a181613568565b9050919050565b7f416c726561647920616e20617574686f72697a656420697373756572000000005f82015250565b5f6135dc601c836129bc565b91506135e7826135a8565b602082019050919050565b5f6020820190508181035f830152613609816135d0565b9050919050565b5f61361a82612a42565b915061362583612a42565b925082820190508082111561363d5761363c613337565b5b92915050565b7f436f6f6c646f776e20706572696f6420616374697665000000000000000000005f82015250565b5f6136776016836129bc565b915061368282613643565b602082019050919050565b5f6020820190508181035f8301526136a48161366b565b9050919050565b5f8160601b9050919050565b5f6136c1826136ab565b9050919050565b5f6136d2826136b7565b9050919050565b6136ea6136e582612abf565b6136c8565b82525050565b5f819050919050565b61370a61370582612a42565b6136f0565b82525050565b5f61371b82856136d9565b60148201915061372b82846136f9565b6020820191508190509392505050565b7f4e6f2070656e64696e6720726571756573747320666f756e64000000000000005f82015250565b5f61376f6019836129bc565b915061377a8261373b565b602082019050919050565b5f6020820190508181035f83015261379c81613763565b9050919050565b5f819050815f5260205f209050919050565b5f6020601f8301049050919050565b5f82821b905092915050565b5f600883026137ff7fffffffffffffffffffffffffffffffffffffffffffffffffffffffffffffffff826137c4565b61380986836137c4565b95508019841693508086168417925050509392505050565b5f819050919050565b5f61384461383f61383a84612a42565b613821565b612a42565b9050919050565b5f819050919050565b61385d8361382a565b6138716138698261384b565b8484546137d0565b825550505050565b5f90565b613885613879565b613890818484613854565b505050565b5b818110156138b3576138a85f8261387d565b600181019050613896565b5050565b601f8211156138f8576138c9816137a3565b6138d2846137b5565b810160208510156138e1578190505b6138f56138ed856137b5565b830182613895565b50505b505050565b5f82821c905092915050565b5f6139185f19846008026138fd565b1980831691505092915050565b5f6139308383613909565b9150826002028217905092915050565b613949826129b2565b67ffffffffffffffff81111561396257613961612c0b565b5b61396c8254613165565b6139778282856138b7565b5f60209050601f8311600181146139a8575f8415613996578287015190505b6139a08582613925565b865550613a07565b601f1984166139b6866137a3565b5f5b828110156139dd578489015182556001820191506020850194506020810190506139b8565b868310156139fa57848901516139f6601f891682613909565b8355505b6001600288020188555050505b505050505050565b5f81519050919050565b5f82825260208201905092915050565b5f613a3382613a0f565b613a3d8185613a19565b9350613a4d8185602086016129cc565b613a56816129da565b840191505092915050565b5f608082019050613a745f830187612ad0565b613a816020830186612ad0565b613a8e6040830185612bb0565b8181036060830152613aa08184613a29565b905095945050505050565b5f81519050613ab98161292a565b92915050565b5f60208284031215613ad457613ad36128f7565b5b5f613ae184828501613aab565b91505092915050565b5f81905092915050565b5f613afe826129b2565b613b088185613aea565b9350613b188185602086016129cc565b80840191505092915050565b5f613b2f8285613af4565b9150613b3b8284613af4565b91508190509392505050565b5f604082019050613b5a5f830185612ad0565b613b676020830184612bb0565b939250505056fea2646970667358221220409af5a67df1b80d277d745c57e27c5b58c1323ceddc1dc22dc6b5a829dcac1764736f6c634300081a0033",
			"opcodes": "PUSH1 0x80 PUSH1 0x40 MSTORE CALLVALUE DUP1 ISZERO PUSH2 0xF JUMPI PUSH0 DUP1 REVERT JUMPDEST POP PUSH1 0x40 MLOAD PUSH2 0x4374 CODESIZE SUB DUP1 PUSH2 0x4374 DUP4 CODECOPY DUP2 DUP2 ADD PUSH1 0x40 MSTORE DUP2 ADD SWAP1 PUSH2 0x31 SWAP2 SWAP1 PUSH2 0x44B JUMP JUMPDEST CALLER PUSH1 0x40 MLOAD DUP1 PUSH1 0x40 ADD PUSH1 0x40 MSTORE DUP1 PUSH1 0xA DUP2 MSTORE PUSH1 0x20 ADD PUSH32 0x4469706C6F6D614E465400000000000000000000000000000000000000000000 DUP2 MSTORE POP PUSH1 0x40 MLOAD DUP1 PUSH1 0x40 ADD PUSH1 0x40 MSTORE DUP1 PUSH1 0x6 DUP2 MSTORE PUSH1 0x20 ADD PUSH32 0x4469706C544B0000000000000000000000000000000000000000000000000000 DUP2 MSTORE POP DUP2 PUSH0 SWAP1 DUP2 PUSH2 0xAC SWAP2 SWAP1 PUSH2 0x69F JUMP JUMPDEST POP DUP1 PUSH1 0x1 SWAP1 DUP2 PUSH2 0xBC SWAP2 SWAP1 PUSH2 0x69F JUMP JUMPDEST POP POP POP PUSH0 PUSH20 0xFFFFFFFFFFFFFFFFFFFFFFFFFFFFFFFFFFFFFFFF AND DUP2 PUSH20 0xFFFFFFFFFFFFFFFFFFFFFFFFFFFFFFFFFFFFFFFF AND SUB PUSH2 0x12F JUMPI PUSH0 PUSH1 0x40 MLOAD PUSH32 0x1E4FBDF700000000000000000000000000000000000000000000000000000000 DUP2 MSTORE PUSH1 0x4 ADD PUSH2 0x126 SWAP2 SWAP1 PUSH2 0x77D JUMP JUMPDEST PUSH1 0x40 MLOAD DUP1 SWAP2 SUB SWAP1 REVERT JUMPDEST PUSH2 0x13E DUP2 PUSH2 0x1CD PUSH1 0x20 SHL PUSH1 0x20 SHR JUMP JUMPDEST POP PUSH0 JUMPDEST DUP2 MLOAD DUP2 LT ISZERO PUSH2 0x1C6 JUMPI PUSH1 0x1 PUSH1 0xA PUSH0 DUP5 DUP5 DUP2 MLOAD DUP2 LT PUSH2 0x162 JUMPI PUSH2 0x161 PUSH2 0x796 JUMP JUMPDEST JUMPDEST PUSH1 0x20 MUL PUSH1 0x20 ADD ADD MLOAD PUSH20 0xFFFFFFFFFFFFFFFFFFFFFFFFFFFFFFFFFFFFFFFF AND PUSH20 0xFFFFFFFFFFFFFFFFFFFFFFFFFFFFFFFFFFFFFFFF AND DUP2 MSTORE PUSH1 0x20 ADD SWAP1 DUP2 MSTORE PUSH1 0x20 ADD PUSH0 KECCAK256 PUSH0 PUSH2 0x100 EXP DUP2 SLOAD DUP2 PUSH1 0xFF MUL NOT AND SWAP1 DUP4 ISZERO ISZERO MUL OR SWAP1 SSTORE POP DUP1 DUP1 PUSH1 0x1 ADD SWAP2 POP POP PUSH2 0x141 JUMP JUMPDEST POP POP PUSH2 0x7C3 JUMP JUMPDEST PUSH0 PUSH1 0x7 PUSH0 SWAP1 SLOAD SWAP1 PUSH2 0x100 EXP SWAP1 DIV PUSH20 0xFFFFFFFFFFFFFFFFFFFFFFFFFFFFFFFFFFFFFFFF AND SWAP1 POP DUP2 PUSH1 0x7 PUSH0 PUSH2 0x100 EXP DUP2 SLOAD DUP2 PUSH20 0xFFFFFFFFFFFFFFFFFFFFFFFFFFFFFFFFFFFFFFFF MUL NOT AND SWAP1 DUP4 PUSH20 0xFFFFFFFFFFFFFFFFFFFFFFFFFFFFFFFFFFFFFFFF AND MUL OR SWAP1 SSTORE POP DUP2 PUSH20 0xFFFFFFFFFFFFFFFFFFFFFFFFFFFFFFFFFFFFFFFF AND DUP2 PUSH20 0xFFFFFFFFFFFFFFFFFFFFFFFFFFFFFFFFFFFFFFFF AND PUSH32 0x8BE0079C531659141344CD1FD0A4F28419497F9722A3DAAFE3B4186F6B6457E0 PUSH1 0x40 MLOAD PUSH1 0x40 MLOAD DUP1 SWAP2 SUB SWAP1 LOG3 POP POP JUMP JUMPDEST PUSH0 PUSH1 0x40 MLOAD SWAP1 POP SWAP1 JUMP JUMPDEST PUSH0 DUP1 REVERT JUMPDEST PUSH0 DUP1 REVERT JUMPDEST PUSH0 DUP1 REVERT JUMPDEST PUSH0 PUSH1 0x1F NOT PUSH1 0x1F DUP4 ADD AND SWAP1 POP SWAP2 SWAP1 POP JUMP JUMPDEST PUSH32 0x4E487B7100000000000000000000000000000000000000000000000000000000 PUSH0 MSTORE PUSH1 0x41 PUSH1 0x4 MSTORE PUSH1 0x24 PUSH0 REVERT JUMPDEST PUSH2 0x2EB DUP3 PUSH2 0x2A5 JUMP JUMPDEST DUP2 ADD DUP2 DUP2 LT PUSH8 0xFFFFFFFFFFFFFFFF DUP3 GT OR ISZERO PUSH2 0x30A JUMPI PUSH2 0x309 PUSH2 0x2B5 JUMP JUMPDEST JUMPDEST DUP1 PUSH1 0x40 MSTORE POP POP POP JUMP JUMPDEST PUSH0 PUSH2 0x31C PUSH2 0x290 JUMP JUMPDEST SWAP1 POP PUSH2 0x328 DUP3 DUP3 PUSH2 0x2E2 JUMP JUMPDEST SWAP2 SWAP1 POP JUMP JUMPDEST PUSH0 PUSH8 0xFFFFFFFFFFFFFFFF DUP3 GT ISZERO PUSH2 0x347 JUMPI PUSH2 0x346 PUSH2 0x2B5 JUMP JUMPDEST JUMPDEST PUSH1 0x20 DUP3 MUL SWAP1 POP PUSH1 0x20 DUP2 ADD SWAP1 POP SWAP2 SWAP1 POP JUMP JUMPDEST PUSH0 DUP1 REVERT JUMPDEST PUSH0 PUSH20 0xFFFFFFFFFFFFFFFFFFFFFFFFFFFFFFFFFFFFFFFF DUP3 AND SWAP1 POP SWAP2 SWAP1 POP JUMP JUMPDEST PUSH0 PUSH2 0x385 DUP3 PUSH2 0x35C JUMP JUMPDEST SWAP1 POP SWAP2 SWAP1 POP JUMP JUMPDEST PUSH2 0x395 DUP2 PUSH2 0x37B JUMP JUMPDEST DUP2 EQ PUSH2 0x39F JUMPI PUSH0 DUP1 REVERT JUMPDEST POP JUMP JUMPDEST PUSH0 DUP2 MLOAD SWAP1 POP PUSH2 0x3B0 DUP2 PUSH2 0x38C JUMP JUMPDEST SWAP3 SWAP2 POP POP JUMP JUMPDEST PUSH0 PUSH2 0x3C8 PUSH2 0x3C3 DUP5 PUSH2 0x32D JUMP JUMPDEST PUSH2 0x313 JUMP JUMPDEST SWAP1 POP DUP1 DUP4 DUP3 MSTORE PUSH1 0x20 DUP3 ADD SWAP1 POP PUSH1 0x20 DUP5 MUL DUP4 ADD DUP6 DUP2 GT ISZERO PUSH2 0x3EB JUMPI PUSH2 0x3EA PUSH2 0x358 JUMP JUMPDEST JUMPDEST DUP4 JUMPDEST DUP2 DUP2 LT ISZERO PUSH2 0x414 JUMPI DUP1 PUSH2 0x400 DUP9 DUP3 PUSH2 0x3A2 JUMP JUMPDEST DUP5 MSTORE PUSH1 0x20 DUP5 ADD SWAP4 POP POP PUSH1 0x20 DUP2 ADD SWAP1 POP PUSH2 0x3ED JUMP JUMPDEST POP POP POP SWAP4 SWAP3 POP POP POP JUMP JUMPDEST PUSH0 DUP3 PUSH1 0x1F DUP4 ADD SLT PUSH2 0x432 JUMPI PUSH2 0x431 PUSH2 0x2A1 JUMP JUMPDEST JUMPDEST DUP2 MLOAD PUSH2 0x442 DUP5 DUP3 PUSH1 0x20 DUP7 ADD PUSH2 0x3B6 JUMP JUMPDEST SWAP2 POP POP SWAP3 SWAP2 POP POP JUMP JUMPDEST PUSH0 PUSH1 0x20 DUP3 DUP5 SUB SLT ISZERO PUSH2 0x460 JUMPI PUSH2 0x45F PUSH2 0x299 JUMP JUMPDEST JUMPDEST PUSH0 DUP3 ADD MLOAD PUSH8 0xFFFFFFFFFFFFFFFF DUP2 GT ISZERO PUSH2 0x47D JUMPI PUSH2 0x47C PUSH2 0x29D JUMP JUMPDEST JUMPDEST PUSH2 0x489 DUP5 DUP3 DUP6 ADD PUSH2 0x41E JUMP JUMPDEST SWAP2 POP POP SWAP3 SWAP2 POP POP JUMP JUMPDEST PUSH0 DUP2 MLOAD SWAP1 POP SWAP2 SWAP1 POP JUMP JUMPDEST PUSH32 0x4E487B7100000000000000000000000000000000000000000000000000000000 PUSH0 MSTORE PUSH1 0x22 PUSH1 0x4 MSTORE PUSH1 0x24 PUSH0 REVERT JUMPDEST PUSH0 PUSH1 0x2 DUP3 DIV SWAP1 POP PUSH1 0x1 DUP3 AND DUP1 PUSH2 0x4E0 JUMPI PUSH1 0x7F DUP3 AND SWAP2 POP JUMPDEST PUSH1 0x20 DUP3 LT DUP2 SUB PUSH2 0x4F3 JUMPI PUSH2 0x4F2 PUSH2 0x49C JUMP JUMPDEST JUMPDEST POP SWAP2 SWAP1 POP JUMP JUMPDEST PUSH0 DUP2 SWAP1 POP DUP2 PUSH0 MSTORE PUSH1 0x20 PUSH0 KECCAK256 SWAP1 POP SWAP2 SWAP1 POP JUMP JUMPDEST PUSH0 PUSH1 0x20 PUSH1 0x1F DUP4 ADD DIV SWAP1 POP SWAP2 SWAP1 POP JUMP JUMPDEST PUSH0 DUP3 DUP3 SHL SWAP1 POP SWAP3 SWAP2 POP POP JUMP JUMPDEST PUSH0 PUSH1 0x8 DUP4 MUL PUSH2 0x555 PUSH32 0xFFFFFFFFFFFFFFFFFFFFFFFFFFFFFFFFFFFFFFFFFFFFFFFFFFFFFFFFFFFFFFFF DUP3 PUSH2 0x51A JUMP JUMPDEST PUSH2 0x55F DUP7 DUP4 PUSH2 0x51A JUMP JUMPDEST SWAP6 POP DUP1 NOT DUP5 AND SWAP4 POP DUP1 DUP7 AND DUP5 OR SWAP3 POP POP POP SWAP4 SWAP3 POP POP POP JUMP JUMPDEST PUSH0 DUP2 SWAP1 POP SWAP2 SWAP1 POP JUMP JUMPDEST PUSH0 DUP2 SWAP1 POP SWAP2 SWAP1 POP JUMP JUMPDEST PUSH0 PUSH2 0x5A3 PUSH2 0x59E PUSH2 0x599 DUP5 PUSH2 0x577 JUMP JUMPDEST PUSH2 0x580 JUMP JUMPDEST PUSH2 0x577 JUMP JUMPDEST SWAP1 POP SWAP2 SWAP1 POP JUMP JUMPDEST PUSH0 DUP2 SWAP1 POP SWAP2 SWAP1 POP JUMP JUMPDEST PUSH2 0x5BC DUP4 PUSH2 0x589 JUMP JUMPDEST PUSH2 0x5D0 PUSH2 0x5C8 DUP3 PUSH2 0x5AA JUMP JUMPDEST DUP5 DUP5 SLOAD PUSH2 0x526 JUMP JUMPDEST DUP3 SSTORE POP POP POP POP JUMP JUMPDEST PUSH0 SWAP1 JUMP JUMPDEST PUSH2 0x5E4 PUSH2 0x5D8 JUMP JUMPDEST PUSH2 0x5EF DUP2 DUP5 DUP5 PUSH2 0x5B3 JUMP JUMPDEST POP POP POP JUMP JUMPDEST JUMPDEST DUP2 DUP2 LT ISZERO PUSH2 0x612 JUMPI PUSH2 0x607 PUSH0 DUP3 PUSH2 0x5DC JUMP JUMPDEST PUSH1 0x1 DUP2 ADD SWAP1 POP PUSH2 0x5F5 JUMP JUMPDEST POP POP JUMP JUMPDEST PUSH1 0x1F DUP3 GT ISZERO PUSH2 0x657 JUMPI PUSH2 0x628 DUP2 PUSH2 0x4F9 JUMP JUMPDEST PUSH2 0x631 DUP5 PUSH2 0x50B JUMP JUMPDEST DUP2 ADD PUSH1 0x20 DUP6 LT ISZERO PUSH2 0x640 JUMPI DUP2 SWAP1 POP JUMPDEST PUSH2 0x654 PUSH2 0x64C DUP6 PUSH2 0x50B JUMP JUMPDEST DUP4 ADD DUP3 PUSH2 0x5F4 JUMP JUMPDEST POP POP JUMPDEST POP POP POP JUMP JUMPDEST PUSH0 DUP3 DUP3 SHR SWAP1 POP SWAP3 SWAP2 POP POP JUMP JUMPDEST PUSH0 PUSH2 0x677 PUSH0 NOT DUP5 PUSH1 0x8 MUL PUSH2 0x65C JUMP JUMPDEST NOT DUP1 DUP4 AND SWAP2 POP POP SWAP3 SWAP2 POP POP JUMP JUMPDEST PUSH0 PUSH2 0x68F DUP4 DUP4 PUSH2 0x668 JUMP JUMPDEST SWAP2 POP DUP3 PUSH1 0x2 MUL DUP3 OR SWAP1 POP SWAP3 SWAP2 POP POP JUMP JUMPDEST PUSH2 0x6A8 DUP3 PUSH2 0x492 JUMP JUMPDEST PUSH8 0xFFFFFFFFFFFFFFFF DUP2 GT ISZERO PUSH2 0x6C1 JUMPI PUSH2 0x6C0 PUSH2 0x2B5 JUMP JUMPDEST JUMPDEST PUSH2 0x6CB DUP3 SLOAD PUSH2 0x4C9 JUMP JUMPDEST PUSH2 0x6D6 DUP3 DUP3 DUP6 PUSH2 0x616 JUMP JUMPDEST PUSH0 PUSH1 0x20 SWAP1 POP PUSH1 0x1F DUP4 GT PUSH1 0x1 DUP2 EQ PUSH2 0x707 JUMPI PUSH0 DUP5 ISZERO PUSH2 0x6F5 JUMPI DUP3 DUP8 ADD MLOAD SWAP1 POP JUMPDEST PUSH2 0x6FF DUP6 DUP3 PUSH2 0x684 JUMP JUMPDEST DUP7 SSTORE POP PUSH2 0x766 JUMP JUMPDEST PUSH1 0x1F NOT DUP5 AND PUSH2 0x715 DUP7 PUSH2 0x4F9 JUMP JUMPDEST PUSH0 JUMPDEST DUP3 DUP2 LT ISZERO PUSH2 0x73C JUMPI DUP5 DUP10 ADD MLOAD DUP3 SSTORE PUSH1 0x1 DUP3 ADD SWAP2 POP PUSH1 0x20 DUP6 ADD SWAP5 POP PUSH1 0x20 DUP2 ADD SWAP1 POP PUSH2 0x717 JUMP JUMPDEST DUP7 DUP4 LT ISZERO PUSH2 0x759 JUMPI DUP5 DUP10 ADD MLOAD PUSH2 0x755 PUSH1 0x1F DUP10 AND DUP3 PUSH2 0x668 JUMP JUMPDEST DUP4 SSTORE POP JUMPDEST PUSH1 0x1 PUSH1 0x2 DUP9 MUL ADD DUP9 SSTORE POP POP POP JUMPDEST POP POP POP POP POP POP JUMP JUMPDEST PUSH2 0x777 DUP2 PUSH2 0x37B JUMP JUMPDEST DUP3 MSTORE POP POP JUMP JUMPDEST PUSH0 PUSH1 0x20 DUP3 ADD SWAP1 POP PUSH2 0x790 PUSH0 DUP4 ADD DUP5 PUSH2 0x76E JUMP JUMPDEST SWAP3 SWAP2 POP POP JUMP JUMPDEST PUSH32 0x4E487B7100000000000000000000000000000000000000000000000000000000 PUSH0 MSTORE PUSH1 0x32 PUSH1 0x4 MSTORE PUSH1 0x24 PUSH0 REVERT JUMPDEST PUSH2 0x3BA4 DUP1 PUSH2 0x7D0 PUSH0 CODECOPY PUSH0 RETURN INVALID PUSH1 0x80 PUSH1 0x40 MSTORE PUSH1 0x4 CALLDATASIZE LT PUSH2 0x1C1 JUMPI PUSH0 CALLDATALOAD PUSH1 0xE0 SHR DUP1 PUSH4 0x8FD37FAE GT PUSH2 0xF6 JUMPI DUP1 PUSH4 0xB88D4FDE GT PUSH2 0x94 JUMPI DUP1 PUSH4 0xE985E9C5 GT PUSH2 0x63 JUMPI DUP1 PUSH4 0xE985E9C5 EQ PUSH2 0x664 JUMPI DUP1 PUSH4 0xEDEA8B9F EQ PUSH2 0x6A0 JUMPI DUP1 PUSH4 0xF2FDE38B EQ PUSH2 0x6AA JUMPI DUP1 PUSH4 0xF731FA0F EQ PUSH2 0x6D2 JUMPI PUSH2 0x1C1 JUMP JUMPDEST DUP1 PUSH4 0xB88D4FDE EQ PUSH2 0x5AC JUMPI DUP1 PUSH4 0xC87B56DD EQ PUSH2 0x5D4 JUMPI DUP1 PUSH4 0xD3B144C6 EQ PUSH2 0x610 JUMPI DUP1 PUSH4 0xDBBD32BE EQ PUSH2 0x63A JUMPI PUSH2 0x1C1 JUMP JUMPDEST DUP1 PUSH4 0xA882916D GT PUSH2 0xD0 JUMPI DUP1 PUSH4 0xA882916D EQ PUSH2 0x4F4 JUMPI DUP1 PUSH4 0xB1152847 EQ PUSH2 0x51C JUMPI DUP1 PUSH4 0xB1610D7E EQ PUSH2 0x558 JUMPI DUP1 PUSH4 0xB18ADA67 EQ PUSH2 0x582 JUMPI PUSH2 0x1C1 JUMP JUMPDEST DUP1 PUSH4 0x8FD37FAE EQ PUSH2 0x463 JUMPI DUP1 PUSH4 0x95D89B41 EQ PUSH2 0x4A2 JUMPI DUP1 PUSH4 0xA22CB465 EQ PUSH2 0x4CC JUMPI PUSH2 0x1C1 JUMP JUMPDEST DUP1 PUSH4 0x42842E0E GT PUSH2 0x163 JUMPI DUP1 PUSH4 0x70A08231 GT PUSH2 0x13D JUMPI DUP1 PUSH4 0x70A08231 EQ PUSH2 0x3AB JUMPI DUP1 PUSH4 0x715018A6 EQ PUSH2 0x3E7 JUMPI DUP1 PUSH4 0x7BE2C511 EQ PUSH2 0x3FD JUMPI DUP1 PUSH4 0x8DA5CB5B EQ PUSH2 0x439 JUMPI PUSH2 0x1C1 JUMP JUMPDEST DUP1 PUSH4 0x42842E0E EQ PUSH2 0x31D JUMPI DUP1 PUSH4 0x4A0AEE29 EQ PUSH2 0x345 JUMPI DUP1 PUSH4 0x6352211E EQ PUSH2 0x36F JUMPI PUSH2 0x1C1 JUMP JUMPDEST DUP1 PUSH4 0x95EA7B3 GT PUSH2 0x19F JUMPI DUP1 PUSH4 0x95EA7B3 EQ PUSH2 0x267 JUMPI DUP1 PUSH4 0x23B872DD EQ PUSH2 0x28F JUMPI DUP1 PUSH4 0x363C6B81 EQ PUSH2 0x2B7 JUMPI DUP1 PUSH4 0x38A7543E EQ PUSH2 0x2E1 JUMPI PUSH2 0x1C1 JUMP JUMPDEST DUP1 PUSH4 0x1FFC9A7 EQ PUSH2 0x1C5 JUMPI DUP1 PUSH4 0x6FDDE03 EQ PUSH2 0x201 JUMPI DUP1 PUSH4 0x81812FC EQ PUSH2 0x22B JUMPI JUMPDEST PUSH0 DUP1 REVERT JUMPDEST CALLVALUE DUP1 ISZERO PUSH2 0x1D0 JUMPI PUSH0 DUP1 REVERT JUMPDEST POP PUSH2 0x1EB PUSH1 0x4 DUP1 CALLDATASIZE SUB DUP2 ADD SWAP1 PUSH2 0x1E6 SWAP2 SWAP1 PUSH2 0x2954 JUMP JUMPDEST PUSH2 0x710 JUMP JUMPDEST PUSH1 0x40 MLOAD PUSH2 0x1F8 SWAP2 SWAP1 PUSH2 0x2999 JUMP JUMPDEST PUSH1 0x40 MLOAD DUP1 SWAP2 SUB SWAP1 RETURN JUMPDEST CALLVALUE DUP1 ISZERO PUSH2 0x20C JUMPI PUSH0 DUP1 REVERT JUMPDEST POP PUSH2 0x215 PUSH2 0x721 JUMP JUMPDEST PUSH1 0x40 MLOAD PUSH2 0x222 SWAP2 SWAP1 PUSH2 0x2A22 JUMP JUMPDEST PUSH1 0x40 MLOAD DUP1 SWAP2 SUB SWAP1 RETURN JUMPDEST CALLVALUE DUP1 ISZERO PUSH2 0x236 JUMPI PUSH0 DUP1 REVERT JUMPDEST POP PUSH2 0x251 PUSH1 0x4 DUP1 CALLDATASIZE SUB DUP2 ADD SWAP1 PUSH2 0x24C SWAP2 SWAP1 PUSH2 0x2A75 JUMP JUMPDEST PUSH2 0x7B0 JUMP JUMPDEST PUSH1 0x40 MLOAD PUSH2 0x25E SWAP2 SWAP1 PUSH2 0x2ADF JUMP JUMPDEST PUSH1 0x40 MLOAD DUP1 SWAP2 SUB SWAP1 RETURN JUMPDEST CALLVALUE DUP1 ISZERO PUSH2 0x272 JUMPI PUSH0 DUP1 REVERT JUMPDEST POP PUSH2 0x28D PUSH1 0x4 DUP1 CALLDATASIZE SUB DUP2 ADD SWAP1 PUSH2 0x288 SWAP2 SWAP1 PUSH2 0x2B22 JUMP JUMPDEST PUSH2 0x7CB JUMP JUMPDEST STOP JUMPDEST CALLVALUE DUP1 ISZERO PUSH2 0x29A JUMPI PUSH0 DUP1 REVERT JUMPDEST POP PUSH2 0x2B5 PUSH1 0x4 DUP1 CALLDATASIZE SUB DUP2 ADD SWAP1 PUSH2 0x2B0 SWAP2 SWAP1 PUSH2 0x2B60 JUMP JUMPDEST PUSH2 0x7E1 JUMP JUMPDEST STOP JUMPDEST CALLVALUE DUP1 ISZERO PUSH2 0x2C2 JUMPI PUSH0 DUP1 REVERT JUMPDEST POP PUSH2 0x2CB PUSH2 0x8E0 JUMP JUMPDEST PUSH1 0x40 MLOAD PUSH2 0x2D8 SWAP2 SWAP1 PUSH2 0x2BBF JUMP JUMPDEST PUSH1 0x40 MLOAD DUP1 SWAP2 SUB SWAP1 RETURN JUMPDEST CALLVALUE DUP1 ISZERO PUSH2 0x2EC JUMPI PUSH0 DUP1 REVERT JUMPDEST POP PUSH2 0x307 PUSH1 0x4 DUP1 CALLDATASIZE SUB DUP2 ADD SWAP1 PUSH2 0x302 SWAP2 SWAP1 PUSH2 0x2BD8 JUMP JUMPDEST PUSH2 0x8E5 JUMP JUMPDEST PUSH1 0x40 MLOAD PUSH2 0x314 SWAP2 SWAP1 PUSH2 0x2999 JUMP JUMPDEST PUSH1 0x40 MLOAD DUP1 SWAP2 SUB SWAP1 RETURN JUMPDEST CALLVALUE DUP1 ISZERO PUSH2 0x328 JUMPI PUSH0 DUP1 REVERT JUMPDEST POP PUSH2 0x343 PUSH1 0x4 DUP1 CALLDATASIZE SUB DUP2 ADD SWAP1 PUSH2 0x33E SWAP2 SWAP1 PUSH2 0x2B60 JUMP JUMPDEST PUSH2 0x902 JUMP JUMPDEST STOP JUMPDEST CALLVALUE DUP1 ISZERO PUSH2 0x350 JUMPI PUSH0 DUP1 REVERT JUMPDEST POP PUSH2 0x359 PUSH2 0x921 JUMP JUMPDEST PUSH1 0x40 MLOAD PUSH2 0x366 SWAP2 SWAP1 PUSH2 0x2BBF JUMP JUMPDEST PUSH1 0x40 MLOAD DUP1 SWAP2 SUB SWAP1 RETURN JUMPDEST CALLVALUE DUP1 ISZERO PUSH2 0x37A JUMPI PUSH0 DUP1 REVERT JUMPDEST POP PUSH2 0x395 PUSH1 0x4 DUP1 CALLDATASIZE SUB DUP2 ADD SWAP1 PUSH2 0x390 SWAP2 SWAP1 PUSH2 0x2A75 JUMP JUMPDEST PUSH2 0x927 JUMP JUMPDEST PUSH1 0x40 MLOAD PUSH2 0x3A2 SWAP2 SWAP1 PUSH2 0x2ADF JUMP JUMPDEST PUSH1 0x40 MLOAD DUP1 SWAP2 SUB SWAP1 RETURN JUMPDEST CALLVALUE DUP1 ISZERO PUSH2 0x3B6 JUMPI PUSH0 DUP1 REVERT JUMPDEST POP PUSH2 0x3D1 PUSH1 0x4 DUP1 CALLDATASIZE SUB DUP2 ADD SWAP1 PUSH2 0x3CC SWAP2 SWAP1 PUSH2 0x2BD8 JUMP JUMPDEST PUSH2 0x938 JUMP JUMPDEST PUSH1 0x40 MLOAD PUSH2 0x3DE SWAP2 SWAP1 PUSH2 0x2BBF JUMP JUMPDEST PUSH1 0x40 MLOAD DUP1 SWAP2 SUB SWAP1 RETURN JUMPDEST CALLVALUE DUP1 ISZERO PUSH2 0x3F2 JUMPI PUSH0 DUP1 REVERT JUMPDEST POP PUSH2 0x3FB PUSH2 0x9EE JUMP JUMPDEST STOP JUMPDEST CALLVALUE DUP1 ISZERO PUSH2 0x408 JUMPI PUSH0 DUP1 REVERT JUMPDEST POP PUSH2 0x423 PUSH1 0x4 DUP1 CALLDATASIZE SUB DUP2 ADD SWAP1 PUSH2 0x41E SWAP2 SWAP1 PUSH2 0x2D2F JUMP JUMPDEST PUSH2 0xA01 JUMP JUMPDEST PUSH1 0x40 MLOAD PUSH2 0x430 SWAP2 SWAP1 PUSH2 0x2BBF JUMP JUMPDEST PUSH1 0x40 MLOAD DUP1 SWAP2 SUB SWAP1 RETURN JUMPDEST CALLVALUE DUP1 ISZERO PUSH2 0x444 JUMPI PUSH0 DUP1 REVERT JUMPDEST POP PUSH2 0x44D PUSH2 0xB34 JUMP JUMPDEST PUSH1 0x40 MLOAD PUSH2 0x45A SWAP2 SWAP1 PUSH2 0x2ADF JUMP JUMPDEST PUSH1 0x40 MLOAD DUP1 SWAP2 SUB SWAP1 RETURN JUMPDEST CALLVALUE DUP1 ISZERO PUSH2 0x46E JUMPI PUSH0 DUP1 REVERT JUMPDEST POP PUSH2 0x489 PUSH1 0x4 DUP1 CALLDATASIZE SUB DUP2 ADD SWAP1 PUSH2 0x484 SWAP2 SWAP1 PUSH2 0x2E93 JUMP JUMPDEST PUSH2 0xB5C JUMP JUMPDEST PUSH1 0x40 MLOAD PUSH2 0x499 SWAP5 SWAP4 SWAP3 SWAP2 SWAP1 PUSH2 0x2EBE JUMP JUMPDEST PUSH1 0x40 MLOAD DUP1 SWAP2 SUB SWAP1 RETURN JUMPDEST CALLVALUE DUP1 ISZERO PUSH2 0x4AD JUMPI PUSH0 DUP1 REVERT JUMPDEST POP PUSH2 0x4B6 PUSH2 0xBB3 JUMP JUMPDEST PUSH1 0x40 MLOAD PUSH2 0x4C3 SWAP2 SWAP1 PUSH2 0x2A22 JUMP JUMPDEST PUSH1 0x40 MLOAD DUP1 SWAP2 SUB SWAP1 RETURN JUMPDEST CALLVALUE DUP1 ISZERO PUSH2 0x4D7 JUMPI PUSH0 DUP1 REVERT JUMPDEST POP PUSH2 0x4F2 PUSH1 0x4 DUP1 CALLDATASIZE SUB DUP2 ADD SWAP1 PUSH2 0x4ED SWAP2 SWAP1 PUSH2 0x2F2B JUMP JUMPDEST PUSH2 0xC43 JUMP JUMPDEST STOP JUMPDEST CALLVALUE DUP1 ISZERO PUSH2 0x4FF JUMPI PUSH0 DUP1 REVERT JUMPDEST POP PUSH2 0x51A PUSH1 0x4 DUP1 CALLDATASIZE SUB DUP2 ADD SWAP1 PUSH2 0x515 SWAP2 SWAP1 PUSH2 0x2F69 JUMP JUMPDEST PUSH2 0xC59 JUMP JUMPDEST STOP JUMPDEST CALLVALUE DUP1 ISZERO PUSH2 0x527 JUMPI PUSH0 DUP1 REVERT JUMPDEST POP PUSH2 0x542 PUSH1 0x4 DUP1 CALLDATASIZE SUB DUP2 ADD SWAP1 PUSH2 0x53D SWAP2 SWAP1 PUSH2 0x2A75 JUMP JUMPDEST PUSH2 0x1149 JUMP JUMPDEST PUSH1 0x40 MLOAD PUSH2 0x54F SWAP2 SWAP1 PUSH2 0x2A22 JUMP JUMPDEST PUSH1 0x40 MLOAD DUP1 SWAP2 SUB SWAP1 RETURN JUMPDEST CALLVALUE DUP1 ISZERO PUSH2 0x563 JUMPI PUSH0 DUP1 REVERT JUMPDEST POP PUSH2 0x56C PUSH2 0x11D1 JUMP JUMPDEST PUSH1 0x40 MLOAD PUSH2 0x579 SWAP2 SWAP1 PUSH2 0x2BBF JUMP JUMPDEST PUSH1 0x40 MLOAD DUP1 SWAP2 SUB SWAP1 RETURN JUMPDEST CALLVALUE DUP1 ISZERO PUSH2 0x58D JUMPI PUSH0 DUP1 REVERT JUMPDEST POP PUSH2 0x596 PUSH2 0x11D8 JUMP JUMPDEST PUSH1 0x40 MLOAD PUSH2 0x5A3 SWAP2 SWAP1 PUSH2 0x2BBF JUMP JUMPDEST PUSH1 0x40 MLOAD DUP1 SWAP2 SUB SWAP1 RETURN JUMPDEST CALLVALUE DUP1 ISZERO PUSH2 0x5B7 JUMPI PUSH0 DUP1 REVERT JUMPDEST POP PUSH2 0x5D2 PUSH1 0x4 DUP1 CALLDATASIZE SUB DUP2 ADD SWAP1 PUSH2 0x5CD SWAP2 SWAP1 PUSH2 0x3045 JUMP JUMPDEST PUSH2 0x11E0 JUMP JUMPDEST STOP JUMPDEST CALLVALUE DUP1 ISZERO PUSH2 0x5DF JUMPI PUSH0 DUP1 REVERT JUMPDEST POP PUSH2 0x5FA PUSH1 0x4 DUP1 CALLDATASIZE SUB DUP2 ADD SWAP1 PUSH2 0x5F5 SWAP2 SWAP1 PUSH2 0x2A75 JUMP JUMPDEST PUSH2 0x11FD JUMP JUMPDEST PUSH1 0x40 MLOAD PUSH2 0x607 SWAP2 SWAP1 PUSH2 0x2A22 JUMP JUMPDEST PUSH1 0x40 MLOAD DUP1 SWAP2 SUB SWAP1 RETURN JUMPDEST CALLVALUE DUP1 ISZERO PUSH2 0x61B JUMPI PUSH0 DUP1 REVERT JUMPDEST POP PUSH2 0x624 PUSH2 0x120F JUMP JUMPDEST PUSH1 0x40 MLOAD PUSH2 0x631 SWAP2 SWAP1 PUSH2 0x2BBF JUMP JUMPDEST PUSH1 0x40 MLOAD DUP1 SWAP2 SUB SWAP1 RETURN JUMPDEST CALLVALUE DUP1 ISZERO PUSH2 0x645 JUMPI PUSH0 DUP1 REVERT JUMPDEST POP PUSH2 0x64E PUSH2 0x1216 JUMP JUMPDEST PUSH1 0x40 MLOAD PUSH2 0x65B SWAP2 SWAP1 PUSH2 0x2BBF JUMP JUMPDEST PUSH1 0x40 MLOAD DUP1 SWAP2 SUB SWAP1 RETURN JUMPDEST CALLVALUE DUP1 ISZERO PUSH2 0x66F JUMPI PUSH0 DUP1 REVERT JUMPDEST POP PUSH2 0x68A PUSH1 0x4 DUP1 CALLDATASIZE SUB DUP2 ADD SWAP1 PUSH2 0x685 SWAP2 SWAP1 PUSH2 0x30C5 JUMP JUMPDEST PUSH2 0x1221 JUMP JUMPDEST PUSH1 0x40 MLOAD PUSH2 0x697 SWAP2 SWAP1 PUSH2 0x2999 JUMP JUMPDEST PUSH1 0x40 MLOAD DUP1 SWAP2 SUB SWAP1 RETURN JUMPDEST PUSH2 0x6A8 PUSH2 0x12AF JUMP JUMPDEST STOP JUMPDEST CALLVALUE DUP1 ISZERO PUSH2 0x6B5 JUMPI PUSH0 DUP1 REVERT JUMPDEST POP PUSH2 0x6D0 PUSH1 0x4 DUP1 CALLDATASIZE SUB DUP2 ADD SWAP1 PUSH2 0x6CB SWAP2 SWAP1 PUSH2 0x2BD8 JUMP JUMPDEST PUSH2 0x153A JUMP JUMPDEST STOP JUMPDEST CALLVALUE DUP1 ISZERO PUSH2 0x6DD JUMPI PUSH0 DUP1 REVERT JUMPDEST POP PUSH2 0x6F8 PUSH1 0x4 DUP1 CALLDATASIZE SUB DUP2 ADD SWAP1 PUSH2 0x6F3 SWAP2 SWAP1 PUSH2 0x2BD8 JUMP JUMPDEST PUSH2 0x15BE JUMP JUMPDEST PUSH1 0x40 MLOAD PUSH2 0x707 SWAP4 SWAP3 SWAP2 SWAP1 PUSH2 0x3103 JUMP JUMPDEST PUSH1 0x40 MLOAD DUP1 SWAP2 SUB SWAP1 RETURN JUMPDEST PUSH0 PUSH2 0x71A DUP3 PUSH2 0x15F0 JUMP JUMPDEST SWAP1 POP SWAP2 SWAP1 POP JUMP JUMPDEST PUSH1 0x60 PUSH0 DUP1 SLOAD PUSH2 0x72F SWAP1 PUSH2 0x3165 JUMP JUMPDEST DUP1 PUSH1 0x1F ADD PUSH1 0x20 DUP1 SWAP2 DIV MUL PUSH1 0x20 ADD PUSH1 0x40 MLOAD SWAP1 DUP2 ADD PUSH1 0x40 MSTORE DUP1 SWAP3 SWAP2 SWAP1 DUP2 DUP2 MSTORE PUSH1 0x20 ADD DUP3 DUP1 SLOAD PUSH2 0x75B SWAP1 PUSH2 0x3165 JUMP JUMPDEST DUP1 ISZERO PUSH2 0x7A6 JUMPI DUP1 PUSH1 0x1F LT PUSH2 0x77D JUMPI PUSH2 0x100 DUP1 DUP4 SLOAD DIV MUL DUP4 MSTORE SWAP2 PUSH1 0x20 ADD SWAP2 PUSH2 0x7A6 JUMP JUMPDEST DUP3 ADD SWAP2 SWAP1 PUSH0 MSTORE PUSH1 0x20 PUSH0 KECCAK256 SWAP1 JUMPDEST DUP2 SLOAD DUP2 MSTORE SWAP1 PUSH1 0x1 ADD SWAP1 PUSH1 0x20 ADD DUP1 DUP4 GT PUSH2 0x789 JUMPI DUP3 SWAP1 SUB PUSH1 0x1F AND DUP3 ADD SWAP2 JUMPDEST POP POP POP POP POP SWAP1 POP SWAP1 JUMP JUMPDEST PUSH0 PUSH2 0x7BA DUP3 PUSH2 0x1650 JUMP JUMPDEST POP PUSH2 0x7C4 DUP3 PUSH2 0x16D6 JUMP JUMPDEST SWAP1 POP SWAP2 SWAP1 POP JUMP JUMPDEST PUSH2 0x7DD DUP3 DUP3 PUSH2 0x7D8 PUSH2 0x170F JUMP JUMPDEST PUSH2 0x1716 JUMP JUMPDEST POP POP JUMP JUMPDEST PUSH0 PUSH20 0xFFFFFFFFFFFFFFFFFFFFFFFFFFFFFFFFFFFFFFFF AND DUP3 PUSH20 0xFFFFFFFFFFFFFFFFFFFFFFFFFFFFFFFFFFFFFFFF AND SUB PUSH2 0x851 JUMPI PUSH0 PUSH1 0x40 MLOAD PUSH32 0x64A0AE9200000000000000000000000000000000000000000000000000000000 DUP2 MSTORE PUSH1 0x4 ADD PUSH2 0x848 SWAP2 SWAP1 PUSH2 0x2ADF JUMP JUMPDEST PUSH1 0x40 MLOAD DUP1 SWAP2 SUB SWAP1 REVERT JUMPDEST PUSH0 PUSH2 0x864 DUP4 DUP4 PUSH2 0x85F PUSH2 0x170F JUMP JUMPDEST PUSH2 0x1728 JUMP JUMPDEST SWAP1 POP DUP4 PUSH20 0xFFFFFFFFFFFFFFFFFFFFFFFFFFFFFFFFFFFFFFFF AND DUP2 PUSH20 0xFFFFFFFFFFFFFFFFFFFFFFFFFFFFFFFFFFFFFFFF AND EQ PUSH2 0x8DA JUMPI DUP4 DUP3 DUP3 PUSH1 0x40 MLOAD PUSH32 0x64283D7B00000000000000000000000000000000000000000000000000000000 DUP2 MSTORE PUSH1 0x4 ADD PUSH2 0x8D1 SWAP4 SWAP3 SWAP2 SWAP1 PUSH2 0x3195 JUMP JUMPDEST PUSH1 0x40 MLOAD DUP1 SWAP2 SUB SWAP1 REVERT JUMPDEST POP POP POP POP JUMP JUMPDEST PUSH1 0x5 DUP2 JUMP JUMPDEST PUSH1 0xA PUSH1 0x20 MSTORE DUP1 PUSH0 MSTORE PUSH1 0x40 PUSH0 KECCAK256 PUSH0 SWAP2 POP SLOAD SWAP1 PUSH2 0x100 EXP SWAP1 DIV PUSH1 0xFF AND DUP2 JUMP JUMPDEST PUSH2 0x91C DUP4 DUP4 DUP4 PUSH1 0x40 MLOAD DUP1 PUSH1 0x20 ADD PUSH1 0x40 MSTORE DUP1 PUSH0 DUP2 MSTORE POP PUSH2 0x11E0 JUMP JUMPDEST POP POP POP JUMP JUMPDEST PUSH1 0xC SLOAD DUP2 JUMP JUMPDEST PUSH0 PUSH2 0x931 DUP3 PUSH2 0x1650 JUMP JUMPDEST SWAP1 POP SWAP2 SWAP1 POP JUMP JUMPDEST PUSH0 DUP1 PUSH20 0xFFFFFFFFFFFFFFFFFFFFFFFFFFFFFFFFFFFFFFFF AND DUP3 PUSH20 0xFFFFFFFFFFFFFFFFFFFFFFFFFFFFFFFFFFFFFFFF AND SUB PUSH2 0x9A9 JUMPI PUSH0 PUSH1 0x40 MLOAD PUSH32 0x89C62B6400000000000000000000000000000000000000000000000000000000 DUP2 MSTORE PUSH1 0x4 ADD PUSH2 0x9A0 SWAP2 SWAP1 PUSH2 0x2ADF JUMP JUMPDEST PUSH1 0x40 MLOAD DUP1 SWAP2 SUB SWAP1 REVERT JUMPDEST PUSH1 0x3 PUSH0 DUP4 PUSH20 0xFFFFFFFFFFFFFFFFFFFFFFFFFFFFFFFFFFFFFFFF AND PUSH20 0xFFFFFFFFFFFFFFFFFFFFFFFFFFFFFFFFFFFFFFFF AND DUP2 MSTORE PUSH1 0x20 ADD SWAP1 DUP2 MSTORE PUSH1 0x20 ADD PUSH0 KECCAK256 SLOAD SWAP1 POP SWAP2 SWAP1 POP JUMP JUMPDEST PUSH2 0x9F6 PUSH2 0x1933 JUMP JUMPDEST PUSH2 0x9FF PUSH0 PUSH2 0x19BA JUMP JUMPDEST JUMP JUMPDEST PUSH0 PUSH1 0x9 PUSH0 CALLER PUSH20 0xFFFFFFFFFFFFFFFFFFFFFFFFFFFFFFFFFFFFFFFF AND PUSH20 0xFFFFFFFFFFFFFFFFFFFFFFFFFFFFFFFFFFFFFFFF AND DUP2 MSTORE PUSH1 0x20 ADD SWAP1 DUP2 MSTORE PUSH1 0x20 ADD PUSH0 KECCAK256 PUSH0 ADD PUSH0 SWAP1 SLOAD SWAP1 PUSH2 0x100 EXP SWAP1 DIV PUSH1 0xFF AND PUSH2 0xA8D JUMPI PUSH1 0x40 MLOAD PUSH32 0x8C379A000000000000000000000000000000000000000000000000000000000 DUP2 MSTORE PUSH1 0x4 ADD PUSH2 0xA84 SWAP1 PUSH2 0x3214 JUMP JUMPDEST PUSH1 0x40 MLOAD DUP1 SWAP2 SUB SWAP1 REVERT JUMPDEST PUSH0 PUSH1 0xC SLOAD GT ISZERO PUSH2 0xAAF JUMPI PUSH0 PUSH2 0xAA0 PUSH2 0x1A7D JUMP JUMPDEST SWAP1 POP PUSH2 0xAAD DUP2 PUSH1 0x1 PUSH2 0xC59 JUMP JUMPDEST POP JUMPDEST PUSH2 0xAB9 PUSH1 0x8 PUSH2 0x1B3C JUMP JUMPDEST SWAP1 POP PUSH2 0xAC5 PUSH1 0x8 PUSH2 0x1B48 JUMP JUMPDEST PUSH2 0xACF CALLER DUP3 PUSH2 0x1B5C JUMP JUMPDEST PUSH2 0xAD9 DUP2 DUP4 PUSH2 0x1B79 JUMP JUMPDEST CALLER PUSH20 0xFFFFFFFFFFFFFFFFFFFFFFFFFFFFFFFFFFFFFFFF AND DUP2 PUSH32 0x44B85EE3BE438C7A2522843990A359D73848AD57EE3E13C59385933C03F0E38E DUP10 DUP8 PUSH1 0x40 MLOAD PUSH2 0xB22 SWAP3 SWAP2 SWAP1 PUSH2 0x3232 JUMP JUMPDEST PUSH1 0x40 MLOAD DUP1 SWAP2 SUB SWAP1 LOG3 SWAP7 SWAP6 POP POP POP POP POP POP JUMP JUMPDEST PUSH0 PUSH1 0x7 PUSH0 SWAP1 SLOAD SWAP1 PUSH2 0x100 EXP SWAP1 DIV PUSH20 0xFFFFFFFFFFFFFFFFFFFFFFFFFFFFFFFFFFFFFFFF AND SWAP1 POP SWAP1 JUMP JUMPDEST PUSH1 0xB PUSH1 0x20 MSTORE DUP1 PUSH0 MSTORE PUSH1 0x40 PUSH0 KECCAK256 PUSH0 SWAP2 POP SWAP1 POP DUP1 PUSH0 ADD PUSH0 SWAP1 SLOAD SWAP1 PUSH2 0x100 EXP SWAP1 DIV PUSH20 0xFFFFFFFFFFFFFFFFFFFFFFFFFFFFFFFFFFFFFFFF AND SWAP1 DUP1 PUSH1 0x1 ADD SLOAD SWAP1 DUP1 PUSH1 0x2 ADD SLOAD SWAP1 DUP1 PUSH1 0x3 ADD PUSH0 SWAP1 SLOAD SWAP1 PUSH2 0x100 EXP SWAP1 DIV PUSH1 0xFF AND SWAP1 POP DUP5 JUMP JUMPDEST PUSH1 0x60 PUSH1 0x1 DUP1 SLOAD PUSH2 0xBC2 SWAP1 PUSH2 0x3165 JUMP JUMPDEST DUP1 PUSH1 0x1F ADD PUSH1 0x20 DUP1 SWAP2 DIV MUL PUSH1 0x20 ADD PUSH1 0x40 MLOAD SWAP1 DUP2 ADD PUSH1 0x40 MSTORE DUP1 SWAP3 SWAP2 SWAP1 DUP2 DUP2 MSTORE PUSH1 0x20 ADD DUP3 DUP1 SLOAD PUSH2 0xBEE SWAP1 PUSH2 0x3165 JUMP JUMPDEST DUP1 ISZERO PUSH2 0xC39 JUMPI DUP1 PUSH1 0x1F LT PUSH2 0xC10 JUMPI PUSH2 0x100 DUP1 DUP4 SLOAD DIV MUL DUP4 MSTORE SWAP2 PUSH1 0x20 ADD SWAP2 PUSH2 0xC39 JUMP JUMPDEST DUP3 ADD SWAP2 SWAP1 PUSH0 MSTORE PUSH1 0x20 PUSH0 KECCAK256 SWAP1 JUMPDEST DUP2 SLOAD DUP2 MSTORE SWAP1 PUSH1 0x1 ADD SWAP1 PUSH1 0x20 ADD DUP1 DUP4 GT PUSH2 0xC1C JUMPI DUP3 SWAP1 SUB PUSH1 0x1F AND DUP3 ADD SWAP2 JUMPDEST POP POP POP POP POP SWAP1 POP SWAP1 JUMP JUMPDEST PUSH2 0xC55 PUSH2 0xC4E PUSH2 0x170F JUMP JUMPDEST DUP4 DUP4 PUSH2 0x1BD3 JUMP JUMPDEST POP POP JUMP JUMPDEST PUSH1 0x9 PUSH0 CALLER PUSH20 0xFFFFFFFFFFFFFFFFFFFFFFFFFFFFFFFFFFFFFFFF AND PUSH20 0xFFFFFFFFFFFFFFFFFFFFFFFFFFFFFFFFFFFFFFFF AND DUP2 MSTORE PUSH1 0x20 ADD SWAP1 DUP2 MSTORE PUSH1 0x20 ADD PUSH0 KECCAK256 PUSH0 ADD PUSH0 SWAP1 SLOAD SWAP1 PUSH2 0x100 EXP SWAP1 DIV PUSH1 0xFF AND PUSH2 0xCE4 JUMPI PUSH1 0x40 MLOAD PUSH32 0x8C379A000000000000000000000000000000000000000000000000000000000 DUP2 MSTORE PUSH1 0x4 ADD PUSH2 0xCDB SWAP1 PUSH2 0x3214 JUMP JUMPDEST PUSH1 0x40 MLOAD DUP1 SWAP2 SUB SWAP1 REVERT JUMPDEST PUSH0 PUSH1 0xB PUSH0 DUP5 DUP2 MSTORE PUSH1 0x20 ADD SWAP1 DUP2 MSTORE PUSH1 0x20 ADD PUSH0 KECCAK256 SWAP1 POP DUP1 PUSH1 0x3 ADD PUSH0 SWAP1 SLOAD SWAP1 PUSH2 0x100 EXP SWAP1 DIV PUSH1 0xFF AND ISZERO PUSH2 0xD49 JUMPI PUSH1 0x40 MLOAD PUSH32 0x8C379A000000000000000000000000000000000000000000000000000000000 DUP2 MSTORE PUSH1 0x4 ADD PUSH2 0xD40 SWAP1 PUSH2 0x32B1 JUMP JUMPDEST PUSH1 0x40 MLOAD DUP1 SWAP2 SUB SWAP1 REVERT JUMPDEST DUP1 PUSH1 0x4 ADD PUSH0 CALLER PUSH20 0xFFFFFFFFFFFFFFFFFFFFFFFFFFFFFFFFFFFFFFFF AND PUSH20 0xFFFFFFFFFFFFFFFFFFFFFFFFFFFFFFFFFFFFFFFF AND DUP2 MSTORE PUSH1 0x20 ADD SWAP1 DUP2 MSTORE PUSH1 0x20 ADD PUSH0 KECCAK256 PUSH0 SWAP1 SLOAD SWAP1 PUSH2 0x100 EXP SWAP1 DIV PUSH1 0xFF AND ISZERO PUSH2 0xDD5 JUMPI PUSH1 0x40 MLOAD PUSH32 0x8C379A000000000000000000000000000000000000000000000000000000000 DUP2 MSTORE PUSH1 0x4 ADD PUSH2 0xDCC SWAP1 PUSH2 0x3319 JUMP JUMPDEST PUSH1 0x40 MLOAD DUP1 SWAP2 SUB SWAP1 REVERT JUMPDEST PUSH1 0x1 DUP2 PUSH1 0x4 ADD PUSH0 CALLER PUSH20 0xFFFFFFFFFFFFFFFFFFFFFFFFFFFFFFFFFFFFFFFF AND PUSH20 0xFFFFFFFFFFFFFFFFFFFFFFFFFFFFFFFFFFFFFFFF AND DUP2 MSTORE PUSH1 0x20 ADD SWAP1 DUP2 MSTORE PUSH1 0x20 ADD PUSH0 KECCAK256 PUSH0 PUSH2 0x100 EXP DUP2 SLOAD DUP2 PUSH1 0xFF MUL NOT AND SWAP1 DUP4 ISZERO ISZERO MUL OR SWAP1 SSTORE POP TIMESTAMP PUSH1 0x9 PUSH0 CALLER PUSH20 0xFFFFFFFFFFFFFFFFFFFFFFFFFFFFFFFFFFFFFFFF AND PUSH20 0xFFFFFFFFFFFFFFFFFFFFFFFFFFFFFFFFFFFFFFFF AND DUP2 MSTORE PUSH1 0x20 ADD SWAP1 DUP2 MSTORE PUSH1 0x20 ADD PUSH0 KECCAK256 PUSH1 0x2 ADD DUP2 SWAP1 SSTORE POP DUP2 ISZERO PUSH2 0xE95 JUMPI DUP1 PUSH1 0x1 ADD PUSH0 DUP2 SLOAD DUP1 SWAP3 SWAP2 SWAP1 PUSH2 0xE8B SWAP1 PUSH2 0x3364 JUMP JUMPDEST SWAP2 SWAP1 POP SSTORE POP PUSH2 0xEAF JUMP JUMPDEST DUP1 PUSH1 0x2 ADD PUSH0 DUP2 SLOAD DUP1 SWAP3 SWAP2 SWAP1 PUSH2 0xEA9 SWAP1 PUSH2 0x3364 JUMP JUMPDEST SWAP2 SWAP1 POP SSTORE POP JUMPDEST CALLER PUSH20 0xFFFFFFFFFFFFFFFFFFFFFFFFFFFFFFFFFFFFFFFF AND DUP4 PUSH32 0xB14B0D7EDDCED961AF9EFCF46C8064A78DA23422C16DE1EEECFEAEBF408DA664 DUP5 PUSH1 0x40 MLOAD PUSH2 0xEF6 SWAP2 SWAP1 PUSH2 0x2999 JUMP JUMPDEST PUSH1 0x40 MLOAD DUP1 SWAP2 SUB SWAP1 LOG3 PUSH0 PUSH2 0xF07 PUSH2 0x1D3C JUMP JUMPDEST SWAP1 POP PUSH0 PUSH1 0x64 PUSH1 0x41 DUP4 PUSH2 0xF19 SWAP2 SWAP1 PUSH2 0x33AB JUMP JUMPDEST PUSH2 0xF23 SWAP2 SWAP1 PUSH2 0x3419 JUMP JUMPDEST SWAP1 POP DUP1 DUP4 PUSH1 0x1 ADD SLOAD LT PUSH2 0x10F5 JUMPI PUSH1 0x40 MLOAD DUP1 PUSH1 0x60 ADD PUSH1 0x40 MSTORE DUP1 PUSH1 0x1 ISZERO ISZERO DUP2 MSTORE PUSH1 0x20 ADD TIMESTAMP DUP2 MSTORE PUSH1 0x20 ADD TIMESTAMP DUP2 MSTORE POP PUSH1 0x9 PUSH0 DUP6 PUSH0 ADD PUSH0 SWAP1 SLOAD SWAP1 PUSH2 0x100 EXP SWAP1 DIV PUSH20 0xFFFFFFFFFFFFFFFFFFFFFFFFFFFFFFFFFFFFFFFF AND PUSH20 0xFFFFFFFFFFFFFFFFFFFFFFFFFFFFFFFFFFFFFFFF AND PUSH20 0xFFFFFFFFFFFFFFFFFFFFFFFFFFFFFFFFFFFFFFFF AND DUP2 MSTORE PUSH1 0x20 ADD SWAP1 DUP2 MSTORE PUSH1 0x20 ADD PUSH0 KECCAK256 PUSH0 DUP3 ADD MLOAD DUP2 PUSH0 ADD PUSH0 PUSH2 0x100 EXP DUP2 SLOAD DUP2 PUSH1 0xFF MUL NOT AND SWAP1 DUP4 ISZERO ISZERO MUL OR SWAP1 SSTORE POP PUSH1 0x20 DUP3 ADD MLOAD DUP2 PUSH1 0x1 ADD SSTORE PUSH1 0x40 DUP3 ADD MLOAD DUP2 PUSH1 0x2 ADD SSTORE SWAP1 POP POP PUSH1 0x1 DUP4 PUSH1 0x3 ADD PUSH0 PUSH2 0x100 EXP DUP2 SLOAD DUP2 PUSH1 0xFF MUL NOT AND SWAP1 DUP4 ISZERO ISZERO MUL OR SWAP1 SSTORE POP PUSH1 0x1 PUSH1 0xA PUSH0 DUP6 PUSH0 ADD PUSH0 SWAP1 SLOAD SWAP1 PUSH2 0x100 EXP SWAP1 DIV PUSH20 0xFFFFFFFFFFFFFFFFFFFFFFFFFFFFFFFFFFFFFFFF AND PUSH20 0xFFFFFFFFFFFFFFFFFFFFFFFFFFFFFFFFFFFFFFFF AND PUSH20 0xFFFFFFFFFFFFFFFFFFFFFFFFFFFFFFFFFFFFFFFF AND DUP2 MSTORE PUSH1 0x20 ADD SWAP1 DUP2 MSTORE PUSH1 0x20 ADD PUSH0 KECCAK256 PUSH0 PUSH2 0x100 EXP DUP2 SLOAD DUP2 PUSH1 0xFF MUL NOT AND SWAP1 DUP4 ISZERO ISZERO MUL OR SWAP1 SSTORE POP PUSH1 0xC PUSH0 DUP2 SLOAD DUP1 SWAP3 SWAP2 SWAP1 PUSH2 0x1086 SWAP1 PUSH2 0x3449 JUMP JUMPDEST SWAP2 SWAP1 POP SSTORE POP DUP3 PUSH0 ADD PUSH0 SWAP1 SLOAD SWAP1 PUSH2 0x100 EXP SWAP1 DIV PUSH20 0xFFFFFFFFFFFFFFFFFFFFFFFFFFFFFFFFFFFFFFFF AND PUSH20 0xFFFFFFFFFFFFFFFFFFFFFFFFFFFFFFFFFFFFFFFF AND PUSH32 0x8B4006CA14F23D4E7AA8D120D1AB7C3761D650EEFAC1A5D6732DBEA94B54EA24 PUSH1 0x40 MLOAD PUSH1 0x40 MLOAD DUP1 SWAP2 SUB SWAP1 LOG2 PUSH2 0x1142 JUMP JUMPDEST PUSH1 0x2 DUP3 PUSH2 0x1102 SWAP2 SWAP1 PUSH2 0x3419 JUMP JUMPDEST DUP4 PUSH1 0x2 ADD SLOAD GT ISZERO PUSH2 0x1141 JUMPI PUSH1 0x1 DUP4 PUSH1 0x3 ADD PUSH0 PUSH2 0x100 EXP DUP2 SLOAD DUP2 PUSH1 0xFF MUL NOT AND SWAP1 DUP4 ISZERO ISZERO MUL OR SWAP1 SSTORE POP PUSH1 0xC PUSH0 DUP2 SLOAD DUP1 SWAP3 SWAP2 SWAP1 PUSH2 0x113B SWAP1 PUSH2 0x3449 JUMP JUMPDEST SWAP2 SWAP1 POP SSTORE POP JUMPDEST JUMPDEST POP POP POP POP POP JUMP JUMPDEST PUSH1 0x60 PUSH0 PUSH20 0xFFFFFFFFFFFFFFFFFFFFFFFFFFFFFFFFFFFFFFFF AND PUSH2 0x116B DUP4 PUSH2 0x927 JUMP JUMPDEST PUSH20 0xFFFFFFFFFFFFFFFFFFFFFFFFFFFFFFFFFFFFFFFF AND SUB PUSH2 0x11C1 JUMPI PUSH1 0x40 MLOAD PUSH32 0x8C379A000000000000000000000000000000000000000000000000000000000 DUP2 MSTORE PUSH1 0x4 ADD PUSH2 0x11B8 SWAP1 PUSH2 0x34BA JUMP JUMPDEST PUSH1 0x40 MLOAD DUP1 SWAP2 SUB SWAP1 REVERT JUMPDEST PUSH2 0x11CA DUP3 PUSH2 0x11FD JUMP JUMPDEST SWAP1 POP SWAP2 SWAP1 POP JUMP JUMPDEST PUSH3 0x278D00 DUP2 JUMP JUMPDEST PUSH4 0x9660180 DUP2 JUMP JUMPDEST PUSH2 0x11EB DUP5 DUP5 DUP5 PUSH2 0x7E1 JUMP JUMPDEST PUSH2 0x11F7 DUP5 DUP5 DUP5 DUP5 PUSH2 0x1DC7 JUMP JUMPDEST POP POP POP POP JUMP JUMPDEST PUSH1 0x60 PUSH2 0x1208 DUP3 PUSH2 0x1F79 JUMP JUMPDEST SWAP1 POP SWAP2 SWAP1 POP JUMP JUMPDEST PUSH3 0x93A80 DUP2 JUMP JUMPDEST PUSH7 0x38D7EA4C68000 DUP2 JUMP JUMPDEST PUSH0 PUSH1 0x5 PUSH0 DUP5 PUSH20 0xFFFFFFFFFFFFFFFFFFFFFFFFFFFFFFFFFFFFFFFF AND PUSH20 0xFFFFFFFFFFFFFFFFFFFFFFFFFFFFFFFFFFFFFFFF AND DUP2 MSTORE PUSH1 0x20 ADD SWAP1 DUP2 MSTORE PUSH1 0x20 ADD PUSH0 KECCAK256 PUSH0 DUP4 PUSH20 0xFFFFFFFFFFFFFFFFFFFFFFFFFFFFFFFFFFFFFFFF AND PUSH20 0xFFFFFFFFFFFFFFFFFFFFFFFFFFFFFFFFFFFFFFFF AND DUP2 MSTORE PUSH1 0x20 ADD SWAP1 DUP2 MSTORE PUSH1 0x20 ADD PUSH0 KECCAK256 PUSH0 SWAP1 SLOAD SWAP1 PUSH2 0x100 EXP SWAP1 DIV PUSH1 0xFF AND SWAP1 POP SWAP3 SWAP2 POP POP JUMP JUMPDEST PUSH1 0x5 PUSH1 0xC SLOAD LT PUSH2 0x12F4 JUMPI PUSH1 0x40 MLOAD PUSH32 0x8C379A000000000000000000000000000000000000000000000000000000000 DUP2 MSTORE PUSH1 0x4 ADD PUSH2 0x12EB SWAP1 PUSH2 0x3522 JUMP JUMPDEST PUSH1 0x40 MLOAD DUP1 SWAP2 SUB SWAP1 REVERT JUMPDEST PUSH7 0x38D7EA4C68000 CALLVALUE LT ISZERO PUSH2 0x133E JUMPI PUSH1 0x40 MLOAD PUSH32 0x8C379A000000000000000000000000000000000000000000000000000000000 DUP2 MSTORE PUSH1 0x4 ADD PUSH2 0x1335 SWAP1 PUSH2 0x358A JUMP JUMPDEST PUSH1 0x40 MLOAD DUP1 SWAP2 SUB SWAP1 REVERT JUMPDEST PUSH1 0x9 PUSH0 CALLER PUSH20 0xFFFFFFFFFFFFFFFFFFFFFFFFFFFFFFFFFFFFFFFF AND PUSH20 0xFFFFFFFFFFFFFFFFFFFFFFFFFFFFFFFFFFFFFFFF AND DUP2 MSTORE PUSH1 0x20 ADD SWAP1 DUP2 MSTORE PUSH1 0x20 ADD PUSH0 KECCAK256 PUSH0 ADD PUSH0 SWAP1 SLOAD SWAP1 PUSH2 0x100 EXP SWAP1 DIV PUSH1 0xFF AND ISZERO PUSH2 0x13CA JUMPI PUSH1 0x40 MLOAD PUSH32 0x8C379A000000000000000000000000000000000000000000000000000000000 DUP2 MSTORE PUSH1 0x4 ADD PUSH2 0x13C1 SWAP1 PUSH2 0x35F2 JUMP JUMPDEST PUSH1 0x40 MLOAD DUP1 SWAP2 SUB SWAP1 REVERT JUMPDEST PUSH3 0x93A80 PUSH1 0x9 PUSH0 CALLER PUSH20 0xFFFFFFFFFFFFFFFFFFFFFFFFFFFFFFFFFFFFFFFF AND PUSH20 0xFFFFFFFFFFFFFFFFFFFFFFFFFFFFFFFFFFFFFFFF AND DUP2 MSTORE PUSH1 0x20 ADD SWAP1 DUP2 MSTORE PUSH1 0x20 ADD PUSH0 KECCAK256 PUSH1 0x2 ADD SLOAD PUSH2 0x1419 SWAP2 SWAP1 PUSH2 0x3610 JUMP JUMPDEST TIMESTAMP GT PUSH2 0x145A JUMPI PUSH1 0x40 MLOAD PUSH32 0x8C379A000000000000000000000000000000000000000000000000000000000 DUP2 MSTORE PUSH1 0x4 ADD PUSH2 0x1451 SWAP1 PUSH2 0x368D JUMP JUMPDEST PUSH1 0x40 MLOAD DUP1 SWAP2 SUB SWAP1 REVERT JUMPDEST PUSH0 CALLER TIMESTAMP PUSH1 0x40 MLOAD PUSH1 0x20 ADD PUSH2 0x146E SWAP3 SWAP2 SWAP1 PUSH2 0x3710 JUMP JUMPDEST PUSH1 0x40 MLOAD PUSH1 0x20 DUP2 DUP4 SUB SUB DUP2 MSTORE SWAP1 PUSH1 0x40 MSTORE DUP1 MLOAD SWAP1 PUSH1 0x20 ADD KECCAK256 SWAP1 POP PUSH0 PUSH1 0xB PUSH0 DUP4 DUP2 MSTORE PUSH1 0x20 ADD SWAP1 DUP2 MSTORE PUSH1 0x20 ADD PUSH0 KECCAK256 SWAP1 POP CALLER DUP2 PUSH0 ADD PUSH0 PUSH2 0x100 EXP DUP2 SLOAD DUP2 PUSH20 0xFFFFFFFFFFFFFFFFFFFFFFFFFFFFFFFFFFFFFFFF MUL NOT AND SWAP1 DUP4 PUSH20 0xFFFFFFFFFFFFFFFFFFFFFFFFFFFFFFFFFFFFFFFF AND MUL OR SWAP1 SSTORE POP PUSH1 0xC PUSH0 DUP2 SLOAD DUP1 SWAP3 SWAP2 SWAP1 PUSH2 0x14ED SWAP1 PUSH2 0x3364 JUMP JUMPDEST SWAP2 SWAP1 POP SSTORE POP CALLER PUSH20 0xFFFFFFFFFFFFFFFFFFFFFFFFFFFFFFFFFFFFFFFF AND DUP3 PUSH32 0xA7752CA3747B7E753DCEACDBAD07173119577B0AAE58360943DD12FCFEE36AEB PUSH1 0x40 MLOAD PUSH1 0x40 MLOAD DUP1 SWAP2 SUB SWAP1 LOG3 POP POP JUMP JUMPDEST PUSH2 0x1542 PUSH2 0x1933 JUMP JUMPDEST PUSH0 PUSH20 0xFFFFFFFFFFFFFFFFFFFFFFFFFFFFFFFFFFFFFFFF AND DUP2 PUSH20 0xFFFFFFFFFFFFFFFFFFFFFFFFFFFFFFFFFFFFFFFF AND SUB PUSH2 0x15B2 JUMPI PUSH0 PUSH1 0x40 MLOAD PUSH32 0x1E4FBDF700000000000000000000000000000000000000000000000000000000 DUP2 MSTORE PUSH1 0x4 ADD PUSH2 0x15A9 SWAP2 SWAP1 PUSH2 0x2ADF JUMP JUMPDEST PUSH1 0x40 MLOAD DUP1 SWAP2 SUB SWAP1 REVERT JUMPDEST PUSH2 0x15BB DUP2 PUSH2 0x19BA JUMP JUMPDEST POP JUMP JUMPDEST PUSH1 0x9 PUSH1 0x20 MSTORE DUP1 PUSH0 MSTORE PUSH1 0x40 PUSH0 KECCAK256 PUSH0 SWAP2 POP SWAP1 POP DUP1 PUSH0 ADD PUSH0 SWAP1 SLOAD SWAP1 PUSH2 0x100 EXP SWAP1 DIV PUSH1 0xFF AND SWAP1 DUP1 PUSH1 0x1 ADD SLOAD SWAP1 DUP1 PUSH1 0x2 ADD SLOAD SWAP1 POP DUP4 JUMP JUMPDEST PUSH0 PUSH4 0x49064906 PUSH1 0xE0 SHL PUSH28 0xFFFFFFFFFFFFFFFFFFFFFFFFFFFFFFFFFFFFFFFFFFFFFFFFFFFFFFFF NOT AND DUP3 PUSH28 0xFFFFFFFFFFFFFFFFFFFFFFFFFFFFFFFFFFFFFFFFFFFFFFFFFFFFFFFF NOT AND EQ DUP1 PUSH2 0x1649 JUMPI POP PUSH2 0x1648 DUP3 PUSH2 0x2084 JUMP JUMPDEST JUMPDEST SWAP1 POP SWAP2 SWAP1 POP JUMP JUMPDEST PUSH0 DUP1 PUSH2 0x165B DUP4 PUSH2 0x2165 JUMP JUMPDEST SWAP1 POP PUSH0 PUSH20 0xFFFFFFFFFFFFFFFFFFFFFFFFFFFFFFFFFFFFFFFF AND DUP2 PUSH20 0xFFFFFFFFFFFFFFFFFFFFFFFFFFFFFFFFFFFFFFFF AND SUB PUSH2 0x16CD JUMPI DUP3 PUSH1 0x40 MLOAD PUSH32 0x7E27328900000000000000000000000000000000000000000000000000000000 DUP2 MSTORE PUSH1 0x4 ADD PUSH2 0x16C4 SWAP2 SWAP1 PUSH2 0x2BBF JUMP JUMPDEST PUSH1 0x40 MLOAD DUP1 SWAP2 SUB SWAP1 REVERT JUMPDEST DUP1 SWAP2 POP POP SWAP2 SWAP1 POP JUMP JUMPDEST PUSH0 PUSH1 0x4 PUSH0 DUP4 DUP2 MSTORE PUSH1 0x20 ADD SWAP1 DUP2 MSTORE PUSH1 0x20 ADD PUSH0 KECCAK256 PUSH0 SWAP1 SLOAD SWAP1 PUSH2 0x100 EXP SWAP1 DIV PUSH20 0xFFFFFFFFFFFFFFFFFFFFFFFFFFFFFFFFFFFFFFFF AND SWAP1 POP SWAP2 SWAP1 POP JUMP JUMPDEST PUSH0 CALLER SWAP1 POP SWAP1 JUMP JUMPDEST PUSH2 0x1723 DUP4 DUP4 DUP4 PUSH1 0x1 PUSH2 0x219E JUMP JUMPDEST POP POP POP JUMP JUMPDEST PUSH0 DUP1 PUSH2 0x1733 DUP5 PUSH2 0x2165 JUMP JUMPDEST SWAP1 POP PUSH0 PUSH20 0xFFFFFFFFFFFFFFFFFFFFFFFFFFFFFFFFFFFFFFFF AND DUP4 PUSH20 0xFFFFFFFFFFFFFFFFFFFFFFFFFFFFFFFFFFFFFFFF AND EQ PUSH2 0x1774 JUMPI PUSH2 0x1773 DUP2 DUP5 DUP7 PUSH2 0x235D JUMP JUMPDEST JUMPDEST PUSH0 PUSH20 0xFFFFFFFFFFFFFFFFFFFFFFFFFFFFFFFFFFFFFFFF AND DUP2 PUSH20 0xFFFFFFFFFFFFFFFFFFFFFFFFFFFFFFFFFFFFFFFF AND EQ PUSH2 0x17FF JUMPI PUSH2 0x17B3 PUSH0 DUP6 PUSH0 DUP1 PUSH2 0x219E JUMP JUMPDEST PUSH1 0x1 PUSH1 0x3 PUSH0 DUP4 PUSH20 0xFFFFFFFFFFFFFFFFFFFFFFFFFFFFFFFFFFFFFFFF AND PUSH20 0xFFFFFFFFFFFFFFFFFFFFFFFFFFFFFFFFFFFFFFFF AND DUP2 MSTORE PUSH1 0x20 ADD SWAP1 DUP2 MSTORE PUSH1 0x20 ADD PUSH0 KECCAK256 PUSH0 DUP3 DUP3 SLOAD SUB SWAP3 POP POP DUP2 SWAP1 SSTORE POP JUMPDEST PUSH0 PUSH20 0xFFFFFFFFFFFFFFFFFFFFFFFFFFFFFFFFFFFFFFFF AND DUP6 PUSH20 0xFFFFFFFFFFFFFFFFFFFFFFFFFFFFFFFFFFFFFFFF AND EQ PUSH2 0x187E JUMPI PUSH1 0x1 PUSH1 0x3 PUSH0 DUP8 PUSH20 0xFFFFFFFFFFFFFFFFFFFFFFFFFFFFFFFFFFFFFFFF AND PUSH20 0xFFFFFFFFFFFFFFFFFFFFFFFFFFFFFFFFFFFFFFFF AND DUP2 MSTORE PUSH1 0x20 ADD SWAP1 DUP2 MSTORE PUSH1 0x20 ADD PUSH0 KECCAK256 PUSH0 DUP3 DUP3 SLOAD ADD SWAP3 POP POP DUP2 SWAP1 SSTORE POP JUMPDEST DUP5 PUSH1 0x2 PUSH0 DUP7 DUP2 MSTORE PUSH1 0x20 ADD SWAP1 DUP2 MSTORE PUSH1 0x20 ADD PUSH0 KECCAK256 PUSH0 PUSH2 0x100 EXP DUP2 SLOAD DUP2 PUSH20 0xFFFFFFFFFFFFFFFFFFFFFFFFFFFFFFFFFFFFFFFF MUL NOT AND SWAP1 DUP4 PUSH20 0xFFFFFFFFFFFFFFFFFFFFFFFFFFFFFFFFFFFFFFFF AND MUL OR SWAP1 SSTORE POP DUP4 DUP6 PUSH20 0xFFFFFFFFFFFFFFFFFFFFFFFFFFFFFFFFFFFFFFFF AND DUP3 PUSH20 0xFFFFFFFFFFFFFFFFFFFFFFFFFFFFFFFFFFFFFFFF AND PUSH32 0xDDF252AD1BE2C89B69C2B068FC378DAA952BA7F163C4A11628F55A4DF523B3EF PUSH1 0x40 MLOAD PUSH1 0x40 MLOAD DUP1 SWAP2 SUB SWAP1 LOG4 DUP1 SWAP2 POP POP SWAP4 SWAP3 POP POP POP JUMP JUMPDEST PUSH2 0x193B PUSH2 0x170F JUMP JUMPDEST PUSH20 0xFFFFFFFFFFFFFFFFFFFFFFFFFFFFFFFFFFFFFFFF AND PUSH2 0x1959 PUSH2 0xB34 JUMP JUMPDEST PUSH20 0xFFFFFFFFFFFFFFFFFFFFFFFFFFFFFFFFFFFFFFFF AND EQ PUSH2 0x19B8 JUMPI PUSH2 0x197C PUSH2 0x170F JUMP JUMPDEST PUSH1 0x40 MLOAD PUSH32 0x118CDAA700000000000000000000000000000000000000000000000000000000 DUP2 MSTORE PUSH1 0x4 ADD PUSH2 0x19AF SWAP2 SWAP1 PUSH2 0x2ADF JUMP JUMPDEST PUSH1 0x40 MLOAD DUP1 SWAP2 SUB SWAP1 REVERT JUMPDEST JUMP JUMPDEST PUSH0 PUSH1 0x7 PUSH0 SWAP1 SLOAD SWAP1 PUSH2 0x100 EXP SWAP1 DIV PUSH20 0xFFFFFFFFFFFFFFFFFFFFFFFFFFFFFFFFFFFFFFFF AND SWAP1 POP DUP2 PUSH1 0x7 PUSH0 PUSH2 0x100 EXP DUP2 SLOAD DUP2 PUSH20 0xFFFFFFFFFFFFFFFFFFFFFFFFFFFFFFFFFFFFFFFF MUL NOT AND SWAP1 DUP4 PUSH20 0xFFFFFFFFFFFFFFFFFFFFFFFFFFFFFFFFFFFFFFFF AND MUL OR SWAP1 SSTORE POP DUP2 PUSH20 0xFFFFFFFFFFFFFFFFFFFFFFFFFFFFFFFFFFFFFFFF AND DUP2 PUSH20 0xFFFFFFFFFFFFFFFFFFFFFFFFFFFFFFFFFFFFFFFF AND PUSH32 0x8BE0079C531659141344CD1FD0A4F28419497F9722A3DAAFE3B4186F6B6457E0 PUSH1 0x40 MLOAD PUSH1 0x40 MLOAD DUP1 SWAP2 SUB SWAP1 LOG3 POP POP JUMP JUMPDEST PUSH0 DUP1 PUSH0 SWAP1 POP JUMPDEST PUSH2 0x1A8D PUSH1 0x8 PUSH2 0x1B3C JUMP JUMPDEST DUP2 LT ISZERO PUSH2 0x1AFD JUMPI PUSH0 DUP2 TIMESTAMP PUSH1 0x40 MLOAD PUSH1 0x20 ADD PUSH2 0x1AA8 SWAP3 SWAP2 SWAP1 PUSH2 0x3710 JUMP JUMPDEST PUSH1 0x40 MLOAD PUSH1 0x20 DUP2 DUP4 SUB SUB DUP2 MSTORE SWAP1 PUSH1 0x40 MSTORE DUP1 MLOAD SWAP1 PUSH1 0x20 ADD KECCAK256 SWAP1 POP PUSH1 0xB PUSH0 DUP3 DUP2 MSTORE PUSH1 0x20 ADD SWAP1 DUP2 MSTORE PUSH1 0x20 ADD PUSH0 KECCAK256 PUSH1 0x3 ADD PUSH0 SWAP1 SLOAD SWAP1 PUSH2 0x100 EXP SWAP1 DIV PUSH1 0xFF AND PUSH2 0x1AEF JUMPI DUP1 SWAP3 POP POP POP PUSH2 0x1B39 JUMP JUMPDEST POP DUP1 DUP1 PUSH1 0x1 ADD SWAP2 POP POP PUSH2 0x1A83 JUMP JUMPDEST POP PUSH1 0x40 MLOAD PUSH32 0x8C379A000000000000000000000000000000000000000000000000000000000 DUP2 MSTORE PUSH1 0x4 ADD PUSH2 0x1B30 SWAP1 PUSH2 0x3785 JUMP JUMPDEST PUSH1 0x40 MLOAD DUP1 SWAP2 SUB SWAP1 REVERT JUMPDEST SWAP1 JUMP JUMPDEST PUSH0 DUP2 PUSH0 ADD SLOAD SWAP1 POP SWAP2 SWAP1 POP JUMP JUMPDEST PUSH1 0x1 DUP2 PUSH0 ADD PUSH0 DUP3 DUP3 SLOAD ADD SWAP3 POP POP DUP2 SWAP1 SSTORE POP POP JUMP JUMPDEST PUSH2 0x1B75 DUP3 DUP3 PUSH1 0x40 MLOAD DUP1 PUSH1 0x20 ADD PUSH1 0x40 MSTORE DUP1 PUSH0 DUP2 MSTORE POP PUSH2 0x2420 JUMP JUMPDEST POP POP JUMP JUMPDEST DUP1 PUSH1 0x6 PUSH0 DUP5 DUP2 MSTORE PUSH1 0x20 ADD SWAP1 DUP2 MSTORE PUSH1 0x20 ADD PUSH0 KECCAK256 SWAP1 DUP2 PUSH2 0x1B97 SWAP2 SWAP1 PUSH2 0x3940 JUMP JUMPDEST POP PUSH32 0xF8E1A15ABA9398E019F0B49DF1A4FDE98EE17AE345CB5F6B5E2C27F5033E8CE7 DUP3 PUSH1 0x40 MLOAD PUSH2 0x1BC7 SWAP2 SWAP1 PUSH2 0x2BBF JUMP JUMPDEST PUSH1 0x40 MLOAD DUP1 SWAP2 SUB SWAP1 LOG1 POP POP JUMP JUMPDEST PUSH0 PUSH20 0xFFFFFFFFFFFFFFFFFFFFFFFFFFFFFFFFFFFFFFFF AND DUP3 PUSH20 0xFFFFFFFFFFFFFFFFFFFFFFFFFFFFFFFFFFFFFFFF AND SUB PUSH2 0x1C43 JUMPI DUP2 PUSH1 0x40 MLOAD PUSH32 0x5B08BA1800000000000000000000000000000000000000000000000000000000 DUP2 MSTORE PUSH1 0x4 ADD PUSH2 0x1C3A SWAP2 SWAP1 PUSH2 0x2ADF JUMP JUMPDEST PUSH1 0x40 MLOAD DUP1 SWAP2 SUB SWAP1 REVERT JUMPDEST DUP1 PUSH1 0x5 PUSH0 DUP6 PUSH20 0xFFFFFFFFFFFFFFFFFFFFFFFFFFFFFFFFFFFFFFFF AND PUSH20 0xFFFFFFFFFFFFFFFFFFFFFFFFFFFFFFFFFFFFFFFF AND DUP2 MSTORE PUSH1 0x20 ADD SWAP1 DUP2 MSTORE PUSH1 0x20 ADD PUSH0 KECCAK256 PUSH0 DUP5 PUSH20 0xFFFFFFFFFFFFFFFFFFFFFFFFFFFFFFFFFFFFFFFF AND PUSH20 0xFFFFFFFFFFFFFFFFFFFFFFFFFFFFFFFFFFFFFFFF AND DUP2 MSTORE PUSH1 0x20 ADD SWAP1 DUP2 MSTORE PUSH1 0x20 ADD PUSH0 KECCAK256 PUSH0 PUSH2 0x100 EXP DUP2 SLOAD DUP2 PUSH1 0xFF MUL NOT AND SWAP1 DUP4 ISZERO ISZERO MUL OR SWAP1 SSTORE POP DUP2 PUSH20 0xFFFFFFFFFFFFFFFFFFFFFFFFFFFFFFFFFFFFFFFF AND DUP4 PUSH20 0xFFFFFFFFFFFFFFFFFFFFFFFFFFFFFFFFFFFFFFFF AND PUSH32 0x17307EAB39AB6107E8899845AD3D59BD9653F200F220920489CA2B5937696C31 DUP4 PUSH1 0x40 MLOAD PUSH2 0x1D2F SWAP2 SWAP1 PUSH2 0x2999 JUMP JUMPDEST PUSH1 0x40 MLOAD DUP1 SWAP2 SUB SWAP1 LOG3 POP POP POP JUMP JUMPDEST PUSH0 DUP1 PUSH0 SWAP1 POP PUSH0 JUMPDEST PUSH2 0x1D4D PUSH1 0x8 PUSH2 0x1B3C JUMP JUMPDEST DUP2 LT ISZERO PUSH2 0x1DBF JUMPI PUSH1 0xA PUSH0 DUP3 PUSH20 0xFFFFFFFFFFFFFFFFFFFFFFFFFFFFFFFFFFFFFFFF AND PUSH20 0xFFFFFFFFFFFFFFFFFFFFFFFFFFFFFFFFFFFFFFFF AND DUP2 MSTORE PUSH1 0x20 ADD SWAP1 DUP2 MSTORE PUSH1 0x20 ADD PUSH0 KECCAK256 PUSH0 SWAP1 SLOAD SWAP1 PUSH2 0x100 EXP SWAP1 DIV PUSH1 0xFF AND ISZERO PUSH2 0x1DB2 JUMPI DUP2 DUP1 PUSH2 0x1DAE SWAP1 PUSH2 0x3364 JUMP JUMPDEST SWAP3 POP POP JUMPDEST DUP1 DUP1 PUSH1 0x1 ADD SWAP2 POP POP PUSH2 0x1D43 JUMP JUMPDEST POP DUP1 SWAP2 POP POP SWAP1 JUMP JUMPDEST PUSH0 DUP4 PUSH20 0xFFFFFFFFFFFFFFFFFFFFFFFFFFFFFFFFFFFFFFFF AND EXTCODESIZE GT ISZERO PUSH2 0x1F73 JUMPI DUP3 PUSH20 0xFFFFFFFFFFFFFFFFFFFFFFFFFFFFFFFFFFFFFFFF AND PUSH4 0x150B7A02 PUSH2 0x1E0A PUSH2 0x170F JUMP JUMPDEST DUP7 DUP6 DUP6 PUSH1 0x40 MLOAD DUP6 PUSH4 0xFFFFFFFF AND PUSH1 0xE0 SHL DUP2 MSTORE PUSH1 0x4 ADD PUSH2 0x1E2C SWAP5 SWAP4 SWAP3 SWAP2 SWAP1 PUSH2 0x3A61 JUMP JUMPDEST PUSH1 0x20 PUSH1 0x40 MLOAD DUP1 DUP4 SUB DUP2 PUSH0 DUP8 GAS CALL SWAP3 POP POP POP DUP1 ISZERO PUSH2 0x1E67 JUMPI POP PUSH1 0x40 MLOAD RETURNDATASIZE PUSH1 0x1F NOT PUSH1 0x1F DUP3 ADD AND DUP3 ADD DUP1 PUSH1 0x40 MSTORE POP DUP2 ADD SWAP1 PUSH2 0x1E64 SWAP2 SWAP1 PUSH2 0x3ABF JUMP JUMPDEST PUSH1 0x1 JUMPDEST PUSH2 0x1EE8 JUMPI RETURNDATASIZE DUP1 PUSH0 DUP2 EQ PUSH2 0x1E95 JUMPI PUSH1 0x40 MLOAD SWAP2 POP PUSH1 0x1F NOT PUSH1 0x3F RETURNDATASIZE ADD AND DUP3 ADD PUSH1 0x40 MSTORE RETURNDATASIZE DUP3 MSTORE RETURNDATASIZE PUSH0 PUSH1 0x20 DUP5 ADD RETURNDATACOPY PUSH2 0x1E9A JUMP JUMPDEST PUSH1 0x60 SWAP2 POP JUMPDEST POP PUSH0 DUP2 MLOAD SUB PUSH2 0x1EE0 JUMPI DUP4 PUSH1 0x40 MLOAD PUSH32 0x64A0AE9200000000000000000000000000000000000000000000000000000000 DUP2 MSTORE PUSH1 0x4 ADD PUSH2 0x1ED7 SWAP2 SWAP1 PUSH2 0x2ADF JUMP JUMPDEST PUSH1 0x40 MLOAD DUP1 SWAP2 SUB SWAP1 REVERT JUMPDEST DUP1 MLOAD DUP2 PUSH1 0x20 ADD REVERT JUMPDEST PUSH4 0x150B7A02 PUSH1 0xE0 SHL PUSH28 0xFFFFFFFFFFFFFFFFFFFFFFFFFFFFFFFFFFFFFFFFFFFFFFFFFFFFFFFF NOT AND DUP2 PUSH28 0xFFFFFFFFFFFFFFFFFFFFFFFFFFFFFFFFFFFFFFFFFFFFFFFFFFFFFFFF NOT AND EQ PUSH2 0x1F71 JUMPI DUP4 PUSH1 0x40 MLOAD PUSH32 0x64A0AE9200000000000000000000000000000000000000000000000000000000 DUP2 MSTORE PUSH1 0x4 ADD PUSH2 0x1F68 SWAP2 SWAP1 PUSH2 0x2ADF JUMP JUMPDEST PUSH1 0x40 MLOAD DUP1 SWAP2 SUB SWAP1 REVERT JUMPDEST POP JUMPDEST POP POP POP POP JUMP JUMPDEST PUSH1 0x60 PUSH2 0x1F84 DUP3 PUSH2 0x1650 JUMP JUMPDEST POP PUSH0 PUSH1 0x6 PUSH0 DUP5 DUP2 MSTORE PUSH1 0x20 ADD SWAP1 DUP2 MSTORE PUSH1 0x20 ADD PUSH0 KECCAK256 DUP1 SLOAD PUSH2 0x1FA2 SWAP1 PUSH2 0x3165 JUMP JUMPDEST DUP1 PUSH1 0x1F ADD PUSH1 0x20 DUP1 SWAP2 DIV MUL PUSH1 0x20 ADD PUSH1 0x40 MLOAD SWAP1 DUP2 ADD PUSH1 0x40 MSTORE DUP1 SWAP3 SWAP2 SWAP1 DUP2 DUP2 MSTORE PUSH1 0x20 ADD DUP3 DUP1 SLOAD PUSH2 0x1FCE SWAP1 PUSH2 0x3165 JUMP JUMPDEST DUP1 ISZERO PUSH2 0x2019 JUMPI DUP1 PUSH1 0x1F LT PUSH2 0x1FF0 JUMPI PUSH2 0x100 DUP1 DUP4 SLOAD DIV MUL DUP4 MSTORE SWAP2 PUSH1 0x20 ADD SWAP2 PUSH2 0x2019 JUMP JUMPDEST DUP3 ADD SWAP2 SWAP1 PUSH0 MSTORE PUSH1 0x20 PUSH0 KECCAK256 SWAP1 JUMPDEST DUP2 SLOAD DUP2 MSTORE SWAP1 PUSH1 0x1 ADD SWAP1 PUSH1 0x20 ADD DUP1 DUP4 GT PUSH2 0x1FFC JUMPI DUP3 SWAP1 SUB PUSH1 0x1F AND DUP3 ADD SWAP2 JUMPDEST POP POP POP POP POP SWAP1 POP PUSH0 PUSH2 0x2029 PUSH2 0x243B JUMP JUMPDEST SWAP1 POP PUSH0 DUP2 MLOAD SUB PUSH2 0x203D JUMPI DUP2 SWAP3 POP POP POP PUSH2 0x207F JUMP JUMPDEST PUSH0 DUP3 MLOAD GT ISZERO PUSH2 0x2071 JUMPI DUP1 DUP3 PUSH1 0x40 MLOAD PUSH1 0x20 ADD PUSH2 0x2059 SWAP3 SWAP2 SWAP1 PUSH2 0x3B24 JUMP JUMPDEST PUSH1 0x40 MLOAD PUSH1 0x20 DUP2 DUP4 SUB SUB DUP2 MSTORE SWAP1 PUSH1 0x40 MSTORE SWAP3 POP POP POP PUSH2 0x207F JUMP JUMPDEST PUSH2 0x207A DUP5 PUSH2 0x2451 JUMP JUMPDEST SWAP3 POP POP POP JUMPDEST SWAP2 SWAP1 POP JUMP JUMPDEST PUSH0 PUSH32 0x80AC58CD00000000000000000000000000000000000000000000000000000000 PUSH28 0xFFFFFFFFFFFFFFFFFFFFFFFFFFFFFFFFFFFFFFFFFFFFFFFFFFFFFFFF NOT AND DUP3 PUSH28 0xFFFFFFFFFFFFFFFFFFFFFFFFFFFFFFFFFFFFFFFFFFFFFFFFFFFFFFFF NOT AND EQ DUP1 PUSH2 0x214E JUMPI POP PUSH32 0x5B5E139F00000000000000000000000000000000000000000000000000000000 PUSH28 0xFFFFFFFFFFFFFFFFFFFFFFFFFFFFFFFFFFFFFFFFFFFFFFFFFFFFFFFF NOT AND DUP3 PUSH28 0xFFFFFFFFFFFFFFFFFFFFFFFFFFFFFFFFFFFFFFFFFFFFFFFFFFFFFFFF NOT AND EQ JUMPDEST DUP1 PUSH2 0x215E JUMPI POP PUSH2 0x215D DUP3 PUSH2 0x24B7 JUMP JUMPDEST JUMPDEST SWAP1 POP SWAP2 SWAP1 POP JUMP JUMPDEST PUSH0 PUSH1 0x2 PUSH0 DUP4 DUP2 MSTORE PUSH1 0x20 ADD SWAP1 DUP2 MSTORE PUSH1 0x20 ADD PUSH0 KECCAK256 PUSH0 SWAP1 SLOAD SWAP1 PUSH2 0x100 EXP SWAP1 DIV PUSH20 0xFFFFFFFFFFFFFFFFFFFFFFFFFFFFFFFFFFFFFFFF AND SWAP1 POP SWAP2 SWAP1 POP JUMP JUMPDEST DUP1 DUP1 PUSH2 0x21D6 JUMPI POP PUSH0 PUSH20 0xFFFFFFFFFFFFFFFFFFFFFFFFFFFFFFFFFFFFFFFF AND DUP3 PUSH20 0xFFFFFFFFFFFFFFFFFFFFFFFFFFFFFFFFFFFFFFFF AND EQ ISZERO JUMPDEST ISZERO PUSH2 0x2308 JUMPI PUSH0 PUSH2 0x21E5 DUP5 PUSH2 0x1650 JUMP JUMPDEST SWAP1 POP PUSH0 PUSH20 0xFFFFFFFFFFFFFFFFFFFFFFFFFFFFFFFFFFFFFFFF AND DUP4 PUSH20 0xFFFFFFFFFFFFFFFFFFFFFFFFFFFFFFFFFFFFFFFF AND EQ ISZERO DUP1 ISZERO PUSH2 0x224F JUMPI POP DUP3 PUSH20 0xFFFFFFFFFFFFFFFFFFFFFFFFFFFFFFFFFFFFFFFF AND DUP2 PUSH20 0xFFFFFFFFFFFFFFFFFFFFFFFFFFFFFFFFFFFFFFFF AND EQ ISZERO JUMPDEST DUP1 ISZERO PUSH2 0x2262 JUMPI POP PUSH2 0x2260 DUP2 DUP5 PUSH2 0x1221 JUMP JUMPDEST ISZERO JUMPDEST ISZERO PUSH2 0x22A4 JUMPI DUP3 PUSH1 0x40 MLOAD PUSH32 0xA9FBF51F00000000000000000000000000000000000000000000000000000000 DUP2 MSTORE PUSH1 0x4 ADD PUSH2 0x229B SWAP2 SWAP1 PUSH2 0x2ADF JUMP JUMPDEST PUSH1 0x40 MLOAD DUP1 SWAP2 SUB SWAP1 REVERT JUMPDEST DUP2 ISZERO PUSH2 0x2306 JUMPI DUP4 DUP6 PUSH20 0xFFFFFFFFFFFFFFFFFFFFFFFFFFFFFFFFFFFFFFFF AND DUP3 PUSH20 0xFFFFFFFFFFFFFFFFFFFFFFFFFFFFFFFFFFFFFFFF AND PUSH32 0x8C5BE1E5EBEC7D5BD14F71427D1E84F3DD0314C0F7B2291E5B200AC8C7C3B925 PUSH1 0x40 MLOAD PUSH1 0x40 MLOAD DUP1 SWAP2 SUB SWAP1 LOG4 JUMPDEST POP JUMPDEST DUP4 PUSH1 0x4 PUSH0 DUP6 DUP2 MSTORE PUSH1 0x20 ADD SWAP1 DUP2 MSTORE PUSH1 0x20 ADD PUSH0 KECCAK256 PUSH0 PUSH2 0x100 EXP DUP2 SLOAD DUP2 PUSH20 0xFFFFFFFFFFFFFFFFFFFFFFFFFFFFFFFFFFFFFFFF MUL NOT AND SWAP1 DUP4 PUSH20 0xFFFFFFFFFFFFFFFFFFFFFFFFFFFFFFFFFFFFFFFF AND MUL OR SWAP1 SSTORE POP POP POP POP POP JUMP JUMPDEST PUSH2 0x2368 DUP4 DUP4 DUP4 PUSH2 0x2520 JUMP JUMPDEST PUSH2 0x241B JUMPI PUSH0 PUSH20 0xFFFFFFFFFFFFFFFFFFFFFFFFFFFFFFFFFFFFFFFF AND DUP4 PUSH20 0xFFFFFFFFFFFFFFFFFFFFFFFFFFFFFFFFFFFFFFFF AND SUB PUSH2 0x23DC JUMPI DUP1 PUSH1 0x40 MLOAD PUSH32 0x7E27328900000000000000000000000000000000000000000000000000000000 DUP2 MSTORE PUSH1 0x4 ADD PUSH2 0x23D3 SWAP2 SWAP1 PUSH2 0x2BBF JUMP JUMPDEST PUSH1 0x40 MLOAD DUP1 SWAP2 SUB SWAP1 REVERT JUMPDEST DUP2 DUP2 PUSH1 0x40 MLOAD PUSH32 0x177E802F00000000000000000000000000000000000000000000000000000000 DUP2 MSTORE PUSH1 0x4 ADD PUSH2 0x2412 SWAP3 SWAP2 SWAP1 PUSH2 0x3B47 JUMP JUMPDEST PUSH1 0x40 MLOAD DUP1 SWAP2 SUB SWAP1 REVERT JUMPDEST POP POP POP JUMP JUMPDEST PUSH2 0x242A DUP4 DUP4 PUSH2 0x25E0 JUMP JUMPDEST PUSH2 0x2436 PUSH0 DUP5 DUP5 DUP5 PUSH2 0x1DC7 JUMP JUMPDEST POP POP POP JUMP JUMPDEST PUSH1 0x60 PUSH1 0x40 MLOAD DUP1 PUSH1 0x20 ADD PUSH1 0x40 MSTORE DUP1 PUSH0 DUP2 MSTORE POP SWAP1 POP SWAP1 JUMP JUMPDEST PUSH1 0x60 PUSH2 0x245C DUP3 PUSH2 0x1650 JUMP JUMPDEST POP PUSH0 PUSH2 0x2466 PUSH2 0x243B JUMP JUMPDEST SWAP1 POP PUSH0 DUP2 MLOAD GT PUSH2 0x2484 JUMPI PUSH1 0x40 MLOAD DUP1 PUSH1 0x20 ADD PUSH1 0x40 MSTORE DUP1 PUSH0 DUP2 MSTORE POP PUSH2 0x24AF JUMP JUMPDEST DUP1 PUSH2 0x248E DUP5 PUSH2 0x26D3 JUMP JUMPDEST PUSH1 0x40 MLOAD PUSH1 0x20 ADD PUSH2 0x249F SWAP3 SWAP2 SWAP1 PUSH2 0x3B24 JUMP JUMPDEST PUSH1 0x40 MLOAD PUSH1 0x20 DUP2 DUP4 SUB SUB DUP2 MSTORE SWAP1 PUSH1 0x40 MSTORE JUMPDEST SWAP2 POP POP SWAP2 SWAP1 POP JUMP JUMPDEST PUSH0 PUSH32 0x1FFC9A700000000000000000000000000000000000000000000000000000000 PUSH28 0xFFFFFFFFFFFFFFFFFFFFFFFFFFFFFFFFFFFFFFFFFFFFFFFFFFFFFFFF NOT AND DUP3 PUSH28 0xFFFFFFFFFFFFFFFFFFFFFFFFFFFFFFFFFFFFFFFFFFFFFFFFFFFFFFFF NOT AND EQ SWAP1 POP SWAP2 SWAP1 POP JUMP JUMPDEST PUSH0 DUP1 PUSH20 0xFFFFFFFFFFFFFFFFFFFFFFFFFFFFFFFFFFFFFFFF AND DUP4 PUSH20 0xFFFFFFFFFFFFFFFFFFFFFFFFFFFFFFFFFFFFFFFF AND EQ ISZERO DUP1 ISZERO PUSH2 0x25D7 JUMPI POP DUP3 PUSH20 0xFFFFFFFFFFFFFFFFFFFFFFFFFFFFFFFFFFFFFFFF AND DUP5 PUSH20 0xFFFFFFFFFFFFFFFFFFFFFFFFFFFFFFFFFFFFFFFF AND EQ DUP1 PUSH2 0x2598 JUMPI POP PUSH2 0x2597 DUP5 DUP5 PUSH2 0x1221 JUMP JUMPDEST JUMPDEST DUP1 PUSH2 0x25D6 JUMPI POP DUP3 PUSH20 0xFFFFFFFFFFFFFFFFFFFFFFFFFFFFFFFFFFFFFFFF AND PUSH2 0x25BE DUP4 PUSH2 0x16D6 JUMP JUMPDEST PUSH20 0xFFFFFFFFFFFFFFFFFFFFFFFFFFFFFFFFFFFFFFFF AND EQ JUMPDEST JUMPDEST SWAP1 POP SWAP4 SWAP3 POP POP POP JUMP JUMPDEST PUSH0 PUSH20 0xFFFFFFFFFFFFFFFFFFFFFFFFFFFFFFFFFFFFFFFF AND DUP3 PUSH20 0xFFFFFFFFFFFFFFFFFFFFFFFFFFFFFFFFFFFFFFFF AND SUB PUSH2 0x2650 JUMPI PUSH0 PUSH1 0x40 MLOAD PUSH32 0x64A0AE9200000000000000000000000000000000000000000000000000000000 DUP2 MSTORE PUSH1 0x4 ADD PUSH2 0x2647 SWAP2 SWAP1 PUSH2 0x2ADF JUMP JUMPDEST PUSH1 0x40 MLOAD DUP1 SWAP2 SUB SWAP1 REVERT JUMPDEST PUSH0 PUSH2 0x265C DUP4 DUP4 PUSH0 PUSH2 0x1728 JUMP JUMPDEST SWAP1 POP PUSH0 PUSH20 0xFFFFFFFFFFFFFFFFFFFFFFFFFFFFFFFFFFFFFFFF AND DUP2 PUSH20 0xFFFFFFFFFFFFFFFFFFFFFFFFFFFFFFFFFFFFFFFF AND EQ PUSH2 0x26CE JUMPI PUSH0 PUSH1 0x40 MLOAD PUSH32 0x73C6AC6E00000000000000000000000000000000000000000000000000000000 DUP2 MSTORE PUSH1 0x4 ADD PUSH2 0x26C5 SWAP2 SWAP1 PUSH2 0x2ADF JUMP JUMPDEST PUSH1 0x40 MLOAD DUP1 SWAP2 SUB SWAP1 REVERT JUMPDEST POP POP POP JUMP JUMPDEST PUSH1 0x60 PUSH0 PUSH1 0x1 PUSH2 0x26E1 DUP5 PUSH2 0x279D JUMP JUMPDEST ADD SWAP1 POP PUSH0 DUP2 PUSH8 0xFFFFFFFFFFFFFFFF DUP2 GT ISZERO PUSH2 0x26FF JUMPI PUSH2 0x26FE PUSH2 0x2C0B JUMP JUMPDEST JUMPDEST PUSH1 0x40 MLOAD SWAP1 DUP1 DUP3 MSTORE DUP1 PUSH1 0x1F ADD PUSH1 0x1F NOT AND PUSH1 0x20 ADD DUP3 ADD PUSH1 0x40 MSTORE DUP1 ISZERO PUSH2 0x2731 JUMPI DUP2 PUSH1 0x20 ADD PUSH1 0x1 DUP3 MUL DUP1 CALLDATASIZE DUP4 CALLDATACOPY DUP1 DUP3 ADD SWAP2 POP POP SWAP1 POP JUMPDEST POP SWAP1 POP PUSH0 DUP3 PUSH1 0x20 ADD DUP3 ADD SWAP1 POP JUMPDEST PUSH1 0x1 ISZERO PUSH2 0x2792 JUMPI DUP1 DUP1 PUSH1 0x1 SWAP1 SUB SWAP2 POP POP PUSH32 0x3031323334353637383961626364656600000000000000000000000000000000 PUSH1 0xA DUP7 MOD BYTE DUP2 MSTORE8 PUSH1 0xA DUP6 DUP2 PUSH2 0x2787 JUMPI PUSH2 0x2786 PUSH2 0x33EC JUMP JUMPDEST JUMPDEST DIV SWAP5 POP PUSH0 DUP6 SUB PUSH2 0x273E JUMPI JUMPDEST DUP2 SWAP4 POP POP POP POP SWAP2 SWAP1 POP JUMP JUMPDEST PUSH0 DUP1 PUSH0 SWAP1 POP PUSH27 0x184F03E93FF9F4DAA797ED6E38ED64BF6A1F010000000000000000 DUP4 LT PUSH2 0x27F9 JUMPI PUSH27 0x184F03E93FF9F4DAA797ED6E38ED64BF6A1F010000000000000000 DUP4 DUP2 PUSH2 0x27EF JUMPI PUSH2 0x27EE PUSH2 0x33EC JUMP JUMPDEST JUMPDEST DIV SWAP3 POP PUSH1 0x40 DUP2 ADD SWAP1 POP JUMPDEST PUSH14 0x4EE2D6D415B85ACEF8100000000 DUP4 LT PUSH2 0x2836 JUMPI PUSH14 0x4EE2D6D415B85ACEF8100000000 DUP4 DUP2 PUSH2 0x282C JUMPI PUSH2 0x282B PUSH2 0x33EC JUMP JUMPDEST JUMPDEST DIV SWAP3 POP PUSH1 0x20 DUP2 ADD SWAP1 POP JUMPDEST PUSH7 0x2386F26FC10000 DUP4 LT PUSH2 0x2865 JUMPI PUSH7 0x2386F26FC10000 DUP4 DUP2 PUSH2 0x285B JUMPI PUSH2 0x285A PUSH2 0x33EC JUMP JUMPDEST JUMPDEST DIV SWAP3 POP PUSH1 0x10 DUP2 ADD SWAP1 POP JUMPDEST PUSH4 0x5F5E100 DUP4 LT PUSH2 0x288E JUMPI PUSH4 0x5F5E100 DUP4 DUP2 PUSH2 0x2884 JUMPI PUSH2 0x2883 PUSH2 0x33EC JUMP JUMPDEST JUMPDEST DIV SWAP3 POP PUSH1 0x8 DUP2 ADD SWAP1 POP JUMPDEST PUSH2 0x2710 DUP4 LT PUSH2 0x28B3 JUMPI PUSH2 0x2710 DUP4 DUP2 PUSH2 0x28A9 JUMPI PUSH2 0x28A8 PUSH2 0x33EC JUMP JUMPDEST JUMPDEST DIV SWAP3 POP PUSH1 0x4 DUP2 ADD SWAP1 POP JUMPDEST PUSH1 0x64 DUP4 LT PUSH2 0x28D6 JUMPI PUSH1 0x64 DUP4 DUP2 PUSH2 0x28CC JUMPI PUSH2 0x28CB PUSH2 0x33EC JUMP JUMPDEST JUMPDEST DIV SWAP3 POP PUSH1 0x2 DUP2 ADD SWAP1 POP JUMPDEST PUSH1 0xA DUP4 LT PUSH2 0x28E5 JUMPI PUSH1 0x1 DUP2 ADD SWAP1 POP JUMPDEST DUP1 SWAP2 POP POP SWAP2 SWAP1 POP JUMP JUMPDEST PUSH0 PUSH1 0x40 MLOAD SWAP1 POP SWAP1 JUMP JUMPDEST PUSH0 DUP1 REVERT JUMPDEST PUSH0 DUP1 REVERT JUMPDEST PUSH0 PUSH32 0xFFFFFFFF00000000000000000000000000000000000000000000000000000000 DUP3 AND SWAP1 POP SWAP2 SWAP1 POP JUMP JUMPDEST PUSH2 0x2933 DUP2 PUSH2 0x28FF JUMP JUMPDEST DUP2 EQ PUSH2 0x293D JUMPI PUSH0 DUP1 REVERT JUMPDEST POP JUMP JUMPDEST PUSH0 DUP2 CALLDATALOAD SWAP1 POP PUSH2 0x294E DUP2 PUSH2 0x292A JUMP JUMPDEST SWAP3 SWAP2 POP POP JUMP JUMPDEST PUSH0 PUSH1 0x20 DUP3 DUP5 SUB SLT ISZERO PUSH2 0x2969 JUMPI PUSH2 0x2968 PUSH2 0x28F7 JUMP JUMPDEST JUMPDEST PUSH0 PUSH2 0x2976 DUP5 DUP3 DUP6 ADD PUSH2 0x2940 JUMP JUMPDEST SWAP2 POP POP SWAP3 SWAP2 POP POP JUMP JUMPDEST PUSH0 DUP2 ISZERO ISZERO SWAP1 POP SWAP2 SWAP1 POP JUMP JUMPDEST PUSH2 0x2993 DUP2 PUSH2 0x297F JUMP JUMPDEST DUP3 MSTORE POP POP JUMP JUMPDEST PUSH0 PUSH1 0x20 DUP3 ADD SWAP1 POP PUSH2 0x29AC PUSH0 DUP4 ADD DUP5 PUSH2 0x298A JUMP JUMPDEST SWAP3 SWAP2 POP POP JUMP JUMPDEST PUSH0 DUP2 MLOAD SWAP1 POP SWAP2 SWAP1 POP JUMP JUMPDEST PUSH0 DUP3 DUP3 MSTORE PUSH1 0x20 DUP3 ADD SWAP1 POP SWAP3 SWAP2 POP POP JUMP JUMPDEST DUP3 DUP2 DUP4 MCOPY PUSH0 DUP4 DUP4 ADD MSTORE POP POP POP JUMP JUMPDEST PUSH0 PUSH1 0x1F NOT PUSH1 0x1F DUP4 ADD AND SWAP1 POP SWAP2 SWAP1 POP JUMP JUMPDEST PUSH0 PUSH2 0x29F4 DUP3 PUSH2 0x29B2 JUMP JUMPDEST PUSH2 0x29FE DUP2 DUP6 PUSH2 0x29BC JUMP JUMPDEST SWAP4 POP PUSH2 0x2A0E DUP2 DUP6 PUSH1 0x20 DUP7 ADD PUSH2 0x29CC JUMP JUMPDEST PUSH2 0x2A17 DUP2 PUSH2 0x29DA JUMP JUMPDEST DUP5 ADD SWAP2 POP POP SWAP3 SWAP2 POP POP JUMP JUMPDEST PUSH0 PUSH1 0x20 DUP3 ADD SWAP1 POP DUP2 DUP2 SUB PUSH0 DUP4 ADD MSTORE PUSH2 0x2A3A DUP2 DUP5 PUSH2 0x29EA JUMP JUMPDEST SWAP1 POP SWAP3 SWAP2 POP POP JUMP JUMPDEST PUSH0 DUP2 SWAP1 POP SWAP2 SWAP1 POP JUMP JUMPDEST PUSH2 0x2A54 DUP2 PUSH2 0x2A42 JUMP JUMPDEST DUP2 EQ PUSH2 0x2A5E JUMPI PUSH0 DUP1 REVERT JUMPDEST POP JUMP JUMPDEST PUSH0 DUP2 CALLDATALOAD SWAP1 POP PUSH2 0x2A6F DUP2 PUSH2 0x2A4B JUMP JUMPDEST SWAP3 SWAP2 POP POP JUMP JUMPDEST PUSH0 PUSH1 0x20 DUP3 DUP5 SUB SLT ISZERO PUSH2 0x2A8A JUMPI PUSH2 0x2A89 PUSH2 0x28F7 JUMP JUMPDEST JUMPDEST PUSH0 PUSH2 0x2A97 DUP5 DUP3 DUP6 ADD PUSH2 0x2A61 JUMP JUMPDEST SWAP2 POP POP SWAP3 SWAP2 POP POP JUMP JUMPDEST PUSH0 PUSH20 0xFFFFFFFFFFFFFFFFFFFFFFFFFFFFFFFFFFFFFFFF DUP3 AND SWAP1 POP SWAP2 SWAP1 POP JUMP JUMPDEST PUSH0 PUSH2 0x2AC9 DUP3 PUSH2 0x2AA0 JUMP JUMPDEST SWAP1 POP SWAP2 SWAP1 POP JUMP JUMPDEST PUSH2 0x2AD9 DUP2 PUSH2 0x2ABF JUMP JUMPDEST DUP3 MSTORE POP POP JUMP JUMPDEST PUSH0 PUSH1 0x20 DUP3 ADD SWAP1 POP PUSH2 0x2AF2 PUSH0 DUP4 ADD DUP5 PUSH2 0x2AD0 JUMP JUMPDEST SWAP3 SWAP2 POP POP JUMP JUMPDEST PUSH2 0x2B01 DUP2 PUSH2 0x2ABF JUMP JUMPDEST DUP2 EQ PUSH2 0x2B0B JUMPI PUSH0 DUP1 REVERT JUMPDEST POP JUMP JUMPDEST PUSH0 DUP2 CALLDATALOAD SWAP1 POP PUSH2 0x2B1C DUP2 PUSH2 0x2AF8 JUMP JUMPDEST SWAP3 SWAP2 POP POP JUMP JUMPDEST PUSH0 DUP1 PUSH1 0x40 DUP4 DUP6 SUB SLT ISZERO PUSH2 0x2B38 JUMPI PUSH2 0x2B37 PUSH2 0x28F7 JUMP JUMPDEST JUMPDEST PUSH0 PUSH2 0x2B45 DUP6 DUP3 DUP7 ADD PUSH2 0x2B0E JUMP JUMPDEST SWAP3 POP POP PUSH1 0x20 PUSH2 0x2B56 DUP6 DUP3 DUP7 ADD PUSH2 0x2A61 JUMP JUMPDEST SWAP2 POP POP SWAP3 POP SWAP3 SWAP1 POP JUMP JUMPDEST PUSH0 DUP1 PUSH0 PUSH1 0x60 DUP5 DUP7 SUB SLT ISZERO PUSH2 0x2B77 JUMPI PUSH2 0x2B76 PUSH2 0x28F7 JUMP JUMPDEST JUMPDEST PUSH0 PUSH2 0x2B84 DUP7 DUP3 DUP8 ADD PUSH2 0x2B0E JUMP JUMPDEST SWAP4 POP POP PUSH1 0x20 PUSH2 0x2B95 DUP7 DUP3 DUP8 ADD PUSH2 0x2B0E JUMP JUMPDEST SWAP3 POP POP PUSH1 0x40 PUSH2 0x2BA6 DUP7 DUP3 DUP8 ADD PUSH2 0x2A61 JUMP JUMPDEST SWAP2 POP POP SWAP3 POP SWAP3 POP SWAP3 JUMP JUMPDEST PUSH2 0x2BB9 DUP2 PUSH2 0x2A42 JUMP JUMPDEST DUP3 MSTORE POP POP JUMP JUMPDEST PUSH0 PUSH1 0x20 DUP3 ADD SWAP1 POP PUSH2 0x2BD2 PUSH0 DUP4 ADD DUP5 PUSH2 0x2BB0 JUMP JUMPDEST SWAP3 SWAP2 POP POP JUMP JUMPDEST PUSH0 PUSH1 0x20 DUP3 DUP5 SUB SLT ISZERO PUSH2 0x2BED JUMPI PUSH2 0x2BEC PUSH2 0x28F7 JUMP JUMPDEST JUMPDEST PUSH0 PUSH2 0x2BFA DUP5 DUP3 DUP6 ADD PUSH2 0x2B0E JUMP JUMPDEST SWAP2 POP POP SWAP3 SWAP2 POP POP JUMP JUMPDEST PUSH0 DUP1 REVERT JUMPDEST PUSH0 DUP1 REVERT JUMPDEST PUSH32 0x4E487B7100000000000000000000000000000000000000000000000000000000 PUSH0 MSTORE PUSH1 0x41 PUSH1 0x4 MSTORE PUSH1 0x24 PUSH0 REVERT JUMPDEST PUSH2 0x2C41 DUP3 PUSH2 0x29DA JUMP JUMPDEST DUP2 ADD DUP2 DUP2 LT PUSH8 0xFFFFFFFFFFFFFFFF DUP3 GT OR ISZERO PUSH2 0x2C60 JUMPI PUSH2 0x2C5F PUSH2 0x2C0B JUMP JUMPDEST JUMPDEST DUP1 PUSH1 0x40 MSTORE POP POP POP JUMP JUMPDEST PUSH0 PUSH2 0x2C72 PUSH2 0x28EE JUMP JUMPDEST SWAP1 POP PUSH2 0x2C7E DUP3 DUP3 PUSH2 0x2C38 JUMP JUMPDEST SWAP2 SWAP1 POP JUMP JUMPDEST PUSH0 PUSH8 0xFFFFFFFFFFFFFFFF DUP3 GT ISZERO PUSH2 0x2C9D JUMPI PUSH2 0x2C9C PUSH2 0x2C0B JUMP JUMPDEST JUMPDEST PUSH2 0x2CA6 DUP3 PUSH2 0x29DA JUMP JUMPDEST SWAP1 POP PUSH1 0x20 DUP2 ADD SWAP1 POP SWAP2 SWAP1 POP JUMP JUMPDEST DUP3 DUP2 DUP4 CALLDATACOPY PUSH0 DUP4 DUP4 ADD MSTORE POP POP POP JUMP JUMPDEST PUSH0 PUSH2 0x2CD3 PUSH2 0x2CCE DUP5 PUSH2 0x2C83 JUMP JUMPDEST PUSH2 0x2C69 JUMP JUMPDEST SWAP1 POP DUP3 DUP2 MSTORE PUSH1 0x20 DUP2 ADD DUP5 DUP5 DUP5 ADD GT ISZERO PUSH2 0x2CEF JUMPI PUSH2 0x2CEE PUSH2 0x2C07 JUMP JUMPDEST JUMPDEST PUSH2 0x2CFA DUP5 DUP3 DUP6 PUSH2 0x2CB3 JUMP JUMPDEST POP SWAP4 SWAP3 POP POP POP JUMP JUMPDEST PUSH0 DUP3 PUSH1 0x1F DUP4 ADD SLT PUSH2 0x2D16 JUMPI PUSH2 0x2D15 PUSH2 0x2C03 JUMP JUMPDEST JUMPDEST DUP2 CALLDATALOAD PUSH2 0x2D26 DUP5 DUP3 PUSH1 0x20 DUP7 ADD PUSH2 0x2CC1 JUMP JUMPDEST SWAP2 POP POP SWAP3 SWAP2 POP POP JUMP JUMPDEST PUSH0 DUP1 PUSH0 DUP1 PUSH0 DUP1 PUSH1 0xC0 DUP8 DUP10 SUB SLT ISZERO PUSH2 0x2D49 JUMPI PUSH2 0x2D48 PUSH2 0x28F7 JUMP JUMPDEST JUMPDEST PUSH0 DUP8 ADD CALLDATALOAD PUSH8 0xFFFFFFFFFFFFFFFF DUP2 GT ISZERO PUSH2 0x2D66 JUMPI PUSH2 0x2D65 PUSH2 0x28FB JUMP JUMPDEST JUMPDEST PUSH2 0x2D72 DUP10 DUP3 DUP11 ADD PUSH2 0x2D02 JUMP JUMPDEST SWAP7 POP POP PUSH1 0x20 DUP8 ADD CALLDATALOAD PUSH8 0xFFFFFFFFFFFFFFFF DUP2 GT ISZERO PUSH2 0x2D93 JUMPI PUSH2 0x2D92 PUSH2 0x28FB JUMP JUMPDEST JUMPDEST PUSH2 0x2D9F DUP10 DUP3 DUP11 ADD PUSH2 0x2D02 JUMP JUMPDEST SWAP6 POP POP PUSH1 0x40 DUP8 ADD CALLDATALOAD PUSH8 0xFFFFFFFFFFFFFFFF DUP2 GT ISZERO PUSH2 0x2DC0 JUMPI PUSH2 0x2DBF PUSH2 0x28FB JUMP JUMPDEST JUMPDEST PUSH2 0x2DCC DUP10 DUP3 DUP11 ADD PUSH2 0x2D02 JUMP JUMPDEST SWAP5 POP POP PUSH1 0x60 DUP8 ADD CALLDATALOAD PUSH8 0xFFFFFFFFFFFFFFFF DUP2 GT ISZERO PUSH2 0x2DED JUMPI PUSH2 0x2DEC PUSH2 0x28FB JUMP JUMPDEST JUMPDEST PUSH2 0x2DF9 DUP10 DUP3 DUP11 ADD PUSH2 0x2D02 JUMP JUMPDEST SWAP4 POP POP PUSH1 0x80 DUP8 ADD CALLDATALOAD PUSH8 0xFFFFFFFFFFFFFFFF DUP2 GT ISZERO PUSH2 0x2E1A JUMPI PUSH2 0x2E19 PUSH2 0x28FB JUMP JUMPDEST JUMPDEST PUSH2 0x2E26 DUP10 DUP3 DUP11 ADD PUSH2 0x2D02 JUMP JUMPDEST SWAP3 POP POP PUSH1 0xA0 DUP8 ADD CALLDATALOAD PUSH8 0xFFFFFFFFFFFFFFFF DUP2 GT ISZERO PUSH2 0x2E47 JUMPI PUSH2 0x2E46 PUSH2 0x28FB JUMP JUMPDEST JUMPDEST PUSH2 0x2E53 DUP10 DUP3 DUP11 ADD PUSH2 0x2D02 JUMP JUMPDEST SWAP2 POP POP SWAP3 SWAP6 POP SWAP3 SWAP6 POP SWAP3 SWAP6 JUMP JUMPDEST PUSH0 DUP2 SWAP1 POP SWAP2 SWAP1 POP JUMP JUMPDEST PUSH2 0x2E72 DUP2 PUSH2 0x2E60 JUMP JUMPDEST DUP2 EQ PUSH2 0x2E7C JUMPI PUSH0 DUP1 REVERT JUMPDEST POP JUMP JUMPDEST PUSH0 DUP2 CALLDATALOAD SWAP1 POP PUSH2 0x2E8D DUP2 PUSH2 0x2E69 JUMP JUMPDEST SWAP3 SWAP2 POP POP JUMP JUMPDEST PUSH0 PUSH1 0x20 DUP3 DUP5 SUB SLT ISZERO PUSH2 0x2EA8 JUMPI PUSH2 0x2EA7 PUSH2 0x28F7 JUMP JUMPDEST JUMPDEST PUSH0 PUSH2 0x2EB5 DUP5 DUP3 DUP6 ADD PUSH2 0x2E7F JUMP JUMPDEST SWAP2 POP POP SWAP3 SWAP2 POP POP JUMP JUMPDEST PUSH0 PUSH1 0x80 DUP3 ADD SWAP1 POP PUSH2 0x2ED1 PUSH0 DUP4 ADD DUP8 PUSH2 0x2AD0 JUMP JUMPDEST PUSH2 0x2EDE PUSH1 0x20 DUP4 ADD DUP7 PUSH2 0x2BB0 JUMP JUMPDEST PUSH2 0x2EEB PUSH1 0x40 DUP4 ADD DUP6 PUSH2 0x2BB0 JUMP JUMPDEST PUSH2 0x2EF8 PUSH1 0x60 DUP4 ADD DUP5 PUSH2 0x298A JUMP JUMPDEST SWAP6 SWAP5 POP POP POP POP POP JUMP JUMPDEST PUSH2 0x2F0A DUP2 PUSH2 0x297F JUMP JUMPDEST DUP2 EQ PUSH2 0x2F14 JUMPI PUSH0 DUP1 REVERT JUMPDEST POP JUMP JUMPDEST PUSH0 DUP2 CALLDATALOAD SWAP1 POP PUSH2 0x2F25 DUP2 PUSH2 0x2F01 JUMP JUMPDEST SWAP3 SWAP2 POP POP JUMP JUMPDEST PUSH0 DUP1 PUSH1 0x40 DUP4 DUP6 SUB SLT ISZERO PUSH2 0x2F41 JUMPI PUSH2 0x2F40 PUSH2 0x28F7 JUMP JUMPDEST JUMPDEST PUSH0 PUSH2 0x2F4E DUP6 DUP3 DUP7 ADD PUSH2 0x2B0E JUMP JUMPDEST SWAP3 POP POP PUSH1 0x20 PUSH2 0x2F5F DUP6 DUP3 DUP7 ADD PUSH2 0x2F17 JUMP JUMPDEST SWAP2 POP POP SWAP3 POP SWAP3 SWAP1 POP JUMP JUMPDEST PUSH0 DUP1 PUSH1 0x40 DUP4 DUP6 SUB SLT ISZERO PUSH2 0x2F7F JUMPI PUSH2 0x2F7E PUSH2 0x28F7 JUMP JUMPDEST JUMPDEST PUSH0 PUSH2 0x2F8C DUP6 DUP3 DUP7 ADD PUSH2 0x2E7F JUMP JUMPDEST SWAP3 POP POP PUSH1 0x20 PUSH2 0x2F9D DUP6 DUP3 DUP7 ADD PUSH2 0x2F17 JUMP JUMPDEST SWAP2 POP POP SWAP3 POP SWAP3 SWAP1 POP JUMP JUMPDEST PUSH0 PUSH8 0xFFFFFFFFFFFFFFFF DUP3 GT ISZERO PUSH2 0x2FC1 JUMPI PUSH2 0x2FC0 PUSH2 0x2C0B JUMP JUMPDEST JUMPDEST PUSH2 0x2FCA DUP3 PUSH2 0x29DA JUMP JUMPDEST SWAP1 POP PUSH1 0x20 DUP2 ADD SWAP1 POP SWAP2 SWAP1 POP JUMP JUMPDEST PUSH0 PUSH2 0x2FE9 PUSH2 0x2FE4 DUP5 PUSH2 0x2FA7 JUMP JUMPDEST PUSH2 0x2C69 JUMP JUMPDEST SWAP1 POP DUP3 DUP2 MSTORE PUSH1 0x20 DUP2 ADD DUP5 DUP5 DUP5 ADD GT ISZERO PUSH2 0x3005 JUMPI PUSH2 0x3004 PUSH2 0x2C07 JUMP JUMPDEST JUMPDEST PUSH2 0x3010 DUP5 DUP3 DUP6 PUSH2 0x2CB3 JUMP JUMPDEST POP SWAP4 SWAP3 POP POP POP JUMP JUMPDEST PUSH0 DUP3 PUSH1 0x1F DUP4 ADD SLT PUSH2 0x302C JUMPI PUSH2 0x302B PUSH2 0x2C03 JUMP JUMPDEST JUMPDEST DUP2 CALLDATALOAD PUSH2 0x303C DUP5 DUP3 PUSH1 0x20 DUP7 ADD PUSH2 0x2FD7 JUMP JUMPDEST SWAP2 POP POP SWAP3 SWAP2 POP POP JUMP JUMPDEST PUSH0 DUP1 PUSH0 DUP1 PUSH1 0x80 DUP6 DUP8 SUB SLT ISZERO PUSH2 0x305D JUMPI PUSH2 0x305C PUSH2 0x28F7 JUMP JUMPDEST JUMPDEST PUSH0 PUSH2 0x306A DUP8 DUP3 DUP9 ADD PUSH2 0x2B0E JUMP JUMPDEST SWAP5 POP POP PUSH1 0x20 PUSH2 0x307B DUP8 DUP3 DUP9 ADD PUSH2 0x2B0E JUMP JUMPDEST SWAP4 POP POP PUSH1 0x40 PUSH2 0x308C DUP8 DUP3 DUP9 ADD PUSH2 0x2A61 JUMP JUMPDEST SWAP3 POP POP PUSH1 0x60 DUP6 ADD CALLDATALOAD PUSH8 0xFFFFFFFFFFFFFFFF DUP2 GT ISZERO PUSH2 0x30AD JUMPI PUSH2 0x30AC PUSH2 0x28FB JUMP JUMPDEST JUMPDEST PUSH2 0x30B9 DUP8 DUP3 DUP9 ADD PUSH2 0x3018 JUMP JUMPDEST SWAP2 POP POP SWAP3 SWAP6 SWAP2 SWAP5 POP SWAP3 POP JUMP JUMPDEST PUSH0 DUP1 PUSH1 0x40 DUP4 DUP6 SUB SLT ISZERO PUSH2 0x30DB JUMPI PUSH2 0x30DA PUSH2 0x28F7 JUMP JUMPDEST JUMPDEST PUSH0 PUSH2 0x30E8 DUP6 DUP3 DUP7 ADD PUSH2 0x2B0E JUMP JUMPDEST SWAP3 POP POP PUSH1 0x20 PUSH2 0x30F9 DUP6 DUP3 DUP7 ADD PUSH2 0x2B0E JUMP JUMPDEST SWAP2 POP POP SWAP3 POP SWAP3 SWAP1 POP JUMP JUMPDEST PUSH0 PUSH1 0x60 DUP3 ADD SWAP1 POP PUSH2 0x3116 PUSH0 DUP4 ADD DUP7 PUSH2 0x298A JUMP JUMPDEST PUSH2 0x3123 PUSH1 0x20 DUP4 ADD DUP6 PUSH2 0x2BB0 JUMP JUMPDEST PUSH2 0x3130 PUSH1 0x40 DUP4 ADD DUP5 PUSH2 0x2BB0 JUMP JUMPDEST SWAP5 SWAP4 POP POP POP POP JUMP JUMPDEST PUSH32 0x4E487B7100000000000000000000000000000000000000000000000000000000 PUSH0 MSTORE PUSH1 0x22 PUSH1 0x4 MSTORE PUSH1 0x24 PUSH0 REVERT JUMPDEST PUSH0 PUSH1 0x2 DUP3 DIV SWAP1 POP PUSH1 0x1 DUP3 AND DUP1 PUSH2 0x317C JUMPI PUSH1 0x7F DUP3 AND SWAP2 POP JUMPDEST PUSH1 0x20 DUP3 LT DUP2 SUB PUSH2 0x318F JUMPI PUSH2 0x318E PUSH2 0x3138 JUMP JUMPDEST JUMPDEST POP SWAP2 SWAP1 POP JUMP JUMPDEST PUSH0 PUSH1 0x60 DUP3 ADD SWAP1 POP PUSH2 0x31A8 PUSH0 DUP4 ADD DUP7 PUSH2 0x2AD0 JUMP JUMPDEST PUSH2 0x31B5 PUSH1 0x20 DUP4 ADD DUP6 PUSH2 0x2BB0 JUMP JUMPDEST PUSH2 0x31C2 PUSH1 0x40 DUP4 ADD DUP5 PUSH2 0x2AD0 JUMP JUMPDEST SWAP5 SWAP4 POP POP POP POP JUMP JUMPDEST PUSH32 0x4E6F7420616E20617574686F72697A6564206973737565720000000000000000 PUSH0 DUP3 ADD MSTORE POP JUMP JUMPDEST PUSH0 PUSH2 0x31FE PUSH1 0x18 DUP4 PUSH2 0x29BC JUMP JUMPDEST SWAP2 POP PUSH2 0x3209 DUP3 PUSH2 0x31CA JUMP JUMPDEST PUSH1 0x20 DUP3 ADD SWAP1 POP SWAP2 SWAP1 POP JUMP JUMPDEST PUSH0 PUSH1 0x20 DUP3 ADD SWAP1 POP DUP2 DUP2 SUB PUSH0 DUP4 ADD MSTORE PUSH2 0x322B DUP2 PUSH2 0x31F2 JUMP JUMPDEST SWAP1 POP SWAP2 SWAP1 POP JUMP JUMPDEST PUSH0 PUSH1 0x40 DUP3 ADD SWAP1 POP DUP2 DUP2 SUB PUSH0 DUP4 ADD MSTORE PUSH2 0x324A DUP2 DUP6 PUSH2 0x29EA JUMP JUMPDEST SWAP1 POP DUP2 DUP2 SUB PUSH1 0x20 DUP4 ADD MSTORE PUSH2 0x325E DUP2 DUP5 PUSH2 0x29EA JUMP JUMPDEST SWAP1 POP SWAP4 SWAP3 POP POP POP JUMP JUMPDEST PUSH32 0x5265717565737420616C72656164792070726F63657373656400000000000000 PUSH0 DUP3 ADD MSTORE POP JUMP JUMPDEST PUSH0 PUSH2 0x329B PUSH1 0x19 DUP4 PUSH2 0x29BC JUMP JUMPDEST SWAP2 POP PUSH2 0x32A6 DUP3 PUSH2 0x3267 JUMP JUMPDEST PUSH1 0x20 DUP3 ADD SWAP1 POP SWAP2 SWAP1 POP JUMP JUMPDEST PUSH0 PUSH1 0x20 DUP3 ADD SWAP1 POP DUP2 DUP2 SUB PUSH0 DUP4 ADD MSTORE PUSH2 0x32C8 DUP2 PUSH2 0x328F JUMP JUMPDEST SWAP1 POP SWAP2 SWAP1 POP JUMP JUMPDEST PUSH32 0x416C726561647920766F74656400000000000000000000000000000000000000 PUSH0 DUP3 ADD MSTORE POP JUMP JUMPDEST PUSH0 PUSH2 0x3303 PUSH1 0xD DUP4 PUSH2 0x29BC JUMP JUMPDEST SWAP2 POP PUSH2 0x330E DUP3 PUSH2 0x32CF JUMP JUMPDEST PUSH1 0x20 DUP3 ADD SWAP1 POP SWAP2 SWAP1 POP JUMP JUMPDEST PUSH0 PUSH1 0x20 DUP3 ADD SWAP1 POP DUP2 DUP2 SUB PUSH0 DUP4 ADD MSTORE PUSH2 0x3330 DUP2 PUSH2 0x32F7 JUMP JUMPDEST SWAP1 POP SWAP2 SWAP1 POP JUMP JUMPDEST PUSH32 0x4E487B7100000000000000000000000000000000000000000000000000000000 PUSH0 MSTORE PUSH1 0x11 PUSH1 0x4 MSTORE PUSH1 0x24 PUSH0 REVERT JUMPDEST PUSH0 PUSH2 0x336E DUP3 PUSH2 0x2A42 JUMP JUMPDEST SWAP2 POP PUSH32 0xFFFFFFFFFFFFFFFFFFFFFFFFFFFFFFFFFFFFFFFFFFFFFFFFFFFFFFFFFFFFFFFF DUP3 SUB PUSH2 0x33A0 JUMPI PUSH2 0x339F PUSH2 0x3337 JUMP JUMPDEST JUMPDEST PUSH1 0x1 DUP3 ADD SWAP1 POP SWAP2 SWAP1 POP JUMP JUMPDEST PUSH0 PUSH2 0x33B5 DUP3 PUSH2 0x2A42 JUMP JUMPDEST SWAP2 POP PUSH2 0x33C0 DUP4 PUSH2 0x2A42 JUMP JUMPDEST SWAP3 POP DUP3 DUP3 MUL PUSH2 0x33CE DUP2 PUSH2 0x2A42 JUMP JUMPDEST SWAP2 POP DUP3 DUP3 DIV DUP5 EQ DUP4 ISZERO OR PUSH2 0x33E5 JUMPI PUSH2 0x33E4 PUSH2 0x3337 JUMP JUMPDEST JUMPDEST POP SWAP3 SWAP2 POP POP JUMP JUMPDEST PUSH32 0x4E487B7100000000000000000000000000000000000000000000000000000000 PUSH0 MSTORE PUSH1 0x12 PUSH1 0x4 MSTORE PUSH1 0x24 PUSH0 REVERT JUMPDEST PUSH0 PUSH2 0x3423 DUP3 PUSH2 0x2A42 JUMP JUMPDEST SWAP2 POP PUSH2 0x342E DUP4 PUSH2 0x2A42 JUMP JUMPDEST SWAP3 POP DUP3 PUSH2 0x343E JUMPI PUSH2 0x343D PUSH2 0x33EC JUMP JUMPDEST JUMPDEST DUP3 DUP3 DIV SWAP1 POP SWAP3 SWAP2 POP POP JUMP JUMPDEST PUSH0 PUSH2 0x3453 DUP3 PUSH2 0x2A42 JUMP JUMPDEST SWAP2 POP PUSH0 DUP3 SUB PUSH2 0x3465 JUMPI PUSH2 0x3464 PUSH2 0x3337 JUMP JUMPDEST JUMPDEST PUSH1 0x1 DUP3 SUB SWAP1 POP SWAP2 SWAP1 POP JUMP JUMPDEST PUSH32 0x4469706C6F6D61206E6F7420666F756E64000000000000000000000000000000 PUSH0 DUP3 ADD MSTORE POP JUMP JUMPDEST PUSH0 PUSH2 0x34A4 PUSH1 0x11 DUP4 PUSH2 0x29BC JUMP JUMPDEST SWAP2 POP PUSH2 0x34AF DUP3 PUSH2 0x3470 JUMP JUMPDEST PUSH1 0x20 DUP3 ADD SWAP1 POP SWAP2 SWAP1 POP JUMP JUMPDEST PUSH0 PUSH1 0x20 DUP3 ADD SWAP1 POP DUP2 DUP2 SUB PUSH0 DUP4 ADD MSTORE PUSH2 0x34D1 DUP2 PUSH2 0x3498 JUMP JUMPDEST SWAP1 POP SWAP2 SWAP1 POP JUMP JUMPDEST PUSH32 0x546F6F206D616E792070656E64696E6720726571756573747300000000000000 PUSH0 DUP3 ADD MSTORE POP JUMP JUMPDEST PUSH0 PUSH2 0x350C PUSH1 0x19 DUP4 PUSH2 0x29BC JUMP JUMPDEST SWAP2 POP PUSH2 0x3517 DUP3 PUSH2 0x34D8 JUMP JUMPDEST PUSH1 0x20 DUP3 ADD SWAP1 POP SWAP2 SWAP1 POP JUMP JUMPDEST PUSH0 PUSH1 0x20 DUP3 ADD SWAP1 POP DUP2 DUP2 SUB PUSH0 DUP4 ADD MSTORE PUSH2 0x3539 DUP2 PUSH2 0x3500 JUMP JUMPDEST SWAP1 POP SWAP2 SWAP1 POP JUMP JUMPDEST PUSH32 0x496E73756666696369656E742066656500000000000000000000000000000000 PUSH0 DUP3 ADD MSTORE POP JUMP JUMPDEST PUSH0 PUSH2 0x3574 PUSH1 0x10 DUP4 PUSH2 0x29BC JUMP JUMPDEST SWAP2 POP PUSH2 0x357F DUP3 PUSH2 0x3540 JUMP JUMPDEST PUSH1 0x20 DUP3 ADD SWAP1 POP SWAP2 SWAP1 POP JUMP JUMPDEST PUSH0 PUSH1 0x20 DUP3 ADD SWAP1 POP DUP2 DUP2 SUB PUSH0 DUP4 ADD MSTORE PUSH2 0x35A1 DUP2 PUSH2 0x3568 JUMP JUMPDEST SWAP1 POP SWAP2 SWAP1 POP JUMP JUMPDEST PUSH32 0x416C726561647920616E20617574686F72697A65642069737375657200000000 PUSH0 DUP3 ADD MSTORE POP JUMP JUMPDEST PUSH0 PUSH2 0x35DC PUSH1 0x1C DUP4 PUSH2 0x29BC JUMP JUMPDEST SWAP2 POP PUSH2 0x35E7 DUP3 PUSH2 0x35A8 JUMP JUMPDEST PUSH1 0x20 DUP3 ADD SWAP1 POP SWAP2 SWAP1 POP JUMP JUMPDEST PUSH0 PUSH1 0x20 DUP3 ADD SWAP1 POP DUP2 DUP2 SUB PUSH0 DUP4 ADD MSTORE PUSH2 0x3609 DUP2 PUSH2 0x35D0 JUMP JUMPDEST SWAP1 POP SWAP2 SWAP1 POP JUMP JUMPDEST PUSH0 PUSH2 0x361A DUP3 PUSH2 0x2A42 JUMP JUMPDEST SWAP2 POP PUSH2 0x3625 DUP4 PUSH2 0x2A42 JUMP JUMPDEST SWAP3 POP DUP3 DUP3 ADD SWAP1 POP DUP1 DUP3 GT ISZERO PUSH2 0x363D JUMPI PUSH2 0x363C PUSH2 0x3337 JUMP JUMPDEST JUMPDEST SWAP3 SWAP2 POP POP JUMP JUMPDEST PUSH32 0x436F6F6C646F776E20706572696F642061637469766500000000000000000000 PUSH0 DUP3 ADD MSTORE POP JUMP JUMPDEST PUSH0 PUSH2 0x3677 PUSH1 0x16 DUP4 PUSH2 0x29BC JUMP JUMPDEST SWAP2 POP PUSH2 0x3682 DUP3 PUSH2 0x3643 JUMP JUMPDEST PUSH1 0x20 DUP3 ADD SWAP1 POP SWAP2 SWAP1 POP JUMP JUMPDEST PUSH0 PUSH1 0x20 DUP3 ADD SWAP1 POP DUP2 DUP2 SUB PUSH0 DUP4 ADD MSTORE PUSH2 0x36A4 DUP2 PUSH2 0x366B JUMP JUMPDEST SWAP1 POP SWAP2 SWAP1 POP JUMP JUMPDEST PUSH0 DUP2 PUSH1 0x60 SHL SWAP1 POP SWAP2 SWAP1 POP JUMP JUMPDEST PUSH0 PUSH2 0x36C1 DUP3 PUSH2 0x36AB JUMP JUMPDEST SWAP1 POP SWAP2 SWAP1 POP JUMP JUMPDEST PUSH0 PUSH2 0x36D2 DUP3 PUSH2 0x36B7 JUMP JUMPDEST SWAP1 POP SWAP2 SWAP1 POP JUMP JUMPDEST PUSH2 0x36EA PUSH2 0x36E5 DUP3 PUSH2 0x2ABF JUMP JUMPDEST PUSH2 0x36C8 JUMP JUMPDEST DUP3 MSTORE POP POP JUMP JUMPDEST PUSH0 DUP2 SWAP1 POP SWAP2 SWAP1 POP JUMP JUMPDEST PUSH2 0x370A PUSH2 0x3705 DUP3 PUSH2 0x2A42 JUMP JUMPDEST PUSH2 0x36F0 JUMP JUMPDEST DUP3 MSTORE POP POP JUMP JUMPDEST PUSH0 PUSH2 0x371B DUP3 DUP6 PUSH2 0x36D9 JUMP JUMPDEST PUSH1 0x14 DUP3 ADD SWAP2 POP PUSH2 0x372B DUP3 DUP5 PUSH2 0x36F9 JUMP JUMPDEST PUSH1 0x20 DUP3 ADD SWAP2 POP DUP2 SWAP1 POP SWAP4 SWAP3 POP POP POP JUMP JUMPDEST PUSH32 0x4E6F2070656E64696E6720726571756573747320666F756E6400000000000000 PUSH0 DUP3 ADD MSTORE POP JUMP JUMPDEST PUSH0 PUSH2 0x376F PUSH1 0x19 DUP4 PUSH2 0x29BC JUMP JUMPDEST SWAP2 POP PUSH2 0x377A DUP3 PUSH2 0x373B JUMP JUMPDEST PUSH1 0x20 DUP3 ADD SWAP1 POP SWAP2 SWAP1 POP JUMP JUMPDEST PUSH0 PUSH1 0x20 DUP3 ADD SWAP1 POP DUP2 DUP2 SUB PUSH0 DUP4 ADD MSTORE PUSH2 0x379C DUP2 PUSH2 0x3763 JUMP JUMPDEST SWAP1 POP SWAP2 SWAP1 POP JUMP JUMPDEST PUSH0 DUP2 SWAP1 POP DUP2 PUSH0 MSTORE PUSH1 0x20 PUSH0 KECCAK256 SWAP1 POP SWAP2 SWAP1 POP JUMP JUMPDEST PUSH0 PUSH1 0x20 PUSH1 0x1F DUP4 ADD DIV SWAP1 POP SWAP2 SWAP1 POP JUMP JUMPDEST PUSH0 DUP3 DUP3 SHL SWAP1 POP SWAP3 SWAP2 POP POP JUMP JUMPDEST PUSH0 PUSH1 0x8 DUP4 MUL PUSH2 0x37FF PUSH32 0xFFFFFFFFFFFFFFFFFFFFFFFFFFFFFFFFFFFFFFFFFFFFFFFFFFFFFFFFFFFFFFFF DUP3 PUSH2 0x37C4 JUMP JUMPDEST PUSH2 0x3809 DUP7 DUP4 PUSH2 0x37C4 JUMP JUMPDEST SWAP6 POP DUP1 NOT DUP5 AND SWAP4 POP DUP1 DUP7 AND DUP5 OR SWAP3 POP POP POP SWAP4 SWAP3 POP POP POP JUMP JUMPDEST PUSH0 DUP2 SWAP1 POP SWAP2 SWAP1 POP JUMP JUMPDEST PUSH0 PUSH2 0x3844 PUSH2 0x383F PUSH2 0x383A DUP5 PUSH2 0x2A42 JUMP JUMPDEST PUSH2 0x3821 JUMP JUMPDEST PUSH2 0x2A42 JUMP JUMPDEST SWAP1 POP SWAP2 SWAP1 POP JUMP JUMPDEST PUSH0 DUP2 SWAP1 POP SWAP2 SWAP1 POP JUMP JUMPDEST PUSH2 0x385D DUP4 PUSH2 0x382A JUMP JUMPDEST PUSH2 0x3871 PUSH2 0x3869 DUP3 PUSH2 0x384B JUMP JUMPDEST DUP5 DUP5 SLOAD PUSH2 0x37D0 JUMP JUMPDEST DUP3 SSTORE POP POP POP POP JUMP JUMPDEST PUSH0 SWAP1 JUMP JUMPDEST PUSH2 0x3885 PUSH2 0x3879 JUMP JUMPDEST PUSH2 0x3890 DUP2 DUP5 DUP5 PUSH2 0x3854 JUMP JUMPDEST POP POP POP JUMP JUMPDEST JUMPDEST DUP2 DUP2 LT ISZERO PUSH2 0x38B3 JUMPI PUSH2 0x38A8 PUSH0 DUP3 PUSH2 0x387D JUMP JUMPDEST PUSH1 0x1 DUP2 ADD SWAP1 POP PUSH2 0x3896 JUMP JUMPDEST POP POP JUMP JUMPDEST PUSH1 0x1F DUP3 GT ISZERO PUSH2 0x38F8 JUMPI PUSH2 0x38C9 DUP2 PUSH2 0x37A3 JUMP JUMPDEST PUSH2 0x38D2 DUP5 PUSH2 0x37B5 JUMP JUMPDEST DUP2 ADD PUSH1 0x20 DUP6 LT ISZERO PUSH2 0x38E1 JUMPI DUP2 SWAP1 POP JUMPDEST PUSH2 0x38F5 PUSH2 0x38ED DUP6 PUSH2 0x37B5 JUMP JUMPDEST DUP4 ADD DUP3 PUSH2 0x3895 JUMP JUMPDEST POP POP JUMPDEST POP POP POP JUMP JUMPDEST PUSH0 DUP3 DUP3 SHR SWAP1 POP SWAP3 SWAP2 POP POP JUMP JUMPDEST PUSH0 PUSH2 0x3918 PUSH0 NOT DUP5 PUSH1 0x8 MUL PUSH2 0x38FD JUMP JUMPDEST NOT DUP1 DUP4 AND SWAP2 POP POP SWAP3 SWAP2 POP POP JUMP JUMPDEST PUSH0 PUSH2 0x3930 DUP4 DUP4 PUSH2 0x3909 JUMP JUMPDEST SWAP2 POP DUP3 PUSH1 0x2 MUL DUP3 OR SWAP1 POP SWAP3 SWAP2 POP POP JUMP JUMPDEST PUSH2 0x3949 DUP3 PUSH2 0x29B2 JUMP JUMPDEST PUSH8 0xFFFFFFFFFFFFFFFF DUP2 GT ISZERO PUSH2 0x3962 JUMPI PUSH2 0x3961 PUSH2 0x2C0B JUMP JUMPDEST JUMPDEST PUSH2 0x396C DUP3 SLOAD PUSH2 0x3165 JUMP JUMPDEST PUSH2 0x3977 DUP3 DUP3 DUP6 PUSH2 0x38B7 JUMP JUMPDEST PUSH0 PUSH1 0x20 SWAP1 POP PUSH1 0x1F DUP4 GT PUSH1 0x1 DUP2 EQ PUSH2 0x39A8 JUMPI PUSH0 DUP5 ISZERO PUSH2 0x3996 JUMPI DUP3 DUP8 ADD MLOAD SWAP1 POP JUMPDEST PUSH2 0x39A0 DUP6 DUP3 PUSH2 0x3925 JUMP JUMPDEST DUP7 SSTORE POP PUSH2 0x3A07 JUMP JUMPDEST PUSH1 0x1F NOT DUP5 AND PUSH2 0x39B6 DUP7 PUSH2 0x37A3 JUMP JUMPDEST PUSH0 JUMPDEST DUP3 DUP2 LT ISZERO PUSH2 0x39DD JUMPI DUP5 DUP10 ADD MLOAD DUP3 SSTORE PUSH1 0x1 DUP3 ADD SWAP2 POP PUSH1 0x20 DUP6 ADD SWAP5 POP PUSH1 0x20 DUP2 ADD SWAP1 POP PUSH2 0x39B8 JUMP JUMPDEST DUP7 DUP4 LT ISZERO PUSH2 0x39FA JUMPI DUP5 DUP10 ADD MLOAD PUSH2 0x39F6 PUSH1 0x1F DUP10 AND DUP3 PUSH2 0x3909 JUMP JUMPDEST DUP4 SSTORE POP JUMPDEST PUSH1 0x1 PUSH1 0x2 DUP9 MUL ADD DUP9 SSTORE POP POP POP JUMPDEST POP POP POP POP POP POP JUMP JUMPDEST PUSH0 DUP2 MLOAD SWAP1 POP SWAP2 SWAP1 POP JUMP JUMPDEST PUSH0 DUP3 DUP3 MSTORE PUSH1 0x20 DUP3 ADD SWAP1 POP SWAP3 SWAP2 POP POP JUMP JUMPDEST PUSH0 PUSH2 0x3A33 DUP3 PUSH2 0x3A0F JUMP JUMPDEST PUSH2 0x3A3D DUP2 DUP6 PUSH2 0x3A19 JUMP JUMPDEST SWAP4 POP PUSH2 0x3A4D DUP2 DUP6 PUSH1 0x20 DUP7 ADD PUSH2 0x29CC JUMP JUMPDEST PUSH2 0x3A56 DUP2 PUSH2 0x29DA JUMP JUMPDEST DUP5 ADD SWAP2 POP POP SWAP3 SWAP2 POP POP JUMP JUMPDEST PUSH0 PUSH1 0x80 DUP3 ADD SWAP1 POP PUSH2 0x3A74 PUSH0 DUP4 ADD DUP8 PUSH2 0x2AD0 JUMP JUMPDEST PUSH2 0x3A81 PUSH1 0x20 DUP4 ADD DUP7 PUSH2 0x2AD0 JUMP JUMPDEST PUSH2 0x3A8E PUSH1 0x40 DUP4 ADD DUP6 PUSH2 0x2BB0 JUMP JUMPDEST DUP2 DUP2 SUB PUSH1 0x60 DUP4 ADD MSTORE PUSH2 0x3AA0 DUP2 DUP5 PUSH2 0x3A29 JUMP JUMPDEST SWAP1 POP SWAP6 SWAP5 POP POP POP POP POP JUMP JUMPDEST PUSH0 DUP2 MLOAD SWAP1 POP PUSH2 0x3AB9 DUP2 PUSH2 0x292A JUMP JUMPDEST SWAP3 SWAP2 POP POP JUMP JUMPDEST PUSH0 PUSH1 0x20 DUP3 DUP5 SUB SLT ISZERO PUSH2 0x3AD4 JUMPI PUSH2 0x3AD3 PUSH2 0x28F7 JUMP JUMPDEST JUMPDEST PUSH0 PUSH2 0x3AE1 DUP5 DUP3 DUP6 ADD PUSH2 0x3AAB JUMP JUMPDEST SWAP2 POP POP SWAP3 SWAP2 POP POP JUMP JUMPDEST PUSH0 DUP2 SWAP1 POP SWAP3 SWAP2 POP POP JUMP JUMPDEST PUSH0 PUSH2 0x3AFE DUP3 PUSH2 0x29B2 JUMP JUMPDEST PUSH2 0x3B08 DUP2 DUP6 PUSH2 0x3AEA JUMP JUMPDEST SWAP4 POP PUSH2 0x3B18 DUP2 DUP6 PUSH1 0x20 DUP7 ADD PUSH2 0x29CC JUMP JUMPDEST DUP1 DUP5 ADD SWAP2 POP POP SWAP3 SWAP2 POP POP JUMP JUMPDEST PUSH0 PUSH2 0x3B2F DUP3 DUP6 PUSH2 0x3AF4 JUMP JUMPDEST SWAP2 POP PUSH2 0x3B3B DUP3 DUP5 PUSH2 0x3AF4 JUMP JUMPDEST SWAP2 POP DUP2 SWAP1 POP SWAP4 SWAP3 POP POP POP JUMP JUMPDEST PUSH0 PUSH1 0x40 DUP3 ADD SWAP1 POP PUSH2 0x3B5A PUSH0 DUP4 ADD DUP6 PUSH2 0x2AD0 JUMP JUMPDEST PUSH2 0x3B67 PUSH1 0x20 DUP4 ADD DUP5 PUSH2 0x2BB0 JUMP JUMPDEST SWAP4 SWAP3 POP POP POP JUMP INVALID LOG2 PUSH5 0x6970667358 0x22 SLT KECCAK256 BLOCKHASH SWAP11 CREATE2 0xA6 PUSH30 0xF1B80D277D745C57E27C5B58C1323CEDDC1DC22DC6B5A829DCAC1764736F PUSH13 0x634300081A0033000000000000 "
		},
		"gasEstimates": {
			"creation": {
				"codeDepositCost": "3053600",
				"executionCost": "infinite",
				"totalCost": "infinite"
			},
			"external": {
				"INACTIVITY_PERIOD()": "436",
				"MAX_PENDING_REQUESTS()": "415",
				"REQUEST_COOLDOWN()": "414",
				"REQUEST_FEE()": "436",
				"VOTING_PERIOD()": "414",
				"approve(address,uint256)": "infinite",
				"authorizedIssuers(address)": "infinite",
				"balanceOf(address)": "infinite",
				"getApproved(uint256)": "infinite",
				"getDiploma(uint256)": "infinite",
				"isApprovedForAll(address,address)": "infinite",
				"issueDiploma(string,string,string,string,string,string)": "infinite",
				"issuerRequests(bytes32)": "infinite",
				"issuers(address)": "2945",
				"name()": "infinite",
				"owner()": "2626",
				"ownerOf(uint256)": "infinite",
				"pendingRequests()": "2493",
				"renounceOwnership()": "infinite",
				"requestAuthorization()": "infinite",
				"safeTransferFrom(address,address,uint256)": "infinite",
				"safeTransferFrom(address,address,uint256,bytes)": "infinite",
				"setApprovalForAll(address,bool)": "infinite",
				"supportsInterface(bytes4)": "946",
				"symbol()": "infinite",
				"tokenURI(uint256)": "infinite",
				"transferFrom(address,address,uint256)": "infinite",
				"transferOwnership(address)": "infinite",
				"voteOnIssuerRequest(bytes32,bool)": "infinite"
			},
			"internal": {
				"getFirstPendingRequest()": "infinite",
				"getIssuerCount()": "infinite"
			}
		},
		"methodIdentifiers": {
			"INACTIVITY_PERIOD()": "b18ada67",
			"MAX_PENDING_REQUESTS()": "363c6b81",
			"REQUEST_COOLDOWN()": "d3b144c6",
			"REQUEST_FEE()": "dbbd32be",
			"VOTING_PERIOD()": "b1610d7e",
			"approve(address,uint256)": "095ea7b3",
			"authorizedIssuers(address)": "f731fa0f",
			"balanceOf(address)": "70a08231",
			"getApproved(uint256)": "081812fc",
			"getDiploma(uint256)": "b1152847",
			"isApprovedForAll(address,address)": "e985e9c5",
			"issueDiploma(string,string,string,string,string,string)": "7be2c511",
			"issuerRequests(bytes32)": "8fd37fae",
			"issuers(address)": "38a7543e",
			"name()": "06fdde03",
			"owner()": "8da5cb5b",
			"ownerOf(uint256)": "6352211e",
			"pendingRequests()": "4a0aee29",
			"renounceOwnership()": "715018a6",
			"requestAuthorization()": "edea8b9f",
			"safeTransferFrom(address,address,uint256)": "42842e0e",
			"safeTransferFrom(address,address,uint256,bytes)": "b88d4fde",
			"setApprovalForAll(address,bool)": "a22cb465",
			"supportsInterface(bytes4)": "01ffc9a7",
			"symbol()": "95d89b41",
			"tokenURI(uint256)": "c87b56dd",
			"transferFrom(address,address,uint256)": "23b872dd",
			"transferOwnership(address)": "f2fde38b",
			"voteOnIssuerRequest(bytes32,bool)": "a882916d"
		}
	},
	"abi": [
		{
			"inputs": [
				{
					"internalType": "address[]",
					"name": "initialIssuers",
					"type": "address[]"
				}
			],
			"stateMutability": "nonpayable",
			"type": "constructor"
		},
		{
			"inputs": [
				{
					"internalType": "address",
					"name": "sender",
					"type": "address"
				},
				{
					"internalType": "uint256",
					"name": "tokenId",
					"type": "uint256"
				},
				{
					"internalType": "address",
					"name": "owner",
					"type": "address"
				}
			],
			"name": "ERC721IncorrectOwner",
			"type": "error"
		},
		{
			"inputs": [
				{
					"internalType": "address",
					"name": "operator",
					"type": "address"
				},
				{
					"internalType": "uint256",
					"name": "tokenId",
					"type": "uint256"
				}
			],
			"name": "ERC721InsufficientApproval",
			"type": "error"
		},
		{
			"inputs": [
				{
					"internalType": "address",
					"name": "approver",
					"type": "address"
				}
			],
			"name": "ERC721InvalidApprover",
			"type": "error"
		},
		{
			"inputs": [
				{
					"internalType": "address",
					"name": "operator",
					"type": "address"
				}
			],
			"name": "ERC721InvalidOperator",
			"type": "error"
		},
		{
			"inputs": [
				{
					"internalType": "address",
					"name": "owner",
					"type": "address"
				}
			],
			"name": "ERC721InvalidOwner",
			"type": "error"
		},
		{
			"inputs": [
				{
					"internalType": "address",
					"name": "receiver",
					"type": "address"
				}
			],
			"name": "ERC721InvalidReceiver",
			"type": "error"
		},
		{
			"inputs": [
				{
					"internalType": "address",
					"name": "sender",
					"type": "address"
				}
			],
			"name": "ERC721InvalidSender",
			"type": "error"
		},
		{
			"inputs": [
				{
					"internalType": "uint256",
					"name": "tokenId",
					"type": "uint256"
				}
			],
			"name": "ERC721NonexistentToken",
			"type": "error"
		},
		{
			"inputs": [
				{
					"internalType": "address",
					"name": "owner",
					"type": "address"
				}
			],
			"name": "OwnableInvalidOwner",
			"type": "error"
		},
		{
			"inputs": [
				{
					"internalType": "address",
					"name": "account",
					"type": "address"
				}
			],
			"name": "OwnableUnauthorizedAccount",
			"type": "error"
		},
		{
			"anonymous": false,
			"inputs": [
				{
					"indexed": true,
					"internalType": "address",
					"name": "owner",
					"type": "address"
				},
				{
					"indexed": true,
					"internalType": "address",
					"name": "approved",
					"type": "address"
				},
				{
					"indexed": true,
					"internalType": "uint256",
					"name": "tokenId",
					"type": "uint256"
				}
			],
			"name": "Approval",
			"type": "event"
		},
		{
			"anonymous": false,
			"inputs": [
				{
					"indexed": true,
					"internalType": "address",
					"name": "owner",
					"type": "address"
				},
				{
					"indexed": true,
					"internalType": "address",
					"name": "operator",
					"type": "address"
				},
				{
					"indexed": false,
					"internalType": "bool",
					"name": "approved",
					"type": "bool"
				}
			],
			"name": "ApprovalForAll",
			"type": "event"
		},
		{
			"anonymous": false,
			"inputs": [
				{
					"indexed": false,
					"internalType": "uint256",
					"name": "_fromTokenId",
					"type": "uint256"
				},
				{
					"indexed": false,
					"internalType": "uint256",
					"name": "_toTokenId",
					"type": "uint256"
				}
			],
			"name": "BatchMetadataUpdate",
			"type": "event"
		},
		{
			"anonymous": false,
			"inputs": [
				{
					"indexed": true,
					"internalType": "uint256",
					"name": "tokenId",
					"type": "uint256"
				},
				{
					"indexed": true,
					"internalType": "address",
					"name": "issuer",
					"type": "address"
				},
				{
					"indexed": false,
					"internalType": "string",
					"name": "studentName",
					"type": "string"
				},
				{
					"indexed": false,
					"internalType": "string",
					"name": "degree",
					"type": "string"
				}
			],
			"name": "DiplomaIssued",
			"type": "event"
		},
		{
			"anonymous": false,
			"inputs": [
				{
					"indexed": true,
					"internalType": "address",
					"name": "issuer",
					"type": "address"
				}
			],
			"name": "IssuerAuthorized",
			"type": "event"
		},
		{
			"anonymous": false,
			"inputs": [
				{
					"indexed": true,
					"internalType": "bytes32",
					"name": "requestId",
					"type": "bytes32"
				},
				{
					"indexed": true,
					"internalType": "address",
					"name": "requester",
					"type": "address"
				}
			],
			"name": "IssuerRequestSubmitted",
			"type": "event"
		},
		{
			"anonymous": false,
			"inputs": [
				{
					"indexed": true,
					"internalType": "bytes32",
					"name": "requestId",
					"type": "bytes32"
				},
				{
					"indexed": true,
					"internalType": "address",
					"name": "voter",
					"type": "address"
				},
				{
					"indexed": false,
					"internalType": "bool",
					"name": "approve",
					"type": "bool"
				}
			],
			"name": "IssuerRequestVoted",
			"type": "event"
		},
		{
			"anonymous": false,
			"inputs": [
				{
					"indexed": true,
					"internalType": "address",
					"name": "issuer",
					"type": "address"
				}
			],
			"name": "IssuerRevoked",
			"type": "event"
		},
		{
			"anonymous": false,
			"inputs": [
				{
					"indexed": false,
					"internalType": "uint256",
					"name": "_tokenId",
					"type": "uint256"
				}
			],
			"name": "MetadataUpdate",
			"type": "event"
		},
		{
			"anonymous": false,
			"inputs": [
				{
					"indexed": true,
					"internalType": "address",
					"name": "previousOwner",
					"type": "address"
				},
				{
					"indexed": true,
					"internalType": "address",
					"name": "newOwner",
					"type": "address"
				}
			],
			"name": "OwnershipTransferred",
			"type": "event"
		},
		{
			"anonymous": false,
			"inputs": [
				{
					"indexed": true,
					"internalType": "address",
					"name": "from",
					"type": "address"
				},
				{
					"indexed": true,
					"internalType": "address",
					"name": "to",
					"type": "address"
				},
				{
					"indexed": true,
					"internalType": "uint256",
					"name": "tokenId",
					"type": "uint256"
				}
			],
			"name": "Transfer",
			"type": "event"
		},
		{
			"inputs": [],
			"name": "INACTIVITY_PERIOD",
			"outputs": [
				{
					"internalType": "uint256",
					"name": "",
					"type": "uint256"
				}
			],
			"stateMutability": "view",
			"type": "function"
		},
		{
			"inputs": [],
			"name": "MAX_PENDING_REQUESTS",
			"outputs": [
				{
					"internalType": "uint256",
					"name": "",
					"type": "uint256"
				}
			],
			"stateMutability": "view",
			"type": "function"
		},
		{
			"inputs": [],
			"name": "REQUEST_COOLDOWN",
			"outputs": [
				{
					"internalType": "uint256",
					"name": "",
					"type": "uint256"
				}
			],
			"stateMutability": "view",
			"type": "function"
		},
		{
			"inputs": [],
			"name": "REQUEST_FEE",
			"outputs": [
				{
					"internalType": "uint256",
					"name": "",
					"type": "uint256"
				}
			],
			"stateMutability": "view",
			"type": "function"
		},
		{
			"inputs": [],
			"name": "VOTING_PERIOD",
			"outputs": [
				{
					"internalType": "uint256",
					"name": "",
					"type": "uint256"
				}
			],
			"stateMutability": "view",
			"type": "function"
		},
		{
			"inputs": [
				{
					"internalType": "address",
					"name": "to",
					"type": "address"
				},
				{
					"internalType": "uint256",
					"name": "tokenId",
					"type": "uint256"
				}
			],
			"name": "approve",
			"outputs": [],
			"stateMutability": "nonpayable",
			"type": "function"
		},
		{
			"inputs": [
				{
					"internalType": "address",
					"name": "",
					"type": "address"
				}
			],
			"name": "authorizedIssuers",
			"outputs": [
				{
					"internalType": "bool",
					"name": "isActive",
					"type": "bool"
				},
				{
					"internalType": "uint256",
					"name": "lastActiveTimestamp",
					"type": "uint256"
				},
				{
					"internalType": "uint256",
					"name": "lastVotedTimestamp",
					"type": "uint256"
				}
			],
			"stateMutability": "view",
			"type": "function"
		},
		{
			"inputs": [
				{
					"internalType": "address",
					"name": "owner",
					"type": "address"
				}
			],
			"name": "balanceOf",
			"outputs": [
				{
					"internalType": "uint256",
					"name": "",
					"type": "uint256"
				}
			],
			"stateMutability": "view",
			"type": "function"
		},
		{
			"inputs": [
				{
					"internalType": "uint256",
					"name": "tokenId",
					"type": "uint256"
				}
			],
			"name": "getApproved",
			"outputs": [
				{
					"internalType": "address",
					"name": "",
					"type": "address"
				}
			],
			"stateMutability": "view",
			"type": "function"
		},
		{
			"inputs": [
				{
					"internalType": "uint256",
					"name": "tokenId",
					"type": "uint256"
				}
			],
			"name": "getDiploma",
			"outputs": [
				{
					"internalType": "string",
					"name": "",
					"type": "string"
				}
			],
			"stateMutability": "view",
			"type": "function"
		},
		{
			"inputs": [
				{
					"internalType": "address",
					"name": "owner",
					"type": "address"
				},
				{
					"internalType": "address",
					"name": "operator",
					"type": "address"
				}
			],
			"name": "isApprovedForAll",
			"outputs": [
				{
					"internalType": "bool",
					"name": "",
					"type": "bool"
				}
			],
			"stateMutability": "view",
			"type": "function"
		},
		{
			"inputs": [
				{
					"internalType": "string",
					"name": "studentName",
					"type": "string"
				},
				{
					"internalType": "string",
					"name": "studentID",
					"type": "string"
				},
				{
					"internalType": "string",
					"name": "institutionName",
					"type": "string"
				},
				{
					"internalType": "string",
					"name": "degree",
					"type": "string"
				},
				{
					"internalType": "string",
					"name": "ipfsHash",
					"type": "string"
				},
				{
					"internalType": "string",
					"name": "_tokenURI",
					"type": "string"
				}
			],
			"name": "issueDiploma",
			"outputs": [
				{
					"internalType": "uint256",
					"name": "tokenId",
					"type": "uint256"
				}
			],
			"stateMutability": "nonpayable",
			"type": "function"
		},
		{
			"inputs": [
				{
					"internalType": "bytes32",
					"name": "",
					"type": "bytes32"
				}
			],
			"name": "issuerRequests",
			"outputs": [
				{
					"internalType": "address",
					"name": "requester",
					"type": "address"
				},
				{
					"internalType": "uint256",
					"name": "approvals",
					"type": "uint256"
				},
				{
					"internalType": "uint256",
					"name": "rejections",
					"type": "uint256"
				},
				{
					"internalType": "bool",
					"name": "processed",
					"type": "bool"
				}
			],
			"stateMutability": "view",
			"type": "function"
		},
		{
			"inputs": [
				{
					"internalType": "address",
					"name": "",
					"type": "address"
				}
			],
			"name": "issuers",
			"outputs": [
				{
					"internalType": "bool",
					"name": "",
					"type": "bool"
				}
			],
			"stateMutability": "view",
			"type": "function"
		},
		{
			"inputs": [],
			"name": "name",
			"outputs": [
				{
					"internalType": "string",
					"name": "",
					"type": "string"
				}
			],
			"stateMutability": "view",
			"type": "function"
		},
		{
			"inputs": [],
			"name": "owner",
			"outputs": [
				{
					"internalType": "address",
					"name": "",
					"type": "address"
				}
			],
			"stateMutability": "view",
			"type": "function"
		},
		{
			"inputs": [
				{
					"internalType": "uint256",
					"name": "tokenId",
					"type": "uint256"
				}
			],
			"name": "ownerOf",
			"outputs": [
				{
					"internalType": "address",
					"name": "",
					"type": "address"
				}
			],
			"stateMutability": "view",
			"type": "function"
		},
		{
			"inputs": [],
			"name": "pendingRequests",
			"outputs": [
				{
					"internalType": "uint256",
					"name": "",
					"type": "uint256"
				}
			],
			"stateMutability": "view",
			"type": "function"
		},
		{
			"inputs": [],
			"name": "renounceOwnership",
			"outputs": [],
			"stateMutability": "nonpayable",
			"type": "function"
		},
		{
			"inputs": [],
			"name": "requestAuthorization",
			"outputs": [],
			"stateMutability": "payable",
			"type": "function"
		},
		{
			"inputs": [
				{
					"internalType": "address",
					"name": "from",
					"type": "address"
				},
				{
					"internalType": "address",
					"name": "to",
					"type": "address"
				},
				{
					"internalType": "uint256",
					"name": "tokenId",
					"type": "uint256"
				}
			],
			"name": "safeTransferFrom",
			"outputs": [],
			"stateMutability": "nonpayable",
			"type": "function"
		},
		{
			"inputs": [
				{
					"internalType": "address",
					"name": "from",
					"type": "address"
				},
				{
					"internalType": "address",
					"name": "to",
					"type": "address"
				},
				{
					"internalType": "uint256",
					"name": "tokenId",
					"type": "uint256"
				},
				{
					"internalType": "bytes",
					"name": "data",
					"type": "bytes"
				}
			],
			"name": "safeTransferFrom",
			"outputs": [],
			"stateMutability": "nonpayable",
			"type": "function"
		},
		{
			"inputs": [
				{
					"internalType": "address",
					"name": "operator",
					"type": "address"
				},
				{
					"internalType": "bool",
					"name": "approved",
					"type": "bool"
				}
			],
			"name": "setApprovalForAll",
			"outputs": [],
			"stateMutability": "nonpayable",
			"type": "function"
		},
		{
			"inputs": [
				{
					"internalType": "bytes4",
					"name": "interfaceId",
					"type": "bytes4"
				}
			],
			"name": "supportsInterface",
			"outputs": [
				{
					"internalType": "bool",
					"name": "",
					"type": "bool"
				}
			],
			"stateMutability": "view",
			"type": "function"
		},
		{
			"inputs": [],
			"name": "symbol",
			"outputs": [
				{
					"internalType": "string",
					"name": "",
					"type": "string"
				}
			],
			"stateMutability": "view",
			"type": "function"
		},
		{
			"inputs": [
				{
					"internalType": "uint256",
					"name": "tokenId",
					"type": "uint256"
				}
			],
			"name": "tokenURI",
			"outputs": [
				{
					"internalType": "string",
					"name": "",
					"type": "string"
				}
			],
			"stateMutability": "view",
			"type": "function"
		},
		{
			"inputs": [
				{
					"internalType": "address",
					"name": "from",
					"type": "address"
				},
				{
					"internalType": "address",
					"name": "to",
					"type": "address"
				},
				{
					"internalType": "uint256",
					"name": "tokenId",
					"type": "uint256"
				}
			],
			"name": "transferFrom",
			"outputs": [],
			"stateMutability": "nonpayable",
			"type": "function"
		},
		{
			"inputs": [
				{
					"internalType": "address",
					"name": "newOwner",
					"type": "address"
				}
			],
			"name": "transferOwnership",
			"outputs": [],
			"stateMutability": "nonpayable",
			"type": "function"
		},
		{
			"inputs": [
				{
					"internalType": "bytes32",
					"name": "requestId",
					"type": "bytes32"
				},
				{
					"internalType": "bool",
					"name": "approve",
					"type": "bool"
				}
			],
			"name": "voteOnIssuerRequest",
			"outputs": [],
			"stateMutability": "nonpayable",
			"type": "function"
		}
	]
}